{
	"contracts/UmerToken_flattened.sol": {
		"UmerToken": {
			"abi": [
				{
					"inputs": [
						{
							"internalType": "address",
							"name": "recipient",
							"type": "address"
						}
					],
					"stateMutability": "nonpayable",
					"type": "constructor"
				},
				{
					"inputs": [
						{
							"internalType": "address",
							"name": "spender",
							"type": "address"
						},
						{
							"internalType": "uint256",
							"name": "allowance",
							"type": "uint256"
						},
						{
							"internalType": "uint256",
							"name": "needed",
							"type": "uint256"
						}
					],
					"name": "ERC20InsufficientAllowance",
					"type": "error"
				},
				{
					"inputs": [
						{
							"internalType": "address",
							"name": "sender",
							"type": "address"
						},
						{
							"internalType": "uint256",
							"name": "balance",
							"type": "uint256"
						},
						{
							"internalType": "uint256",
							"name": "needed",
							"type": "uint256"
						}
					],
					"name": "ERC20InsufficientBalance",
					"type": "error"
				},
				{
					"inputs": [
						{
							"internalType": "address",
							"name": "approver",
							"type": "address"
						}
					],
					"name": "ERC20InvalidApprover",
					"type": "error"
				},
				{
					"inputs": [
						{
							"internalType": "address",
							"name": "receiver",
							"type": "address"
						}
					],
					"name": "ERC20InvalidReceiver",
					"type": "error"
				},
				{
					"inputs": [
						{
							"internalType": "address",
							"name": "sender",
							"type": "address"
						}
					],
					"name": "ERC20InvalidSender",
					"type": "error"
				},
				{
					"inputs": [
						{
							"internalType": "address",
							"name": "spender",
							"type": "address"
						}
					],
					"name": "ERC20InvalidSpender",
					"type": "error"
				},
				{
					"anonymous": false,
					"inputs": [
						{
							"indexed": true,
							"internalType": "address",
							"name": "owner",
							"type": "address"
						},
						{
							"indexed": true,
							"internalType": "address",
							"name": "spender",
							"type": "address"
						},
						{
							"indexed": false,
							"internalType": "uint256",
							"name": "value",
							"type": "uint256"
						}
					],
					"name": "Approval",
					"type": "event"
				},
				{
					"anonymous": false,
					"inputs": [
						{
							"indexed": true,
							"internalType": "address",
							"name": "from",
							"type": "address"
						},
						{
							"indexed": true,
							"internalType": "address",
							"name": "to",
							"type": "address"
						},
						{
							"indexed": false,
							"internalType": "uint256",
							"name": "value",
							"type": "uint256"
						}
					],
					"name": "Transfer",
					"type": "event"
				},
				{
					"inputs": [
						{
							"internalType": "address",
							"name": "owner",
							"type": "address"
						},
						{
							"internalType": "address",
							"name": "spender",
							"type": "address"
						}
					],
					"name": "allowance",
					"outputs": [
						{
							"internalType": "uint256",
							"name": "",
							"type": "uint256"
						}
					],
					"stateMutability": "view",
					"type": "function"
				},
				{
					"inputs": [
						{
							"internalType": "address",
							"name": "spender",
							"type": "address"
						},
						{
							"internalType": "uint256",
							"name": "value",
							"type": "uint256"
						}
					],
					"name": "approve",
					"outputs": [
						{
							"internalType": "bool",
							"name": "",
							"type": "bool"
						}
					],
					"stateMutability": "nonpayable",
					"type": "function"
				},
				{
					"inputs": [
						{
							"internalType": "address",
							"name": "account",
							"type": "address"
						}
					],
					"name": "balanceOf",
					"outputs": [
						{
							"internalType": "uint256",
							"name": "",
							"type": "uint256"
						}
					],
					"stateMutability": "view",
					"type": "function"
				},
				{
					"inputs": [
						{
							"internalType": "uint256",
							"name": "newFee",
							"type": "uint256"
						}
					],
					"name": "changeFee",
					"outputs": [
						{
							"internalType": "bool",
							"name": "",
							"type": "bool"
						}
					],
					"stateMutability": "nonpayable",
					"type": "function"
				},
				{
					"inputs": [],
					"name": "decimals",
					"outputs": [
						{
							"internalType": "uint8",
							"name": "",
							"type": "uint8"
						}
					],
					"stateMutability": "view",
					"type": "function"
				},
				{
					"inputs": [],
					"name": "fee",
					"outputs": [
						{
							"internalType": "uint256",
							"name": "",
							"type": "uint256"
						}
					],
					"stateMutability": "view",
					"type": "function"
				},
				{
					"inputs": [],
					"name": "name",
					"outputs": [
						{
							"internalType": "string",
							"name": "",
							"type": "string"
						}
					],
					"stateMutability": "view",
					"type": "function"
				},
				{
					"inputs": [],
					"name": "symbol",
					"outputs": [
						{
							"internalType": "string",
							"name": "",
							"type": "string"
						}
					],
					"stateMutability": "view",
					"type": "function"
				},
				{
					"inputs": [],
					"name": "totalSupply",
					"outputs": [
						{
							"internalType": "uint256",
							"name": "",
							"type": "uint256"
						}
					],
					"stateMutability": "view",
					"type": "function"
				},
				{
					"inputs": [
						{
							"internalType": "address",
							"name": "to",
							"type": "address"
						},
						{
							"internalType": "uint256",
							"name": "value",
							"type": "uint256"
						}
					],
					"name": "transfer",
					"outputs": [
						{
							"internalType": "bool",
							"name": "",
							"type": "bool"
						}
					],
					"stateMutability": "nonpayable",
					"type": "function"
				},
				{
					"inputs": [
						{
							"internalType": "address",
							"name": "from",
							"type": "address"
						},
						{
							"internalType": "address",
							"name": "to",
							"type": "address"
						},
						{
							"internalType": "uint256",
							"name": "value",
							"type": "uint256"
						}
					],
					"name": "transferFrom",
					"outputs": [
						{
							"internalType": "bool",
							"name": "",
							"type": "bool"
						}
					],
					"stateMutability": "nonpayable",
					"type": "function"
				}
			],
			"devdoc": {
				"errors": {
					"ERC20InsufficientAllowance(address,uint256,uint256)": [
						{
							"details": "Indicates a failure with the `spender`’s `allowance`. Used in transfers.",
							"params": {
								"allowance": "Amount of tokens a `spender` is allowed to operate with.",
								"needed": "Minimum amount required to perform a transfer.",
								"spender": "Address that may be allowed to operate on tokens without being their owner."
							}
						}
					],
					"ERC20InsufficientBalance(address,uint256,uint256)": [
						{
							"details": "Indicates an error related to the current `balance` of a `sender`. Used in transfers.",
							"params": {
								"balance": "Current balance for the interacting account.",
								"needed": "Minimum amount required to perform a transfer.",
								"sender": "Address whose tokens are being transferred."
							}
						}
					],
					"ERC20InvalidApprover(address)": [
						{
							"details": "Indicates a failure with the `approver` of a token to be approved. Used in approvals.",
							"params": {
								"approver": "Address initiating an approval operation."
							}
						}
					],
					"ERC20InvalidReceiver(address)": [
						{
							"details": "Indicates a failure with the token `receiver`. Used in transfers.",
							"params": {
								"receiver": "Address to which tokens are being transferred."
							}
						}
					],
					"ERC20InvalidSender(address)": [
						{
							"details": "Indicates a failure with the token `sender`. Used in transfers.",
							"params": {
								"sender": "Address whose tokens are being transferred."
							}
						}
					],
					"ERC20InvalidSpender(address)": [
						{
							"details": "Indicates a failure with the `spender` to be approved. Used in approvals.",
							"params": {
								"spender": "Address that may be allowed to operate on tokens without being their owner."
							}
						}
					]
				},
				"events": {
					"Approval(address,address,uint256)": {
						"details": "Emitted when the allowance of a `spender` for an `owner` is set by a call to {approve}. `value` is the new allowance."
					},
					"Transfer(address,address,uint256)": {
						"details": "Emitted when `value` tokens are moved from one account (`from`) to another (`to`). Note that `value` may be zero."
					}
				},
				"kind": "dev",
				"methods": {
					"allowance(address,address)": {
						"details": "See {IERC20-allowance}."
					},
					"approve(address,uint256)": {
						"details": "See {IERC20-approve}. NOTE: If `value` is the maximum `uint256`, the allowance is not updated on `transferFrom`. This is semantically equivalent to an infinite approval. Requirements: - `spender` cannot be the zero address."
					},
					"balanceOf(address)": {
						"details": "See {IERC20-balanceOf}."
					},
					"decimals()": {
						"details": "Returns the number of decimals used to get its user representation. For example, if `decimals` equals `2`, a balance of `505` tokens should be displayed to a user as `5.05` (`505 / 10 ** 2`). Tokens usually opt for a value of 18, imitating the relationship between Ether and Wei. This is the default value returned by this function, unless it's overridden. NOTE: This information is only used for _display_ purposes: it in no way affects any of the arithmetic of the contract, including {IERC20-balanceOf} and {IERC20-transfer}."
					},
					"name()": {
						"details": "Returns the name of the token."
					},
					"symbol()": {
						"details": "Returns the symbol of the token, usually a shorter version of the name."
					},
					"totalSupply()": {
						"details": "See {IERC20-totalSupply}."
					},
					"transfer(address,uint256)": {
						"details": "Moves a `value` amount of tokens from the caller's account to `to`. Returns a boolean value indicating whether the operation succeeded. Emits a {Transfer} event."
					},
					"transferFrom(address,address,uint256)": {
						"details": "See {IERC20-transferFrom}. Skips emitting an {Approval} event indicating an allowance update. This is not required by the ERC. See {xref-ERC20-_approve-address-address-uint256-bool-}[_approve]. NOTE: Does not update the allowance if the current allowance is the maximum `uint256`. Requirements: - `from` and `to` cannot be the zero address. - `from` must have a balance of at least `value`. - the caller must have allowance for ``from``'s tokens of at least `value`."
					}
				},
				"version": 1
			},
			"evm": {
				"assembly": "    /* \"contracts/UmerToken_flattened.sol\":22388:22540  contract UmerToken is ERC20 {... */\n  mstore(0x40, 0x80)\n    /* \"contracts/UmerToken_flattened.sol\":14234:14236  10 */\n  0x0a\n    /* \"contracts/UmerToken_flattened.sol\":14216:14236  uint public fee = 10 */\n  0x05\n  sstore\n    /* \"contracts/UmerToken_flattened.sol\":14259:14269  msg.sender */\n  caller\n    /* \"contracts/UmerToken_flattened.sol\":14242:14269  address _owner = msg.sender */\n  0x06\n  exp(0x0100, 0x00)\n  dup2\n  sload\n  dup2\n  0xffffffffffffffffffffffffffffffffffffffff\n  mul\n  not\n  and\n  swap1\n  dup4\n  0xffffffffffffffffffffffffffffffffffffffff\n  and\n  mul\n  or\n  swap1\n  sstore\n  pop\n    /* \"contracts/UmerToken_flattened.sol\":22422:22538  constructor(address recipient) ERC20(\"UmerToken\", \"UTK\") {... */\n  callvalue\n  dup1\n  iszero\n  tag_1\n  jumpi\n  0x00\n  dup1\n  revert\ntag_1:\n  pop\n  mload(0x40)\n  sub(codesize, bytecodeSize)\n  dup1\n  bytecodeSize\n  dup4\n  codecopy\n  dup2\n  dup2\n  add\n  0x40\n  mstore\n  dup2\n  add\n  swap1\n  tag_2\n  swap2\n  swap1\n  tag_3\n  jump\t// in\ntag_2:\n    /* \"contracts/UmerToken_flattened.sol\":12502:12615  constructor(string memory name_, string memory symbol_) {... */\n  mload(0x40)\n  dup1\n  0x40\n  add\n  0x40\n  mstore\n  dup1\n  0x09\n  dup2\n  mstore\n  0x20\n  add\n  0x556d6572546f6b656e0000000000000000000000000000000000000000000000\n  dup2\n  mstore\n  pop\n  mload(0x40)\n  dup1\n  0x40\n  add\n  0x40\n  mstore\n  dup1\n  0x03\n  dup2\n  mstore\n  0x20\n  add\n  0x55544b0000000000000000000000000000000000000000000000000000000000\n  dup2\n  mstore\n  pop\n    /* \"contracts/UmerToken_flattened.sol\":12576:12581  name_ */\n  dup2\n    /* \"contracts/UmerToken_flattened.sol\":12568:12573  _name */\n  0x03\n    /* \"contracts/UmerToken_flattened.sol\":12568:12581  _name = name_ */\n  swap1\n  dup2\n  tag_7\n  swap2\n  swap1\n  tag_8\n  jump\t// in\ntag_7:\n  pop\n    /* \"contracts/UmerToken_flattened.sol\":12601:12608  symbol_ */\n  dup1\n    /* \"contracts/UmerToken_flattened.sol\":12591:12598  _symbol */\n  0x04\n    /* \"contracts/UmerToken_flattened.sol\":12591:12608  _symbol = symbol_ */\n  swap1\n  dup2\n  tag_9\n  swap2\n  swap1\n  tag_8\n  jump\t// in\ntag_9:\n  pop\n    /* \"contracts/UmerToken_flattened.sol\":12502:12615  constructor(string memory name_, string memory symbol_) {... */\n  pop\n  pop\n    /* \"contracts/UmerToken_flattened.sol\":22489:22531  _mint(recipient, 10000 * 10 ** decimals()) */\n  tag_11\n    /* \"contracts/UmerToken_flattened.sol\":22495:22504  recipient */\n  dup2\n    /* \"contracts/UmerToken_flattened.sol\":22520:22530  decimals() */\n  tag_12\n    /* \"contracts/UmerToken_flattened.sol\":22520:22528  decimals */\n  shl(0x20, tag_13)\n    /* \"contracts/UmerToken_flattened.sol\":22520:22530  decimals() */\n  0x20\n  shr\n  jump\t// in\ntag_12:\n    /* \"contracts/UmerToken_flattened.sol\":22514:22516  10 */\n  0x0a\n    /* \"contracts/UmerToken_flattened.sol\":22514:22530  10 ** decimals() */\n  tag_14\n  swap2\n  swap1\n  tag_15\n  jump\t// in\ntag_14:\n    /* \"contracts/UmerToken_flattened.sol\":22506:22511  10000 */\n  0x2710\n    /* \"contracts/UmerToken_flattened.sol\":22506:22530  10000 * 10 ** decimals() */\n  tag_16\n  swap2\n  swap1\n  tag_17\n  jump\t// in\ntag_16:\n    /* \"contracts/UmerToken_flattened.sol\":22489:22494  _mint */\n  shl(0x20, tag_18)\n    /* \"contracts/UmerToken_flattened.sol\":22489:22531  _mint(recipient, 10000 * 10 ** decimals()) */\n  0x20\n  shr\n  jump\t// in\ntag_11:\n    /* \"contracts/UmerToken_flattened.sol\":22422:22538  constructor(address recipient) ERC20(\"UmerToken\", \"UTK\") {... */\n  pop\n    /* \"contracts/UmerToken_flattened.sol\":22388:22540  contract UmerToken is ERC20 {... */\n  jump(tag_19)\n    /* \"contracts/UmerToken_flattened.sol\":13608:13690  function decimals() public view virtual returns (uint8) {... */\ntag_13:\n    /* \"contracts/UmerToken_flattened.sol\":13657:13662  uint8 */\n  0x00\n    /* \"contracts/UmerToken_flattened.sol\":13681:13683  18 */\n  0x12\n    /* \"contracts/UmerToken_flattened.sol\":13674:13683  return 18 */\n  swap1\n  pop\n    /* \"contracts/UmerToken_flattened.sol\":13608:13690  function decimals() public view virtual returns (uint8) {... */\n  swap1\n  jump\t// out\n    /* \"contracts/UmerToken_flattened.sol\":18840:19048  function _mint(address account, uint256 value) internal {... */\ntag_18:\n    /* \"contracts/UmerToken_flattened.sol\":18929:18930  0 */\n  0x00\n    /* \"contracts/UmerToken_flattened.sol\":18910:18931  account == address(0) */\n  0xffffffffffffffffffffffffffffffffffffffff\n  and\n    /* \"contracts/UmerToken_flattened.sol\":18910:18917  account */\n  dup3\n    /* \"contracts/UmerToken_flattened.sol\":18910:18931  account == address(0) */\n  0xffffffffffffffffffffffffffffffffffffffff\n  and\n  sub\n    /* \"contracts/UmerToken_flattened.sol\":18906:18997  if (account == address(0)) {... */\n  tag_22\n  jumpi\n    /* \"contracts/UmerToken_flattened.sol\":18983:18984  0 */\n  0x00\n    /* \"contracts/UmerToken_flattened.sol\":18954:18986  ERC20InvalidReceiver(address(0)) */\n  mload(0x40)\n  0xec442f0500000000000000000000000000000000000000000000000000000000\n  dup2\n  mstore\n  0x04\n  add\n  tag_23\n  swap2\n  swap1\n  tag_24\n  jump\t// in\ntag_23:\n  mload(0x40)\n  dup1\n  swap2\n  sub\n  swap1\n  revert\n    /* \"contracts/UmerToken_flattened.sol\":18906:18997  if (account == address(0)) {... */\ntag_22:\n    /* \"contracts/UmerToken_flattened.sol\":19006:19041  _update(address(0), account, value) */\n  tag_25\n    /* \"contracts/UmerToken_flattened.sol\":19022:19023  0 */\n  0x00\n    /* \"contracts/UmerToken_flattened.sol\":19026:19033  account */\n  dup4\n    /* \"contracts/UmerToken_flattened.sol\":19035:19040  value */\n  dup4\n    /* \"contracts/UmerToken_flattened.sol\":19006:19013  _update */\n  shl(0x20, tag_26)\n    /* \"contracts/UmerToken_flattened.sol\":19006:19041  _update(address(0), account, value) */\n  0x20\n  shr\n  jump\t// in\ntag_25:\n    /* \"contracts/UmerToken_flattened.sol\":18840:19048  function _mint(address account, uint256 value) internal {... */\n  pop\n  pop\n  jump\t// out\n    /* \"contracts/UmerToken_flattened.sol\":17390:18497  function _update(address from, address to, uint256 value) internal virtual {... */\ntag_26:\n    /* \"contracts/UmerToken_flattened.sol\":17495:17496  0 */\n  0x00\n    /* \"contracts/UmerToken_flattened.sol\":17479:17497  from == address(0) */\n  0xffffffffffffffffffffffffffffffffffffffff\n  and\n    /* \"contracts/UmerToken_flattened.sol\":17479:17483  from */\n  dup4\n    /* \"contracts/UmerToken_flattened.sol\":17479:17497  from == address(0) */\n  0xffffffffffffffffffffffffffffffffffffffff\n  and\n  sub\n    /* \"contracts/UmerToken_flattened.sol\":17475:18015  if (from == address(0)) {... */\n  tag_28\n  jumpi\n    /* \"contracts/UmerToken_flattened.sol\":17631:17636  value */\n  dup1\n    /* \"contracts/UmerToken_flattened.sol\":17615:17627  _totalSupply */\n  0x02\n  0x00\n    /* \"contracts/UmerToken_flattened.sol\":17615:17636  _totalSupply += value */\n  dup3\n  dup3\n  sload\n  tag_29\n  swap2\n  swap1\n  tag_30\n  jump\t// in\ntag_29:\n  swap3\n  pop\n  pop\n  dup2\n  swap1\n  sstore\n  pop\n    /* \"contracts/UmerToken_flattened.sol\":17475:18015  if (from == address(0)) {... */\n  jump(tag_31)\ntag_28:\n    /* \"contracts/UmerToken_flattened.sol\":17667:17686  uint256 fromBalance */\n  0x00\n    /* \"contracts/UmerToken_flattened.sol\":17689:17698  _balances */\n  dup1\n    /* \"contracts/UmerToken_flattened.sol\":17689:17704  _balances[from] */\n  0x00\n    /* \"contracts/UmerToken_flattened.sol\":17699:17703  from */\n  dup6\n    /* \"contracts/UmerToken_flattened.sol\":17689:17704  _balances[from] */\n  0xffffffffffffffffffffffffffffffffffffffff\n  and\n  0xffffffffffffffffffffffffffffffffffffffff\n  and\n  dup2\n  mstore\n  0x20\n  add\n  swap1\n  dup2\n  mstore\n  0x20\n  add\n  0x00\n  keccak256\n  sload\n    /* \"contracts/UmerToken_flattened.sol\":17667:17704  uint256 fromBalance = _balances[from] */\n  swap1\n  pop\n    /* \"contracts/UmerToken_flattened.sol\":17736:17741  value */\n  dup2\n    /* \"contracts/UmerToken_flattened.sol\":17722:17733  fromBalance */\n  dup2\n    /* \"contracts/UmerToken_flattened.sol\":17722:17741  fromBalance < value */\n  lt\n    /* \"contracts/UmerToken_flattened.sol\":17718:17833  if (fromBalance < value) {... */\n  iszero\n  tag_32\n  jumpi\n    /* \"contracts/UmerToken_flattened.sol\":17793:17797  from */\n  dup4\n    /* \"contracts/UmerToken_flattened.sol\":17799:17810  fromBalance */\n  dup2\n    /* \"contracts/UmerToken_flattened.sol\":17812:17817  value */\n  dup4\n    /* \"contracts/UmerToken_flattened.sol\":17768:17818  ERC20InsufficientBalance(from, fromBalance, value) */\n  mload(0x40)\n  0xe450d38c00000000000000000000000000000000000000000000000000000000\n  dup2\n  mstore\n  0x04\n  add\n  tag_33\n  swap4\n  swap3\n  swap2\n  swap1\n  tag_34\n  jump\t// in\ntag_33:\n  mload(0x40)\n  dup1\n  swap2\n  sub\n  swap1\n  revert\n    /* \"contracts/UmerToken_flattened.sol\":17718:17833  if (fromBalance < value) {... */\ntag_32:\n    /* \"contracts/UmerToken_flattened.sol\":17985:17990  value */\n  dup2\n    /* \"contracts/UmerToken_flattened.sol\":17971:17982  fromBalance */\n  dup2\n    /* \"contracts/UmerToken_flattened.sol\":17971:17990  fromBalance - value */\n  sub\n    /* \"contracts/UmerToken_flattened.sol\":17953:17962  _balances */\n  0x00\n    /* \"contracts/UmerToken_flattened.sol\":17953:17968  _balances[from] */\n  dup1\n    /* \"contracts/UmerToken_flattened.sol\":17963:17967  from */\n  dup7\n    /* \"contracts/UmerToken_flattened.sol\":17953:17968  _balances[from] */\n  0xffffffffffffffffffffffffffffffffffffffff\n  and\n  0xffffffffffffffffffffffffffffffffffffffff\n  and\n  dup2\n  mstore\n  0x20\n  add\n  swap1\n  dup2\n  mstore\n  0x20\n  add\n  0x00\n  keccak256\n    /* \"contracts/UmerToken_flattened.sol\":17953:17990  _balances[from] = fromBalance - value */\n  dup2\n  swap1\n  sstore\n  pop\n    /* \"contracts/UmerToken_flattened.sol\":17653:18015  {... */\n  pop\n    /* \"contracts/UmerToken_flattened.sol\":17475:18015  if (from == address(0)) {... */\ntag_31:\n    /* \"contracts/UmerToken_flattened.sol\":18043:18044  0 */\n  0x00\n    /* \"contracts/UmerToken_flattened.sol\":18029:18045  to == address(0) */\n  0xffffffffffffffffffffffffffffffffffffffff\n  and\n    /* \"contracts/UmerToken_flattened.sol\":18029:18031  to */\n  dup3\n    /* \"contracts/UmerToken_flattened.sol\":18029:18045  to == address(0) */\n  0xffffffffffffffffffffffffffffffffffffffff\n  and\n  sub\n    /* \"contracts/UmerToken_flattened.sol\":18025:18450  if (to == address(0)) {... */\n  tag_35\n  jumpi\n    /* \"contracts/UmerToken_flattened.sol\":18208:18213  value */\n  dup1\n    /* \"contracts/UmerToken_flattened.sol\":18192:18204  _totalSupply */\n  0x02\n  0x00\n    /* \"contracts/UmerToken_flattened.sol\":18192:18213  _totalSupply -= value */\n  dup3\n  dup3\n  sload\n  sub\n  swap3\n  pop\n  pop\n  dup2\n  swap1\n  sstore\n  pop\n    /* \"contracts/UmerToken_flattened.sol\":18025:18450  if (to == address(0)) {... */\n  jump(tag_36)\ntag_35:\n    /* \"contracts/UmerToken_flattened.sol\":18420:18425  value */\n  dup1\n    /* \"contracts/UmerToken_flattened.sol\":18403:18412  _balances */\n  0x00\n    /* \"contracts/UmerToken_flattened.sol\":18403:18416  _balances[to] */\n  dup1\n    /* \"contracts/UmerToken_flattened.sol\":18413:18415  to */\n  dup5\n    /* \"contracts/UmerToken_flattened.sol\":18403:18416  _balances[to] */\n  0xffffffffffffffffffffffffffffffffffffffff\n  and\n  0xffffffffffffffffffffffffffffffffffffffff\n  and\n  dup2\n  mstore\n  0x20\n  add\n  swap1\n  dup2\n  mstore\n  0x20\n  add\n  0x00\n  keccak256\n  0x00\n    /* \"contracts/UmerToken_flattened.sol\":18403:18425  _balances[to] += value */\n  dup3\n  dup3\n  sload\n  add\n  swap3\n  pop\n  pop\n  dup2\n  swap1\n  sstore\n  pop\n    /* \"contracts/UmerToken_flattened.sol\":18025:18450  if (to == address(0)) {... */\ntag_36:\n    /* \"contracts/UmerToken_flattened.sol\":18480:18482  to */\n  dup2\n    /* \"contracts/UmerToken_flattened.sol\":18465:18490  Transfer(from, to, value) */\n  0xffffffffffffffffffffffffffffffffffffffff\n  and\n    /* \"contracts/UmerToken_flattened.sol\":18474:18478  from */\n  dup4\n    /* \"contracts/UmerToken_flattened.sol\":18465:18490  Transfer(from, to, value) */\n  0xffffffffffffffffffffffffffffffffffffffff\n  and\n  0xddf252ad1be2c89b69c2b068fc378daa952ba7f163c4a11628f55a4df523b3ef\n    /* \"contracts/UmerToken_flattened.sol\":18484:18489  value */\n  dup4\n    /* \"contracts/UmerToken_flattened.sol\":18465:18490  Transfer(from, to, value) */\n  mload(0x40)\n  tag_37\n  swap2\n  swap1\n  tag_38\n  jump\t// in\ntag_37:\n  mload(0x40)\n  dup1\n  swap2\n  sub\n  swap1\n  log3\n    /* \"contracts/UmerToken_flattened.sol\":17390:18497  function _update(address from, address to, uint256 value) internal virtual {... */\n  pop\n  pop\n  pop\n  jump\t// out\n    /* \"#utility.yul\":88:205   */\ntag_40:\n    /* \"#utility.yul\":197:198   */\n  0x00\n    /* \"#utility.yul\":194:195   */\n  dup1\n    /* \"#utility.yul\":187:199   */\n  revert\n    /* \"#utility.yul\":334:460   */\ntag_42:\n    /* \"#utility.yul\":371:378   */\n  0x00\n    /* \"#utility.yul\":411:453   */\n  0xffffffffffffffffffffffffffffffffffffffff\n    /* \"#utility.yul\":404:409   */\n  dup3\n    /* \"#utility.yul\":400:454   */\n  and\n    /* \"#utility.yul\":389:454   */\n  swap1\n  pop\n    /* \"#utility.yul\":334:460   */\n  swap2\n  swap1\n  pop\n  jump\t// out\n    /* \"#utility.yul\":466:562   */\ntag_43:\n    /* \"#utility.yul\":503:510   */\n  0x00\n    /* \"#utility.yul\":532:556   */\n  tag_79\n    /* \"#utility.yul\":550:555   */\n  dup3\n    /* \"#utility.yul\":532:556   */\n  tag_42\n  jump\t// in\ntag_79:\n    /* \"#utility.yul\":521:556   */\n  swap1\n  pop\n    /* \"#utility.yul\":466:562   */\n  swap2\n  swap1\n  pop\n  jump\t// out\n    /* \"#utility.yul\":568:690   */\ntag_44:\n    /* \"#utility.yul\":641:665   */\n  tag_81\n    /* \"#utility.yul\":659:664   */\n  dup2\n    /* \"#utility.yul\":641:665   */\n  tag_43\n  jump\t// in\ntag_81:\n    /* \"#utility.yul\":634:639   */\n  dup2\n    /* \"#utility.yul\":631:666   */\n  eq\n    /* \"#utility.yul\":621:684   */\n  tag_82\n  jumpi\n    /* \"#utility.yul\":680:681   */\n  0x00\n    /* \"#utility.yul\":677:678   */\n  dup1\n    /* \"#utility.yul\":670:682   */\n  revert\n    /* \"#utility.yul\":621:684   */\ntag_82:\n    /* \"#utility.yul\":568:690   */\n  pop\n  jump\t// out\n    /* \"#utility.yul\":696:839   */\ntag_45:\n    /* \"#utility.yul\":753:758   */\n  0x00\n    /* \"#utility.yul\":784:790   */\n  dup2\n    /* \"#utility.yul\":778:791   */\n  mload\n    /* \"#utility.yul\":769:791   */\n  swap1\n  pop\n    /* \"#utility.yul\":800:833   */\n  tag_84\n    /* \"#utility.yul\":827:832   */\n  dup2\n    /* \"#utility.yul\":800:833   */\n  tag_44\n  jump\t// in\ntag_84:\n    /* \"#utility.yul\":696:839   */\n  swap3\n  swap2\n  pop\n  pop\n  jump\t// out\n    /* \"#utility.yul\":845:1196   */\ntag_3:\n    /* \"#utility.yul\":915:921   */\n  0x00\n    /* \"#utility.yul\":964:966   */\n  0x20\n    /* \"#utility.yul\":952:961   */\n  dup3\n    /* \"#utility.yul\":943:950   */\n  dup5\n    /* \"#utility.yul\":939:962   */\n  sub\n    /* \"#utility.yul\":935:967   */\n  slt\n    /* \"#utility.yul\":932:1051   */\n  iszero\n  tag_86\n  jumpi\n    /* \"#utility.yul\":970:1049   */\n  tag_87\n  tag_40\n  jump\t// in\ntag_87:\n    /* \"#utility.yul\":932:1051   */\ntag_86:\n    /* \"#utility.yul\":1090:1091   */\n  0x00\n    /* \"#utility.yul\":1115:1179   */\n  tag_88\n    /* \"#utility.yul\":1171:1178   */\n  dup5\n    /* \"#utility.yul\":1162:1168   */\n  dup3\n    /* \"#utility.yul\":1151:1160   */\n  dup6\n    /* \"#utility.yul\":1147:1169   */\n  add\n    /* \"#utility.yul\":1115:1179   */\n  tag_45\n  jump\t// in\ntag_88:\n    /* \"#utility.yul\":1105:1179   */\n  swap2\n  pop\n    /* \"#utility.yul\":1061:1189   */\n  pop\n    /* \"#utility.yul\":845:1196   */\n  swap3\n  swap2\n  pop\n  pop\n  jump\t// out\n    /* \"#utility.yul\":1202:1301   */\ntag_46:\n    /* \"#utility.yul\":1254:1260   */\n  0x00\n    /* \"#utility.yul\":1288:1293   */\n  dup2\n    /* \"#utility.yul\":1282:1294   */\n  mload\n    /* \"#utility.yul\":1272:1294   */\n  swap1\n  pop\n    /* \"#utility.yul\":1202:1301   */\n  swap2\n  swap1\n  pop\n  jump\t// out\n    /* \"#utility.yul\":1307:1487   */\ntag_47:\n    /* \"#utility.yul\":1355:1432   */\n  0x4e487b7100000000000000000000000000000000000000000000000000000000\n    /* \"#utility.yul\":1352:1353   */\n  0x00\n    /* \"#utility.yul\":1345:1433   */\n  mstore\n    /* \"#utility.yul\":1452:1456   */\n  0x41\n    /* \"#utility.yul\":1449:1450   */\n  0x04\n    /* \"#utility.yul\":1442:1457   */\n  mstore\n    /* \"#utility.yul\":1476:1480   */\n  0x24\n    /* \"#utility.yul\":1473:1474   */\n  0x00\n    /* \"#utility.yul\":1466:1481   */\n  revert\n    /* \"#utility.yul\":1493:1673   */\ntag_48:\n    /* \"#utility.yul\":1541:1618   */\n  0x4e487b7100000000000000000000000000000000000000000000000000000000\n    /* \"#utility.yul\":1538:1539   */\n  0x00\n    /* \"#utility.yul\":1531:1619   */\n  mstore\n    /* \"#utility.yul\":1638:1642   */\n  0x22\n    /* \"#utility.yul\":1635:1636   */\n  0x04\n    /* \"#utility.yul\":1628:1643   */\n  mstore\n    /* \"#utility.yul\":1662:1666   */\n  0x24\n    /* \"#utility.yul\":1659:1660   */\n  0x00\n    /* \"#utility.yul\":1652:1667   */\n  revert\n    /* \"#utility.yul\":1679:1999   */\ntag_49:\n    /* \"#utility.yul\":1723:1729   */\n  0x00\n    /* \"#utility.yul\":1760:1761   */\n  0x02\n    /* \"#utility.yul\":1754:1758   */\n  dup3\n    /* \"#utility.yul\":1750:1762   */\n  div\n    /* \"#utility.yul\":1740:1762   */\n  swap1\n  pop\n    /* \"#utility.yul\":1807:1808   */\n  0x01\n    /* \"#utility.yul\":1801:1805   */\n  dup3\n    /* \"#utility.yul\":1797:1809   */\n  and\n    /* \"#utility.yul\":1828:1846   */\n  dup1\n    /* \"#utility.yul\":1818:1899   */\n  tag_93\n  jumpi\n    /* \"#utility.yul\":1884:1888   */\n  0x7f\n    /* \"#utility.yul\":1876:1882   */\n  dup3\n    /* \"#utility.yul\":1872:1889   */\n  and\n    /* \"#utility.yul\":1862:1889   */\n  swap2\n  pop\n    /* \"#utility.yul\":1818:1899   */\ntag_93:\n    /* \"#utility.yul\":1946:1948   */\n  0x20\n    /* \"#utility.yul\":1938:1944   */\n  dup3\n    /* \"#utility.yul\":1935:1949   */\n  lt\n    /* \"#utility.yul\":1915:1933   */\n  dup2\n    /* \"#utility.yul\":1912:1950   */\n  sub\n    /* \"#utility.yul\":1909:1993   */\n  tag_94\n  jumpi\n    /* \"#utility.yul\":1965:1983   */\n  tag_95\n  tag_48\n  jump\t// in\ntag_95:\n    /* \"#utility.yul\":1909:1993   */\ntag_94:\n    /* \"#utility.yul\":1730:1999   */\n  pop\n    /* \"#utility.yul\":1679:1999   */\n  swap2\n  swap1\n  pop\n  jump\t// out\n    /* \"#utility.yul\":2005:2146   */\ntag_50:\n    /* \"#utility.yul\":2054:2058   */\n  0x00\n    /* \"#utility.yul\":2077:2080   */\n  dup2\n    /* \"#utility.yul\":2069:2080   */\n  swap1\n  pop\n    /* \"#utility.yul\":2100:2103   */\n  dup2\n    /* \"#utility.yul\":2097:2098   */\n  0x00\n    /* \"#utility.yul\":2090:2104   */\n  mstore\n    /* \"#utility.yul\":2134:2138   */\n  0x20\n    /* \"#utility.yul\":2131:2132   */\n  0x00\n    /* \"#utility.yul\":2121:2139   */\n  keccak256\n    /* \"#utility.yul\":2113:2139   */\n  swap1\n  pop\n    /* \"#utility.yul\":2005:2146   */\n  swap2\n  swap1\n  pop\n  jump\t// out\n    /* \"#utility.yul\":2152:2245   */\ntag_51:\n    /* \"#utility.yul\":2189:2195   */\n  0x00\n    /* \"#utility.yul\":2236:2238   */\n  0x20\n    /* \"#utility.yul\":2231:2233   */\n  0x1f\n    /* \"#utility.yul\":2224:2229   */\n  dup4\n    /* \"#utility.yul\":2220:2234   */\n  add\n    /* \"#utility.yul\":2216:2239   */\n  div\n    /* \"#utility.yul\":2206:2239   */\n  swap1\n  pop\n    /* \"#utility.yul\":2152:2245   */\n  swap2\n  swap1\n  pop\n  jump\t// out\n    /* \"#utility.yul\":2251:2358   */\ntag_52:\n    /* \"#utility.yul\":2295:2303   */\n  0x00\n    /* \"#utility.yul\":2345:2350   */\n  dup3\n    /* \"#utility.yul\":2339:2343   */\n  dup3\n    /* \"#utility.yul\":2335:2351   */\n  shl\n    /* \"#utility.yul\":2314:2351   */\n  swap1\n  pop\n    /* \"#utility.yul\":2251:2358   */\n  swap3\n  swap2\n  pop\n  pop\n  jump\t// out\n    /* \"#utility.yul\":2364:2757   */\ntag_53:\n    /* \"#utility.yul\":2433:2439   */\n  0x00\n    /* \"#utility.yul\":2483:2484   */\n  0x08\n    /* \"#utility.yul\":2471:2481   */\n  dup4\n    /* \"#utility.yul\":2467:2485   */\n  mul\n    /* \"#utility.yul\":2506:2603   */\n  tag_100\n    /* \"#utility.yul\":2536:2602   */\n  0xffffffffffffffffffffffffffffffffffffffffffffffffffffffffffffffff\n    /* \"#utility.yul\":2525:2534   */\n  dup3\n    /* \"#utility.yul\":2506:2603   */\n  tag_52\n  jump\t// in\ntag_100:\n    /* \"#utility.yul\":2624:2663   */\n  tag_101\n    /* \"#utility.yul\":2654:2662   */\n  dup7\n    /* \"#utility.yul\":2643:2652   */\n  dup4\n    /* \"#utility.yul\":2624:2663   */\n  tag_52\n  jump\t// in\ntag_101:\n    /* \"#utility.yul\":2612:2663   */\n  swap6\n  pop\n    /* \"#utility.yul\":2696:2700   */\n  dup1\n    /* \"#utility.yul\":2692:2701   */\n  not\n    /* \"#utility.yul\":2685:2690   */\n  dup5\n    /* \"#utility.yul\":2681:2702   */\n  and\n    /* \"#utility.yul\":2672:2702   */\n  swap4\n  pop\n    /* \"#utility.yul\":2745:2749   */\n  dup1\n    /* \"#utility.yul\":2735:2743   */\n  dup7\n    /* \"#utility.yul\":2731:2750   */\n  and\n    /* \"#utility.yul\":2724:2729   */\n  dup5\n    /* \"#utility.yul\":2721:2751   */\n  or\n    /* \"#utility.yul\":2711:2751   */\n  swap3\n  pop\n    /* \"#utility.yul\":2440:2757   */\n  pop\n  pop\n    /* \"#utility.yul\":2364:2757   */\n  swap4\n  swap3\n  pop\n  pop\n  pop\n  jump\t// out\n    /* \"#utility.yul\":2763:2840   */\ntag_54:\n    /* \"#utility.yul\":2800:2807   */\n  0x00\n    /* \"#utility.yul\":2829:2834   */\n  dup2\n    /* \"#utility.yul\":2818:2834   */\n  swap1\n  pop\n    /* \"#utility.yul\":2763:2840   */\n  swap2\n  swap1\n  pop\n  jump\t// out\n    /* \"#utility.yul\":2846:2906   */\ntag_55:\n    /* \"#utility.yul\":2874:2877   */\n  0x00\n    /* \"#utility.yul\":2895:2900   */\n  dup2\n    /* \"#utility.yul\":2888:2900   */\n  swap1\n  pop\n    /* \"#utility.yul\":2846:2906   */\n  swap2\n  swap1\n  pop\n  jump\t// out\n    /* \"#utility.yul\":2912:3054   */\ntag_56:\n    /* \"#utility.yul\":2962:2971   */\n  0x00\n    /* \"#utility.yul\":2995:3048   */\n  tag_105\n    /* \"#utility.yul\":3013:3047   */\n  tag_106\n    /* \"#utility.yul\":3022:3046   */\n  tag_107\n    /* \"#utility.yul\":3040:3045   */\n  dup5\n    /* \"#utility.yul\":3022:3046   */\n  tag_54\n  jump\t// in\ntag_107:\n    /* \"#utility.yul\":3013:3047   */\n  tag_55\n  jump\t// in\ntag_106:\n    /* \"#utility.yul\":2995:3048   */\n  tag_54\n  jump\t// in\ntag_105:\n    /* \"#utility.yul\":2982:3048   */\n  swap1\n  pop\n    /* \"#utility.yul\":2912:3054   */\n  swap2\n  swap1\n  pop\n  jump\t// out\n    /* \"#utility.yul\":3060:3135   */\ntag_57:\n    /* \"#utility.yul\":3103:3106   */\n  0x00\n    /* \"#utility.yul\":3124:3129   */\n  dup2\n    /* \"#utility.yul\":3117:3129   */\n  swap1\n  pop\n    /* \"#utility.yul\":3060:3135   */\n  swap2\n  swap1\n  pop\n  jump\t// out\n    /* \"#utility.yul\":3141:3410   */\ntag_58:\n    /* \"#utility.yul\":3251:3290   */\n  tag_110\n    /* \"#utility.yul\":3282:3289   */\n  dup4\n    /* \"#utility.yul\":3251:3290   */\n  tag_56\n  jump\t// in\ntag_110:\n    /* \"#utility.yul\":3312:3403   */\n  tag_111\n    /* \"#utility.yul\":3361:3402   */\n  tag_112\n    /* \"#utility.yul\":3385:3401   */\n  dup3\n    /* \"#utility.yul\":3361:3402   */\n  tag_57\n  jump\t// in\ntag_112:\n    /* \"#utility.yul\":3353:3359   */\n  dup5\n    /* \"#utility.yul\":3346:3350   */\n  dup5\n    /* \"#utility.yul\":3340:3351   */\n  sload\n    /* \"#utility.yul\":3312:3403   */\n  tag_53\n  jump\t// in\ntag_111:\n    /* \"#utility.yul\":3306:3310   */\n  dup3\n    /* \"#utility.yul\":3299:3404   */\n  sstore\n    /* \"#utility.yul\":3217:3410   */\n  pop\n    /* \"#utility.yul\":3141:3410   */\n  pop\n  pop\n  pop\n  jump\t// out\n    /* \"#utility.yul\":3416:3489   */\ntag_59:\n    /* \"#utility.yul\":3461:3464   */\n  0x00\n    /* \"#utility.yul\":3416:3489   */\n  swap1\n  jump\t// out\n    /* \"#utility.yul\":3495:3684   */\ntag_60:\n    /* \"#utility.yul\":3572:3604   */\n  tag_115\n  tag_59\n  jump\t// in\ntag_115:\n    /* \"#utility.yul\":3613:3678   */\n  tag_116\n    /* \"#utility.yul\":3671:3677   */\n  dup2\n    /* \"#utility.yul\":3663:3669   */\n  dup5\n    /* \"#utility.yul\":3657:3661   */\n  dup5\n    /* \"#utility.yul\":3613:3678   */\n  tag_58\n  jump\t// in\ntag_116:\n    /* \"#utility.yul\":3548:3684   */\n  pop\n    /* \"#utility.yul\":3495:3684   */\n  pop\n  pop\n  jump\t// out\n    /* \"#utility.yul\":3690:3876   */\ntag_61:\n    /* \"#utility.yul\":3750:3870   */\ntag_118:\n    /* \"#utility.yul\":3767:3770   */\n  dup2\n    /* \"#utility.yul\":3760:3765   */\n  dup2\n    /* \"#utility.yul\":3757:3771   */\n  lt\n    /* \"#utility.yul\":3750:3870   */\n  iszero\n  tag_120\n  jumpi\n    /* \"#utility.yul\":3821:3860   */\n  tag_121\n    /* \"#utility.yul\":3858:3859   */\n  0x00\n    /* \"#utility.yul\":3851:3856   */\n  dup3\n    /* \"#utility.yul\":3821:3860   */\n  tag_60\n  jump\t// in\ntag_121:\n    /* \"#utility.yul\":3794:3795   */\n  0x01\n    /* \"#utility.yul\":3787:3792   */\n  dup2\n    /* \"#utility.yul\":3783:3796   */\n  add\n    /* \"#utility.yul\":3774:3796   */\n  swap1\n  pop\n    /* \"#utility.yul\":3750:3870   */\n  jump(tag_118)\ntag_120:\n    /* \"#utility.yul\":3690:3876   */\n  pop\n  pop\n  jump\t// out\n    /* \"#utility.yul\":3882:4425   */\ntag_62:\n    /* \"#utility.yul\":3983:3985   */\n  0x1f\n    /* \"#utility.yul\":3978:3981   */\n  dup3\n    /* \"#utility.yul\":3975:3986   */\n  gt\n    /* \"#utility.yul\":3972:4418   */\n  iszero\n  tag_123\n  jumpi\n    /* \"#utility.yul\":4017:4055   */\n  tag_124\n    /* \"#utility.yul\":4049:4054   */\n  dup2\n    /* \"#utility.yul\":4017:4055   */\n  tag_50\n  jump\t// in\ntag_124:\n    /* \"#utility.yul\":4101:4130   */\n  tag_125\n    /* \"#utility.yul\":4119:4129   */\n  dup5\n    /* \"#utility.yul\":4101:4130   */\n  tag_51\n  jump\t// in\ntag_125:\n    /* \"#utility.yul\":4091:4099   */\n  dup2\n    /* \"#utility.yul\":4087:4131   */\n  add\n    /* \"#utility.yul\":4284:4286   */\n  0x20\n    /* \"#utility.yul\":4272:4282   */\n  dup6\n    /* \"#utility.yul\":4269:4287   */\n  lt\n    /* \"#utility.yul\":4266:4315   */\n  iszero\n  tag_126\n  jumpi\n    /* \"#utility.yul\":4305:4313   */\n  dup2\n    /* \"#utility.yul\":4290:4313   */\n  swap1\n  pop\n    /* \"#utility.yul\":4266:4315   */\ntag_126:\n    /* \"#utility.yul\":4328:4408   */\n  tag_127\n    /* \"#utility.yul\":4384:4406   */\n  tag_128\n    /* \"#utility.yul\":4402:4405   */\n  dup6\n    /* \"#utility.yul\":4384:4406   */\n  tag_51\n  jump\t// in\ntag_128:\n    /* \"#utility.yul\":4374:4382   */\n  dup4\n    /* \"#utility.yul\":4370:4407   */\n  add\n    /* \"#utility.yul\":4357:4368   */\n  dup3\n    /* \"#utility.yul\":4328:4408   */\n  tag_61\n  jump\t// in\ntag_127:\n    /* \"#utility.yul\":3987:4418   */\n  pop\n  pop\n    /* \"#utility.yul\":3972:4418   */\ntag_123:\n    /* \"#utility.yul\":3882:4425   */\n  pop\n  pop\n  pop\n  jump\t// out\n    /* \"#utility.yul\":4431:4548   */\ntag_63:\n    /* \"#utility.yul\":4485:4493   */\n  0x00\n    /* \"#utility.yul\":4535:4540   */\n  dup3\n    /* \"#utility.yul\":4529:4533   */\n  dup3\n    /* \"#utility.yul\":4525:4541   */\n  shr\n    /* \"#utility.yul\":4504:4541   */\n  swap1\n  pop\n    /* \"#utility.yul\":4431:4548   */\n  swap3\n  swap2\n  pop\n  pop\n  jump\t// out\n    /* \"#utility.yul\":4554:4723   */\ntag_64:\n    /* \"#utility.yul\":4598:4604   */\n  0x00\n    /* \"#utility.yul\":4631:4682   */\n  tag_131\n    /* \"#utility.yul\":4679:4680   */\n  0x00\n    /* \"#utility.yul\":4675:4681   */\n  not\n    /* \"#utility.yul\":4667:4672   */\n  dup5\n    /* \"#utility.yul\":4664:4665   */\n  0x08\n    /* \"#utility.yul\":4660:4673   */\n  mul\n    /* \"#utility.yul\":4631:4682   */\n  tag_63\n  jump\t// in\ntag_131:\n    /* \"#utility.yul\":4627:4683   */\n  not\n    /* \"#utility.yul\":4712:4716   */\n  dup1\n    /* \"#utility.yul\":4706:4710   */\n  dup4\n    /* \"#utility.yul\":4702:4717   */\n  and\n    /* \"#utility.yul\":4692:4717   */\n  swap2\n  pop\n    /* \"#utility.yul\":4605:4723   */\n  pop\n    /* \"#utility.yul\":4554:4723   */\n  swap3\n  swap2\n  pop\n  pop\n  jump\t// out\n    /* \"#utility.yul\":4728:5023   */\ntag_65:\n    /* \"#utility.yul\":4804:4808   */\n  0x00\n    /* \"#utility.yul\":4950:4979   */\n  tag_133\n    /* \"#utility.yul\":4975:4978   */\n  dup4\n    /* \"#utility.yul\":4969:4973   */\n  dup4\n    /* \"#utility.yul\":4950:4979   */\n  tag_64\n  jump\t// in\ntag_133:\n    /* \"#utility.yul\":4942:4979   */\n  swap2\n  pop\n    /* \"#utility.yul\":5012:5015   */\n  dup3\n    /* \"#utility.yul\":5009:5010   */\n  0x02\n    /* \"#utility.yul\":5005:5016   */\n  mul\n    /* \"#utility.yul\":4999:5003   */\n  dup3\n    /* \"#utility.yul\":4996:5017   */\n  or\n    /* \"#utility.yul\":4988:5017   */\n  swap1\n  pop\n    /* \"#utility.yul\":4728:5023   */\n  swap3\n  swap2\n  pop\n  pop\n  jump\t// out\n    /* \"#utility.yul\":5028:6423   */\ntag_8:\n    /* \"#utility.yul\":5145:5182   */\n  tag_135\n    /* \"#utility.yul\":5178:5181   */\n  dup3\n    /* \"#utility.yul\":5145:5182   */\n  tag_46\n  jump\t// in\ntag_135:\n    /* \"#utility.yul\":5247:5265   */\n  0xffffffffffffffff\n    /* \"#utility.yul\":5239:5245   */\n  dup2\n    /* \"#utility.yul\":5236:5266   */\n  gt\n    /* \"#utility.yul\":5233:5289   */\n  iszero\n  tag_136\n  jumpi\n    /* \"#utility.yul\":5269:5287   */\n  tag_137\n  tag_47\n  jump\t// in\ntag_137:\n    /* \"#utility.yul\":5233:5289   */\ntag_136:\n    /* \"#utility.yul\":5313:5351   */\n  tag_138\n    /* \"#utility.yul\":5345:5349   */\n  dup3\n    /* \"#utility.yul\":5339:5350   */\n  sload\n    /* \"#utility.yul\":5313:5351   */\n  tag_49\n  jump\t// in\ntag_138:\n    /* \"#utility.yul\":5398:5465   */\n  tag_139\n    /* \"#utility.yul\":5458:5464   */\n  dup3\n    /* \"#utility.yul\":5450:5456   */\n  dup3\n    /* \"#utility.yul\":5444:5448   */\n  dup6\n    /* \"#utility.yul\":5398:5465   */\n  tag_62\n  jump\t// in\ntag_139:\n    /* \"#utility.yul\":5492:5493   */\n  0x00\n    /* \"#utility.yul\":5516:5520   */\n  0x20\n    /* \"#utility.yul\":5503:5520   */\n  swap1\n  pop\n    /* \"#utility.yul\":5548:5550   */\n  0x1f\n    /* \"#utility.yul\":5540:5546   */\n  dup4\n    /* \"#utility.yul\":5537:5551   */\n  gt\n    /* \"#utility.yul\":5565:5566   */\n  0x01\n    /* \"#utility.yul\":5560:6178   */\n  dup2\n  eq\n  tag_141\n  jumpi\n    /* \"#utility.yul\":6222:6223   */\n  0x00\n    /* \"#utility.yul\":6239:6245   */\n  dup5\n    /* \"#utility.yul\":6236:6313   */\n  iszero\n  tag_142\n  jumpi\n    /* \"#utility.yul\":6288:6297   */\n  dup3\n    /* \"#utility.yul\":6283:6286   */\n  dup8\n    /* \"#utility.yul\":6279:6298   */\n  add\n    /* \"#utility.yul\":6273:6299   */\n  mload\n    /* \"#utility.yul\":6264:6299   */\n  swap1\n  pop\n    /* \"#utility.yul\":6236:6313   */\ntag_142:\n    /* \"#utility.yul\":6339:6406   */\n  tag_143\n    /* \"#utility.yul\":6399:6405   */\n  dup6\n    /* \"#utility.yul\":6392:6397   */\n  dup3\n    /* \"#utility.yul\":6339:6406   */\n  tag_65\n  jump\t// in\ntag_143:\n    /* \"#utility.yul\":6333:6337   */\n  dup7\n    /* \"#utility.yul\":6326:6407   */\n  sstore\n    /* \"#utility.yul\":6195:6417   */\n  pop\n    /* \"#utility.yul\":5530:6417   */\n  jump(tag_140)\n    /* \"#utility.yul\":5560:6178   */\ntag_141:\n    /* \"#utility.yul\":5612:5616   */\n  0x1f\n    /* \"#utility.yul\":5608:5617   */\n  not\n    /* \"#utility.yul\":5600:5606   */\n  dup5\n    /* \"#utility.yul\":5596:5618   */\n  and\n    /* \"#utility.yul\":5646:5683   */\n  tag_144\n    /* \"#utility.yul\":5678:5682   */\n  dup7\n    /* \"#utility.yul\":5646:5683   */\n  tag_50\n  jump\t// in\ntag_144:\n    /* \"#utility.yul\":5705:5706   */\n  0x00\n    /* \"#utility.yul\":5719:5927   */\ntag_145:\n    /* \"#utility.yul\":5733:5740   */\n  dup3\n    /* \"#utility.yul\":5730:5731   */\n  dup2\n    /* \"#utility.yul\":5727:5741   */\n  lt\n    /* \"#utility.yul\":5719:5927   */\n  iszero\n  tag_147\n  jumpi\n    /* \"#utility.yul\":5812:5821   */\n  dup5\n    /* \"#utility.yul\":5807:5810   */\n  dup10\n    /* \"#utility.yul\":5803:5822   */\n  add\n    /* \"#utility.yul\":5797:5823   */\n  mload\n    /* \"#utility.yul\":5789:5795   */\n  dup3\n    /* \"#utility.yul\":5782:5824   */\n  sstore\n    /* \"#utility.yul\":5863:5864   */\n  0x01\n    /* \"#utility.yul\":5855:5861   */\n  dup3\n    /* \"#utility.yul\":5851:5865   */\n  add\n    /* \"#utility.yul\":5841:5865   */\n  swap2\n  pop\n    /* \"#utility.yul\":5910:5912   */\n  0x20\n    /* \"#utility.yul\":5899:5908   */\n  dup6\n    /* \"#utility.yul\":5895:5913   */\n  add\n    /* \"#utility.yul\":5882:5913   */\n  swap5\n  pop\n    /* \"#utility.yul\":5756:5760   */\n  0x20\n    /* \"#utility.yul\":5753:5754   */\n  dup2\n    /* \"#utility.yul\":5749:5761   */\n  add\n    /* \"#utility.yul\":5744:5761   */\n  swap1\n  pop\n    /* \"#utility.yul\":5719:5927   */\n  jump(tag_145)\ntag_147:\n    /* \"#utility.yul\":5955:5961   */\n  dup7\n    /* \"#utility.yul\":5946:5953   */\n  dup4\n    /* \"#utility.yul\":5943:5962   */\n  lt\n    /* \"#utility.yul\":5940:6119   */\n  iszero\n  tag_148\n  jumpi\n    /* \"#utility.yul\":6013:6022   */\n  dup5\n    /* \"#utility.yul\":6008:6011   */\n  dup10\n    /* \"#utility.yul\":6004:6023   */\n  add\n    /* \"#utility.yul\":5998:6024   */\n  mload\n    /* \"#utility.yul\":6056:6104   */\n  tag_149\n    /* \"#utility.yul\":6098:6102   */\n  0x1f\n    /* \"#utility.yul\":6090:6096   */\n  dup10\n    /* \"#utility.yul\":6086:6103   */\n  and\n    /* \"#utility.yul\":6075:6084   */\n  dup3\n    /* \"#utility.yul\":6056:6104   */\n  tag_64\n  jump\t// in\ntag_149:\n    /* \"#utility.yul\":6048:6054   */\n  dup4\n    /* \"#utility.yul\":6041:6105   */\n  sstore\n    /* \"#utility.yul\":5963:6119   */\n  pop\n    /* \"#utility.yul\":5940:6119   */\ntag_148:\n    /* \"#utility.yul\":6165:6166   */\n  0x01\n    /* \"#utility.yul\":6161:6162   */\n  0x02\n    /* \"#utility.yul\":6153:6159   */\n  dup9\n    /* \"#utility.yul\":6149:6163   */\n  mul\n    /* \"#utility.yul\":6145:6167   */\n  add\n    /* \"#utility.yul\":6139:6143   */\n  dup9\n    /* \"#utility.yul\":6132:6168   */\n  sstore\n    /* \"#utility.yul\":5567:6178   */\n  pop\n  pop\n  pop\n    /* \"#utility.yul\":5530:6417   */\ntag_140:\n  pop\n    /* \"#utility.yul\":5120:6423   */\n  pop\n  pop\n  pop\n    /* \"#utility.yul\":5028:6423   */\n  pop\n  pop\n  jump\t// out\n    /* \"#utility.yul\":6429:6609   */\ntag_66:\n    /* \"#utility.yul\":6477:6554   */\n  0x4e487b7100000000000000000000000000000000000000000000000000000000\n    /* \"#utility.yul\":6474:6475   */\n  0x00\n    /* \"#utility.yul\":6467:6555   */\n  mstore\n    /* \"#utility.yul\":6574:6578   */\n  0x11\n    /* \"#utility.yul\":6571:6572   */\n  0x04\n    /* \"#utility.yul\":6564:6579   */\n  mstore\n    /* \"#utility.yul\":6598:6602   */\n  0x24\n    /* \"#utility.yul\":6595:6596   */\n  0x00\n    /* \"#utility.yul\":6588:6603   */\n  revert\n    /* \"#utility.yul\":6615:6717   */\ntag_67:\n    /* \"#utility.yul\":6657:6665   */\n  0x00\n    /* \"#utility.yul\":6704:6709   */\n  dup2\n    /* \"#utility.yul\":6701:6702   */\n  0x01\n    /* \"#utility.yul\":6697:6710   */\n  shr\n    /* \"#utility.yul\":6676:6710   */\n  swap1\n  pop\n    /* \"#utility.yul\":6615:6717   */\n  swap2\n  swap1\n  pop\n  jump\t// out\n    /* \"#utility.yul\":6723:7571   */\ntag_68:\n    /* \"#utility.yul\":6784:6789   */\n  0x00\n    /* \"#utility.yul\":6791:6795   */\n  dup1\n    /* \"#utility.yul\":6815:6821   */\n  dup3\n    /* \"#utility.yul\":6806:6821   */\n  swap2\n  pop\n    /* \"#utility.yul\":6839:6844   */\n  dup4\n    /* \"#utility.yul\":6830:6844   */\n  swap1\n  pop\n    /* \"#utility.yul\":6853:7565   */\ntag_153:\n    /* \"#utility.yul\":6874:6875   */\n  0x01\n    /* \"#utility.yul\":6864:6872   */\n  dup6\n    /* \"#utility.yul\":6861:6876   */\n  gt\n    /* \"#utility.yul\":6853:7565   */\n  iszero\n  tag_155\n  jumpi\n    /* \"#utility.yul\":6969:6973   */\n  dup1\n    /* \"#utility.yul\":6964:6967   */\n  dup7\n    /* \"#utility.yul\":6960:6974   */\n  div\n    /* \"#utility.yul\":6954:6958   */\n  dup2\n    /* \"#utility.yul\":6951:6975   */\n  gt\n    /* \"#utility.yul\":6948:6998   */\n  iszero\n  tag_156\n  jumpi\n    /* \"#utility.yul\":6978:6996   */\n  tag_157\n  tag_66\n  jump\t// in\ntag_157:\n    /* \"#utility.yul\":6948:6998   */\ntag_156:\n    /* \"#utility.yul\":7028:7029   */\n  0x01\n    /* \"#utility.yul\":7018:7026   */\n  dup6\n    /* \"#utility.yul\":7014:7030   */\n  and\n    /* \"#utility.yul\":7011:7462   */\n  iszero\n  tag_158\n  jumpi\n    /* \"#utility.yul\":7443:7447   */\n  dup1\n    /* \"#utility.yul\":7436:7441   */\n  dup3\n    /* \"#utility.yul\":7432:7448   */\n  mul\n    /* \"#utility.yul\":7423:7448   */\n  swap2\n  pop\n    /* \"#utility.yul\":7011:7462   */\ntag_158:\n    /* \"#utility.yul\":7493:7497   */\n  dup1\n    /* \"#utility.yul\":7487:7491   */\n  dup2\n    /* \"#utility.yul\":7483:7498   */\n  mul\n    /* \"#utility.yul\":7475:7498   */\n  swap1\n  pop\n    /* \"#utility.yul\":7523:7555   */\n  tag_159\n    /* \"#utility.yul\":7546:7554   */\n  dup6\n    /* \"#utility.yul\":7523:7555   */\n  tag_67\n  jump\t// in\ntag_159:\n    /* \"#utility.yul\":7511:7555   */\n  swap5\n  pop\n    /* \"#utility.yul\":6853:7565   */\n  jump(tag_153)\ntag_155:\n    /* \"#utility.yul\":6723:7571   */\n  swap5\n  pop\n  swap5\n  swap3\n  pop\n  pop\n  pop\n  jump\t// out\n    /* \"#utility.yul\":7577:8650   */\ntag_69:\n    /* \"#utility.yul\":7631:7636   */\n  0x00\n    /* \"#utility.yul\":7822:7830   */\n  dup3\n    /* \"#utility.yul\":7812:7852   */\n  tag_161\n  jumpi\n    /* \"#utility.yul\":7843:7844   */\n  0x01\n    /* \"#utility.yul\":7834:7844   */\n  swap1\n  pop\n    /* \"#utility.yul\":7845:7850   */\n  jump(tag_160)\n    /* \"#utility.yul\":7812:7852   */\ntag_161:\n    /* \"#utility.yul\":7871:7875   */\n  dup2\n    /* \"#utility.yul\":7861:7897   */\n  tag_162\n  jumpi\n    /* \"#utility.yul\":7888:7889   */\n  0x00\n    /* \"#utility.yul\":7879:7889   */\n  swap1\n  pop\n    /* \"#utility.yul\":7890:7895   */\n  jump(tag_160)\n    /* \"#utility.yul\":7861:7897   */\ntag_162:\n    /* \"#utility.yul\":7957:7961   */\n  dup2\n    /* \"#utility.yul\":8005:8006   */\n  0x01\n    /* \"#utility.yul\":8000:8027   */\n  dup2\n  eq\n  tag_164\n  jumpi\n    /* \"#utility.yul\":8041:8042   */\n  0x02\n    /* \"#utility.yul\":8036:8227   */\n  dup2\n  eq\n  tag_165\n  jumpi\n    /* \"#utility.yul\":7950:8227   */\n  jump(tag_163)\n    /* \"#utility.yul\":8000:8027   */\ntag_164:\n    /* \"#utility.yul\":8018:8019   */\n  0x01\n    /* \"#utility.yul\":8009:8019   */\n  swap2\n  pop\n    /* \"#utility.yul\":8020:8025   */\n  pop\n  jump(tag_160)\n    /* \"#utility.yul\":8036:8227   */\ntag_165:\n    /* \"#utility.yul\":8081:8084   */\n  0xff\n    /* \"#utility.yul\":8071:8079   */\n  dup5\n    /* \"#utility.yul\":8068:8085   */\n  gt\n    /* \"#utility.yul\":8065:8108   */\n  iszero\n  tag_166\n  jumpi\n    /* \"#utility.yul\":8088:8106   */\n  tag_167\n  tag_66\n  jump\t// in\ntag_167:\n    /* \"#utility.yul\":8065:8108   */\ntag_166:\n    /* \"#utility.yul\":8137:8145   */\n  dup4\n    /* \"#utility.yul\":8134:8135   */\n  0x02\n    /* \"#utility.yul\":8130:8146   */\n  exp\n    /* \"#utility.yul\":8121:8146   */\n  swap2\n  pop\n    /* \"#utility.yul\":8172:8175   */\n  dup5\n    /* \"#utility.yul\":8165:8170   */\n  dup3\n    /* \"#utility.yul\":8162:8176   */\n  gt\n    /* \"#utility.yul\":8159:8199   */\n  iszero\n  tag_168\n  jumpi\n    /* \"#utility.yul\":8179:8197   */\n  tag_169\n  tag_66\n  jump\t// in\ntag_169:\n    /* \"#utility.yul\":8159:8199   */\ntag_168:\n    /* \"#utility.yul\":8212:8217   */\n  pop\n  jump(tag_160)\n    /* \"#utility.yul\":7950:8227   */\ntag_163:\n  pop\n    /* \"#utility.yul\":8336:8338   */\n  0x20\n    /* \"#utility.yul\":8326:8334   */\n  dup4\n    /* \"#utility.yul\":8323:8339   */\n  lt\n    /* \"#utility.yul\":8317:8320   */\n  0x0133\n    /* \"#utility.yul\":8311:8315   */\n  dup4\n    /* \"#utility.yul\":8308:8321   */\n  lt\n    /* \"#utility.yul\":8304:8340   */\n  and\n    /* \"#utility.yul\":8286:8288   */\n  0x4e\n    /* \"#utility.yul\":8276:8284   */\n  dup5\n    /* \"#utility.yul\":8273:8289   */\n  lt\n    /* \"#utility.yul\":8268:8270   */\n  0x0b\n    /* \"#utility.yul\":8262:8266   */\n  dup5\n    /* \"#utility.yul\":8259:8271   */\n  lt\n    /* \"#utility.yul\":8255:8290   */\n  and\n    /* \"#utility.yul\":8239:8350   */\n  or\n    /* \"#utility.yul\":8236:8482   */\n  iszero\n  tag_170\n  jumpi\n    /* \"#utility.yul\":8392:8400   */\n  dup3\n    /* \"#utility.yul\":8386:8390   */\n  dup3\n    /* \"#utility.yul\":8382:8401   */\n  exp\n    /* \"#utility.yul\":8373:8401   */\n  swap1\n  pop\n    /* \"#utility.yul\":8427:8430   */\n  dup4\n    /* \"#utility.yul\":8420:8425   */\n  dup2\n    /* \"#utility.yul\":8417:8431   */\n  gt\n    /* \"#utility.yul\":8414:8454   */\n  iszero\n  tag_171\n  jumpi\n    /* \"#utility.yul\":8434:8452   */\n  tag_172\n  tag_66\n  jump\t// in\ntag_172:\n    /* \"#utility.yul\":8414:8454   */\ntag_171:\n    /* \"#utility.yul\":8467:8472   */\n  jump(tag_160)\n    /* \"#utility.yul\":8236:8482   */\ntag_170:\n    /* \"#utility.yul\":8507:8549   */\n  tag_173\n    /* \"#utility.yul\":8545:8548   */\n  dup5\n    /* \"#utility.yul\":8535:8543   */\n  dup5\n    /* \"#utility.yul\":8529:8533   */\n  dup5\n    /* \"#utility.yul\":8526:8527   */\n  0x01\n    /* \"#utility.yul\":8507:8549   */\n  tag_68\n  jump\t// in\ntag_173:\n    /* \"#utility.yul\":8492:8549   */\n  swap3\n  pop\n  swap1\n  pop\n    /* \"#utility.yul\":8581:8585   */\n  dup2\n    /* \"#utility.yul\":8576:8579   */\n  dup5\n    /* \"#utility.yul\":8572:8586   */\n  div\n    /* \"#utility.yul\":8565:8570   */\n  dup2\n    /* \"#utility.yul\":8562:8587   */\n  gt\n    /* \"#utility.yul\":8559:8610   */\n  iszero\n  tag_174\n  jumpi\n    /* \"#utility.yul\":8590:8608   */\n  tag_175\n  tag_66\n  jump\t// in\ntag_175:\n    /* \"#utility.yul\":8559:8610   */\ntag_174:\n    /* \"#utility.yul\":8639:8643   */\n  dup2\n    /* \"#utility.yul\":8632:8637   */\n  dup2\n    /* \"#utility.yul\":8628:8644   */\n  mul\n    /* \"#utility.yul\":8619:8644   */\n  swap1\n  pop\n    /* \"#utility.yul\":7577:8650   */\ntag_160:\n  swap4\n  swap3\n  pop\n  pop\n  pop\n  jump\t// out\n    /* \"#utility.yul\":8656:8742   */\ntag_70:\n    /* \"#utility.yul\":8691:8698   */\n  0x00\n    /* \"#utility.yul\":8731:8735   */\n  0xff\n    /* \"#utility.yul\":8724:8729   */\n  dup3\n    /* \"#utility.yul\":8720:8736   */\n  and\n    /* \"#utility.yul\":8709:8736   */\n  swap1\n  pop\n    /* \"#utility.yul\":8656:8742   */\n  swap2\n  swap1\n  pop\n  jump\t// out\n    /* \"#utility.yul\":8748:9029   */\ntag_15:\n    /* \"#utility.yul\":8806:8811   */\n  0x00\n    /* \"#utility.yul\":8830:8853   */\n  tag_178\n    /* \"#utility.yul\":8848:8852   */\n  dup3\n    /* \"#utility.yul\":8830:8853   */\n  tag_54\n  jump\t// in\ntag_178:\n    /* \"#utility.yul\":8822:8853   */\n  swap2\n  pop\n    /* \"#utility.yul\":8874:8899   */\n  tag_179\n    /* \"#utility.yul\":8890:8898   */\n  dup4\n    /* \"#utility.yul\":8874:8899   */\n  tag_70\n  jump\t// in\ntag_179:\n    /* \"#utility.yul\":8862:8899   */\n  swap3\n  pop\n    /* \"#utility.yul\":8918:9022   */\n  tag_180\n    /* \"#utility.yul\":8955:9021   */\n  0xffffffffffffffffffffffffffffffffffffffffffffffffffffffffffffffff\n    /* \"#utility.yul\":8945:8953   */\n  dup5\n    /* \"#utility.yul\":8939:8943   */\n  dup5\n    /* \"#utility.yul\":8918:9022   */\n  tag_69\n  jump\t// in\ntag_180:\n    /* \"#utility.yul\":8909:9022   */\n  swap1\n  pop\n    /* \"#utility.yul\":8748:9029   */\n  swap3\n  swap2\n  pop\n  pop\n  jump\t// out\n    /* \"#utility.yul\":9035:9445   */\ntag_17:\n    /* \"#utility.yul\":9075:9082   */\n  0x00\n    /* \"#utility.yul\":9098:9118   */\n  tag_182\n    /* \"#utility.yul\":9116:9117   */\n  dup3\n    /* \"#utility.yul\":9098:9118   */\n  tag_54\n  jump\t// in\ntag_182:\n    /* \"#utility.yul\":9093:9118   */\n  swap2\n  pop\n    /* \"#utility.yul\":9132:9152   */\n  tag_183\n    /* \"#utility.yul\":9150:9151   */\n  dup4\n    /* \"#utility.yul\":9132:9152   */\n  tag_54\n  jump\t// in\ntag_183:\n    /* \"#utility.yul\":9127:9152   */\n  swap3\n  pop\n    /* \"#utility.yul\":9187:9188   */\n  dup3\n    /* \"#utility.yul\":9184:9185   */\n  dup3\n    /* \"#utility.yul\":9180:9189   */\n  mul\n    /* \"#utility.yul\":9209:9239   */\n  tag_184\n    /* \"#utility.yul\":9227:9238   */\n  dup2\n    /* \"#utility.yul\":9209:9239   */\n  tag_54\n  jump\t// in\ntag_184:\n    /* \"#utility.yul\":9198:9239   */\n  swap2\n  pop\n    /* \"#utility.yul\":9388:9389   */\n  dup3\n    /* \"#utility.yul\":9379:9386   */\n  dup3\n    /* \"#utility.yul\":9375:9390   */\n  div\n    /* \"#utility.yul\":9372:9373   */\n  dup5\n    /* \"#utility.yul\":9369:9391   */\n  eq\n    /* \"#utility.yul\":9349:9350   */\n  dup4\n    /* \"#utility.yul\":9342:9351   */\n  iszero\n    /* \"#utility.yul\":9322:9405   */\n  or\n    /* \"#utility.yul\":9299:9438   */\n  tag_185\n  jumpi\n    /* \"#utility.yul\":9418:9436   */\n  tag_186\n  tag_66\n  jump\t// in\ntag_186:\n    /* \"#utility.yul\":9299:9438   */\ntag_185:\n    /* \"#utility.yul\":9083:9445   */\n  pop\n    /* \"#utility.yul\":9035:9445   */\n  swap3\n  swap2\n  pop\n  pop\n  jump\t// out\n    /* \"#utility.yul\":9451:9569   */\ntag_71:\n    /* \"#utility.yul\":9538:9562   */\n  tag_188\n    /* \"#utility.yul\":9556:9561   */\n  dup2\n    /* \"#utility.yul\":9538:9562   */\n  tag_43\n  jump\t// in\ntag_188:\n    /* \"#utility.yul\":9533:9536   */\n  dup3\n    /* \"#utility.yul\":9526:9563   */\n  mstore\n    /* \"#utility.yul\":9451:9569   */\n  pop\n  pop\n  jump\t// out\n    /* \"#utility.yul\":9575:9797   */\ntag_24:\n    /* \"#utility.yul\":9668:9672   */\n  0x00\n    /* \"#utility.yul\":9706:9708   */\n  0x20\n    /* \"#utility.yul\":9695:9704   */\n  dup3\n    /* \"#utility.yul\":9691:9709   */\n  add\n    /* \"#utility.yul\":9683:9709   */\n  swap1\n  pop\n    /* \"#utility.yul\":9719:9790   */\n  tag_190\n    /* \"#utility.yul\":9787:9788   */\n  0x00\n    /* \"#utility.yul\":9776:9785   */\n  dup4\n    /* \"#utility.yul\":9772:9789   */\n  add\n    /* \"#utility.yul\":9763:9769   */\n  dup5\n    /* \"#utility.yul\":9719:9790   */\n  tag_71\n  jump\t// in\ntag_190:\n    /* \"#utility.yul\":9575:9797   */\n  swap3\n  swap2\n  pop\n  pop\n  jump\t// out\n    /* \"#utility.yul\":9803:9994   */\ntag_30:\n    /* \"#utility.yul\":9843:9846   */\n  0x00\n    /* \"#utility.yul\":9862:9882   */\n  tag_192\n    /* \"#utility.yul\":9880:9881   */\n  dup3\n    /* \"#utility.yul\":9862:9882   */\n  tag_54\n  jump\t// in\ntag_192:\n    /* \"#utility.yul\":9857:9882   */\n  swap2\n  pop\n    /* \"#utility.yul\":9896:9916   */\n  tag_193\n    /* \"#utility.yul\":9914:9915   */\n  dup4\n    /* \"#utility.yul\":9896:9916   */\n  tag_54\n  jump\t// in\ntag_193:\n    /* \"#utility.yul\":9891:9916   */\n  swap3\n  pop\n    /* \"#utility.yul\":9939:9940   */\n  dup3\n    /* \"#utility.yul\":9936:9937   */\n  dup3\n    /* \"#utility.yul\":9932:9941   */\n  add\n    /* \"#utility.yul\":9925:9941   */\n  swap1\n  pop\n    /* \"#utility.yul\":9960:9963   */\n  dup1\n    /* \"#utility.yul\":9957:9958   */\n  dup3\n    /* \"#utility.yul\":9954:9964   */\n  gt\n    /* \"#utility.yul\":9951:9987   */\n  iszero\n  tag_194\n  jumpi\n    /* \"#utility.yul\":9967:9985   */\n  tag_195\n  tag_66\n  jump\t// in\ntag_195:\n    /* \"#utility.yul\":9951:9987   */\ntag_194:\n    /* \"#utility.yul\":9803:9994   */\n  swap3\n  swap2\n  pop\n  pop\n  jump\t// out\n    /* \"#utility.yul\":10000:10118   */\ntag_72:\n    /* \"#utility.yul\":10087:10111   */\n  tag_197\n    /* \"#utility.yul\":10105:10110   */\n  dup2\n    /* \"#utility.yul\":10087:10111   */\n  tag_54\n  jump\t// in\ntag_197:\n    /* \"#utility.yul\":10082:10085   */\n  dup3\n    /* \"#utility.yul\":10075:10112   */\n  mstore\n    /* \"#utility.yul\":10000:10118   */\n  pop\n  pop\n  jump\t// out\n    /* \"#utility.yul\":10124:10566   */\ntag_34:\n    /* \"#utility.yul\":10273:10277   */\n  0x00\n    /* \"#utility.yul\":10311:10313   */\n  0x60\n    /* \"#utility.yul\":10300:10309   */\n  dup3\n    /* \"#utility.yul\":10296:10314   */\n  add\n    /* \"#utility.yul\":10288:10314   */\n  swap1\n  pop\n    /* \"#utility.yul\":10324:10395   */\n  tag_199\n    /* \"#utility.yul\":10392:10393   */\n  0x00\n    /* \"#utility.yul\":10381:10390   */\n  dup4\n    /* \"#utility.yul\":10377:10394   */\n  add\n    /* \"#utility.yul\":10368:10374   */\n  dup7\n    /* \"#utility.yul\":10324:10395   */\n  tag_71\n  jump\t// in\ntag_199:\n    /* \"#utility.yul\":10405:10477   */\n  tag_200\n    /* \"#utility.yul\":10473:10475   */\n  0x20\n    /* \"#utility.yul\":10462:10471   */\n  dup4\n    /* \"#utility.yul\":10458:10476   */\n  add\n    /* \"#utility.yul\":10449:10455   */\n  dup6\n    /* \"#utility.yul\":10405:10477   */\n  tag_72\n  jump\t// in\ntag_200:\n    /* \"#utility.yul\":10487:10559   */\n  tag_201\n    /* \"#utility.yul\":10555:10557   */\n  0x40\n    /* \"#utility.yul\":10544:10553   */\n  dup4\n    /* \"#utility.yul\":10540:10558   */\n  add\n    /* \"#utility.yul\":10531:10537   */\n  dup5\n    /* \"#utility.yul\":10487:10559   */\n  tag_72\n  jump\t// in\ntag_201:\n    /* \"#utility.yul\":10124:10566   */\n  swap5\n  swap4\n  pop\n  pop\n  pop\n  pop\n  jump\t// out\n    /* \"#utility.yul\":10572:10794   */\ntag_38:\n    /* \"#utility.yul\":10665:10669   */\n  0x00\n    /* \"#utility.yul\":10703:10705   */\n  0x20\n    /* \"#utility.yul\":10692:10701   */\n  dup3\n    /* \"#utility.yul\":10688:10706   */\n  add\n    /* \"#utility.yul\":10680:10706   */\n  swap1\n  pop\n    /* \"#utility.yul\":10716:10787   */\n  tag_203\n    /* \"#utility.yul\":10784:10785   */\n  0x00\n    /* \"#utility.yul\":10773:10782   */\n  dup4\n    /* \"#utility.yul\":10769:10786   */\n  add\n    /* \"#utility.yul\":10760:10766   */\n  dup5\n    /* \"#utility.yul\":10716:10787   */\n  tag_72\n  jump\t// in\ntag_203:\n    /* \"#utility.yul\":10572:10794   */\n  swap3\n  swap2\n  pop\n  pop\n  jump\t// out\n    /* \"contracts/UmerToken_flattened.sol\":22388:22540  contract UmerToken is ERC20 {... */\ntag_19:\n  dataSize(sub_0)\n  dup1\n  dataOffset(sub_0)\n  0x00\n  codecopy\n  0x00\n  return\nstop\n\nsub_0: assembly {\n        /* \"contracts/UmerToken_flattened.sol\":22388:22540  contract UmerToken is ERC20 {... */\n      mstore(0x40, 0x80)\n      callvalue\n      dup1\n      iszero\n      tag_1\n      jumpi\n      0x00\n      dup1\n      revert\n    tag_1:\n      pop\n      jumpi(tag_2, lt(calldatasize, 0x04))\n      shr(0xe0, calldataload(0x00))\n      dup1\n      0x6a1db1bf\n      gt\n      tag_14\n      jumpi\n      dup1\n      0x6a1db1bf\n      eq\n      tag_8\n      jumpi\n      dup1\n      0x70a08231\n      eq\n      tag_9\n      jumpi\n      dup1\n      0x95d89b41\n      eq\n      tag_10\n      jumpi\n      dup1\n      0xa9059cbb\n      eq\n      tag_11\n      jumpi\n      dup1\n      0xdd62ed3e\n      eq\n      tag_12\n      jumpi\n      dup1\n      0xddca3f43\n      eq\n      tag_13\n      jumpi\n      jump(tag_2)\n    tag_14:\n      dup1\n      0x06fdde03\n      eq\n      tag_3\n      jumpi\n      dup1\n      0x095ea7b3\n      eq\n      tag_4\n      jumpi\n      dup1\n      0x18160ddd\n      eq\n      tag_5\n      jumpi\n      dup1\n      0x23b872dd\n      eq\n      tag_6\n      jumpi\n      dup1\n      0x313ce567\n      eq\n      tag_7\n      jumpi\n    tag_2:\n      0x00\n      dup1\n      revert\n        /* \"contracts/UmerToken_flattened.sol\":12680:12769  function name() public view virtual returns (string memory) {... */\n    tag_3:\n      tag_15\n      tag_16\n      jump\t// in\n    tag_15:\n      mload(0x40)\n      tag_17\n      swap2\n      swap1\n      tag_18\n      jump\t// in\n    tag_17:\n      mload(0x40)\n      dup1\n      swap2\n      sub\n      swap1\n      return\n        /* \"contracts/UmerToken_flattened.sol\":15380:15566  function approve(address spender, uint256 value) public virtual returns (bool) {... */\n    tag_4:\n      tag_19\n      0x04\n      dup1\n      calldatasize\n      sub\n      dup2\n      add\n      swap1\n      tag_20\n      swap2\n      swap1\n      tag_21\n      jump\t// in\n    tag_20:\n      tag_22\n      jump\t// in\n    tag_19:\n      mload(0x40)\n      tag_23\n      swap2\n      swap1\n      tag_24\n      jump\t// in\n    tag_23:\n      mload(0x40)\n      dup1\n      swap2\n      sub\n      swap1\n      return\n        /* \"contracts/UmerToken_flattened.sol\":13750:13847  function totalSupply() public view virtual returns (uint256) {... */\n    tag_5:\n      tag_25\n      tag_26\n      jump\t// in\n    tag_25:\n      mload(0x40)\n      tag_27\n      swap2\n      swap1\n      tag_28\n      jump\t// in\n    tag_27:\n      mload(0x40)\n      dup1\n      swap2\n      sub\n      swap1\n      return\n        /* \"contracts/UmerToken_flattened.sol\":16158:16402  function transferFrom(address from, address to, uint256 value) public virtual returns (bool) {... */\n    tag_6:\n      tag_29\n      0x04\n      dup1\n      calldatasize\n      sub\n      dup2\n      add\n      swap1\n      tag_30\n      swap2\n      swap1\n      tag_31\n      jump\t// in\n    tag_30:\n      tag_32\n      jump\t// in\n    tag_29:\n      mload(0x40)\n      tag_33\n      swap2\n      swap1\n      tag_24\n      jump\t// in\n    tag_33:\n      mload(0x40)\n      dup1\n      swap2\n      sub\n      swap1\n      return\n        /* \"contracts/UmerToken_flattened.sol\":13608:13690  function decimals() public view virtual returns (uint8) {... */\n    tag_7:\n      tag_34\n      tag_35\n      jump\t// in\n    tag_34:\n      mload(0x40)\n      tag_36\n      swap2\n      swap1\n      tag_37\n      jump\t// in\n    tag_36:\n      mload(0x40)\n      dup1\n      swap2\n      sub\n      swap1\n      return\n        /* \"contracts/UmerToken_flattened.sol\":14753:14875  function changeFee(uint newFee) public virtual onlyOwner returns (bool) {... */\n    tag_8:\n      tag_38\n      0x04\n      dup1\n      calldatasize\n      sub\n      dup2\n      add\n      swap1\n      tag_39\n      swap2\n      swap1\n      tag_40\n      jump\t// in\n    tag_39:\n      tag_41\n      jump\t// in\n    tag_38:\n      mload(0x40)\n      tag_42\n      swap2\n      swap1\n      tag_24\n      jump\t// in\n    tag_42:\n      mload(0x40)\n      dup1\n      swap2\n      sub\n      swap1\n      return\n        /* \"contracts/UmerToken_flattened.sol\":13905:14021  function balanceOf(address account) public view virtual returns (uint256) {... */\n    tag_9:\n      tag_43\n      0x04\n      dup1\n      calldatasize\n      sub\n      dup2\n      add\n      swap1\n      tag_44\n      swap2\n      swap1\n      tag_45\n      jump\t// in\n    tag_44:\n      tag_46\n      jump\t// in\n    tag_43:\n      mload(0x40)\n      tag_47\n      swap2\n      swap1\n      tag_28\n      jump\t// in\n    tag_47:\n      mload(0x40)\n      dup1\n      swap2\n      sub\n      swap1\n      return\n        /* \"contracts/UmerToken_flattened.sol\":12882:12975  function symbol() public view virtual returns (string memory) {... */\n    tag_10:\n      tag_48\n      tag_49\n      jump\t// in\n    tag_48:\n      mload(0x40)\n      tag_50\n      swap2\n      swap1\n      tag_18\n      jump\t// in\n    tag_50:\n      mload(0x40)\n      dup1\n      swap2\n      sub\n      swap1\n      return\n        /* \"contracts/UmerToken_flattened.sol\":14276:14645  function transfer (address to, uint256 value) public virtual returns (bool) {... */\n    tag_11:\n      tag_51\n      0x04\n      dup1\n      calldatasize\n      sub\n      dup2\n      add\n      swap1\n      tag_52\n      swap2\n      swap1\n      tag_21\n      jump\t// in\n    tag_52:\n      tag_53\n      jump\t// in\n    tag_51:\n      mload(0x40)\n      tag_54\n      swap2\n      swap1\n      tag_24\n      jump\t// in\n    tag_54:\n      mload(0x40)\n      dup1\n      swap2\n      sub\n      swap1\n      return\n        /* \"contracts/UmerToken_flattened.sol\":14933:15073  function allowance(address owner, address spender) public view virtual returns (uint256) {... */\n    tag_12:\n      tag_55\n      0x04\n      dup1\n      calldatasize\n      sub\n      dup2\n      add\n      swap1\n      tag_56\n      swap2\n      swap1\n      tag_57\n      jump\t// in\n    tag_56:\n      tag_58\n      jump\t// in\n    tag_55:\n      mload(0x40)\n      tag_59\n      swap2\n      swap1\n      tag_28\n      jump\t// in\n    tag_59:\n      mload(0x40)\n      dup1\n      swap2\n      sub\n      swap1\n      return\n        /* \"contracts/UmerToken_flattened.sol\":14216:14236  uint public fee = 10 */\n    tag_13:\n      tag_60\n      tag_61\n      jump\t// in\n    tag_60:\n      mload(0x40)\n      tag_62\n      swap2\n      swap1\n      tag_28\n      jump\t// in\n    tag_62:\n      mload(0x40)\n      dup1\n      swap2\n      sub\n      swap1\n      return\n        /* \"contracts/UmerToken_flattened.sol\":12680:12769  function name() public view virtual returns (string memory) {... */\n    tag_16:\n        /* \"contracts/UmerToken_flattened.sol\":12725:12738  string memory */\n      0x60\n        /* \"contracts/UmerToken_flattened.sol\":12757:12762  _name */\n      0x03\n        /* \"contracts/UmerToken_flattened.sol\":12750:12762  return _name */\n      dup1\n      sload\n      tag_64\n      swap1\n      tag_65\n      jump\t// in\n    tag_64:\n      dup1\n      0x1f\n      add\n      0x20\n      dup1\n      swap2\n      div\n      mul\n      0x20\n      add\n      mload(0x40)\n      swap1\n      dup2\n      add\n      0x40\n      mstore\n      dup1\n      swap3\n      swap2\n      swap1\n      dup2\n      dup2\n      mstore\n      0x20\n      add\n      dup3\n      dup1\n      sload\n      tag_66\n      swap1\n      tag_65\n      jump\t// in\n    tag_66:\n      dup1\n      iszero\n      tag_67\n      jumpi\n      dup1\n      0x1f\n      lt\n      tag_68\n      jumpi\n      0x0100\n      dup1\n      dup4\n      sload\n      div\n      mul\n      dup4\n      mstore\n      swap2\n      0x20\n      add\n      swap2\n      jump(tag_67)\n    tag_68:\n      dup3\n      add\n      swap2\n      swap1\n      0x00\n      mstore\n      keccak256(0x00, 0x20)\n      swap1\n    tag_69:\n      dup2\n      sload\n      dup2\n      mstore\n      swap1\n      0x01\n      add\n      swap1\n      0x20\n      add\n      dup1\n      dup4\n      gt\n      tag_69\n      jumpi\n      dup3\n      swap1\n      sub\n      0x1f\n      and\n      dup3\n      add\n      swap2\n    tag_67:\n      pop\n      pop\n      pop\n      pop\n      pop\n      swap1\n      pop\n        /* \"contracts/UmerToken_flattened.sol\":12680:12769  function name() public view virtual returns (string memory) {... */\n      swap1\n      jump\t// out\n        /* \"contracts/UmerToken_flattened.sol\":15380:15566  function approve(address spender, uint256 value) public virtual returns (bool) {... */\n    tag_22:\n        /* \"contracts/UmerToken_flattened.sol\":15453:15457  bool */\n      0x00\n        /* \"contracts/UmerToken_flattened.sol\":15469:15482  address owner */\n      dup1\n        /* \"contracts/UmerToken_flattened.sol\":15485:15497  _msgSender() */\n      tag_71\n        /* \"contracts/UmerToken_flattened.sol\":15485:15495  _msgSender */\n      tag_72\n        /* \"contracts/UmerToken_flattened.sol\":15485:15497  _msgSender() */\n      jump\t// in\n    tag_71:\n        /* \"contracts/UmerToken_flattened.sol\":15469:15497  address owner = _msgSender() */\n      swap1\n      pop\n        /* \"contracts/UmerToken_flattened.sol\":15507:15538  _approve(owner, spender, value) */\n      tag_73\n        /* \"contracts/UmerToken_flattened.sol\":15516:15521  owner */\n      dup2\n        /* \"contracts/UmerToken_flattened.sol\":15523:15530  spender */\n      dup6\n        /* \"contracts/UmerToken_flattened.sol\":15532:15537  value */\n      dup6\n        /* \"contracts/UmerToken_flattened.sol\":15507:15515  _approve */\n      tag_74\n        /* \"contracts/UmerToken_flattened.sol\":15507:15538  _approve(owner, spender, value) */\n      jump\t// in\n    tag_73:\n        /* \"contracts/UmerToken_flattened.sol\":15555:15559  true */\n      0x01\n        /* \"contracts/UmerToken_flattened.sol\":15548:15559  return true */\n      swap2\n      pop\n      pop\n        /* \"contracts/UmerToken_flattened.sol\":15380:15566  function approve(address spender, uint256 value) public virtual returns (bool) {... */\n      swap3\n      swap2\n      pop\n      pop\n      jump\t// out\n        /* \"contracts/UmerToken_flattened.sol\":13750:13847  function totalSupply() public view virtual returns (uint256) {... */\n    tag_26:\n        /* \"contracts/UmerToken_flattened.sol\":13802:13809  uint256 */\n      0x00\n        /* \"contracts/UmerToken_flattened.sol\":13828:13840  _totalSupply */\n      sload(0x02)\n        /* \"contracts/UmerToken_flattened.sol\":13821:13840  return _totalSupply */\n      swap1\n      pop\n        /* \"contracts/UmerToken_flattened.sol\":13750:13847  function totalSupply() public view virtual returns (uint256) {... */\n      swap1\n      jump\t// out\n        /* \"contracts/UmerToken_flattened.sol\":16158:16402  function transferFrom(address from, address to, uint256 value) public virtual returns (bool) {... */\n    tag_32:\n        /* \"contracts/UmerToken_flattened.sol\":16245:16249  bool */\n      0x00\n        /* \"contracts/UmerToken_flattened.sol\":16261:16276  address spender */\n      dup1\n        /* \"contracts/UmerToken_flattened.sol\":16279:16291  _msgSender() */\n      tag_77\n        /* \"contracts/UmerToken_flattened.sol\":16279:16289  _msgSender */\n      tag_72\n        /* \"contracts/UmerToken_flattened.sol\":16279:16291  _msgSender() */\n      jump\t// in\n    tag_77:\n        /* \"contracts/UmerToken_flattened.sol\":16261:16291  address spender = _msgSender() */\n      swap1\n      pop\n        /* \"contracts/UmerToken_flattened.sol\":16301:16338  _spendAllowance(from, spender, value) */\n      tag_78\n        /* \"contracts/UmerToken_flattened.sol\":16317:16321  from */\n      dup6\n        /* \"contracts/UmerToken_flattened.sol\":16323:16330  spender */\n      dup3\n        /* \"contracts/UmerToken_flattened.sol\":16332:16337  value */\n      dup6\n        /* \"contracts/UmerToken_flattened.sol\":16301:16316  _spendAllowance */\n      tag_79\n        /* \"contracts/UmerToken_flattened.sol\":16301:16338  _spendAllowance(from, spender, value) */\n      jump\t// in\n    tag_78:\n        /* \"contracts/UmerToken_flattened.sol\":16348:16374  _transfer(from, to, value) */\n      tag_80\n        /* \"contracts/UmerToken_flattened.sol\":16358:16362  from */\n      dup6\n        /* \"contracts/UmerToken_flattened.sol\":16364:16366  to */\n      dup6\n        /* \"contracts/UmerToken_flattened.sol\":16368:16373  value */\n      dup6\n        /* \"contracts/UmerToken_flattened.sol\":16348:16357  _transfer */\n      tag_81\n        /* \"contracts/UmerToken_flattened.sol\":16348:16374  _transfer(from, to, value) */\n      jump\t// in\n    tag_80:\n        /* \"contracts/UmerToken_flattened.sol\":16391:16395  true */\n      0x01\n        /* \"contracts/UmerToken_flattened.sol\":16384:16395  return true */\n      swap2\n      pop\n      pop\n        /* \"contracts/UmerToken_flattened.sol\":16158:16402  function transferFrom(address from, address to, uint256 value) public virtual returns (bool) {... */\n      swap4\n      swap3\n      pop\n      pop\n      pop\n      jump\t// out\n        /* \"contracts/UmerToken_flattened.sol\":13608:13690  function decimals() public view virtual returns (uint8) {... */\n    tag_35:\n        /* \"contracts/UmerToken_flattened.sol\":13657:13662  uint8 */\n      0x00\n        /* \"contracts/UmerToken_flattened.sol\":13681:13683  18 */\n      0x12\n        /* \"contracts/UmerToken_flattened.sol\":13674:13683  return 18 */\n      swap1\n      pop\n        /* \"contracts/UmerToken_flattened.sol\":13608:13690  function decimals() public view virtual returns (uint8) {... */\n      swap1\n      jump\t// out\n        /* \"contracts/UmerToken_flattened.sol\":14753:14875  function changeFee(uint newFee) public virtual onlyOwner returns (bool) {... */\n    tag_41:\n        /* \"contracts/UmerToken_flattened.sol\":14819:14823  bool */\n      0x00\n        /* \"contracts/UmerToken_flattened.sol\":14706:14712  _owner */\n      0x06\n      0x00\n      swap1\n      sload\n      swap1\n      0x0100\n      exp\n      swap1\n      div\n      0xffffffffffffffffffffffffffffffffffffffff\n      and\n        /* \"contracts/UmerToken_flattened.sol\":14690:14712  _msgSender() == _owner */\n      0xffffffffffffffffffffffffffffffffffffffff\n      and\n        /* \"contracts/UmerToken_flattened.sol\":14690:14702  _msgSender() */\n      tag_84\n        /* \"contracts/UmerToken_flattened.sol\":14690:14700  _msgSender */\n      tag_72\n        /* \"contracts/UmerToken_flattened.sol\":14690:14702  _msgSender() */\n      jump\t// in\n    tag_84:\n        /* \"contracts/UmerToken_flattened.sol\":14690:14712  _msgSender() == _owner */\n      0xffffffffffffffffffffffffffffffffffffffff\n      and\n      eq\n        /* \"contracts/UmerToken_flattened.sol\":14682:14729  require(_msgSender() == _owner, \"Not an owner\") */\n      tag_85\n      jumpi\n      mload(0x40)\n      0x08c379a000000000000000000000000000000000000000000000000000000000\n      dup2\n      mstore\n      0x04\n      add\n      tag_86\n      swap1\n      tag_87\n      jump\t// in\n    tag_86:\n      mload(0x40)\n      dup1\n      swap2\n      sub\n      swap1\n      revert\n    tag_85:\n        /* \"contracts/UmerToken_flattened.sol\":14841:14847  newFee */\n      dup2\n        /* \"contracts/UmerToken_flattened.sol\":14835:14838  fee */\n      0x05\n        /* \"contracts/UmerToken_flattened.sol\":14835:14847  fee = newFee */\n      dup2\n      swap1\n      sstore\n      pop\n        /* \"contracts/UmerToken_flattened.sol\":14864:14868  true */\n      0x01\n        /* \"contracts/UmerToken_flattened.sol\":14857:14868  return true */\n      swap1\n      pop\n        /* \"contracts/UmerToken_flattened.sol\":14753:14875  function changeFee(uint newFee) public virtual onlyOwner returns (bool) {... */\n      swap2\n      swap1\n      pop\n      jump\t// out\n        /* \"contracts/UmerToken_flattened.sol\":13905:14021  function balanceOf(address account) public view virtual returns (uint256) {... */\n    tag_46:\n        /* \"contracts/UmerToken_flattened.sol\":13970:13977  uint256 */\n      0x00\n        /* \"contracts/UmerToken_flattened.sol\":13996:14005  _balances */\n      dup1\n        /* \"contracts/UmerToken_flattened.sol\":13996:14014  _balances[account] */\n      0x00\n        /* \"contracts/UmerToken_flattened.sol\":14006:14013  account */\n      dup4\n        /* \"contracts/UmerToken_flattened.sol\":13996:14014  _balances[account] */\n      0xffffffffffffffffffffffffffffffffffffffff\n      and\n      0xffffffffffffffffffffffffffffffffffffffff\n      and\n      dup2\n      mstore\n      0x20\n      add\n      swap1\n      dup2\n      mstore\n      0x20\n      add\n      0x00\n      keccak256\n      sload\n        /* \"contracts/UmerToken_flattened.sol\":13989:14014  return _balances[account] */\n      swap1\n      pop\n        /* \"contracts/UmerToken_flattened.sol\":13905:14021  function balanceOf(address account) public view virtual returns (uint256) {... */\n      swap2\n      swap1\n      pop\n      jump\t// out\n        /* \"contracts/UmerToken_flattened.sol\":12882:12975  function symbol() public view virtual returns (string memory) {... */\n    tag_49:\n        /* \"contracts/UmerToken_flattened.sol\":12929:12942  string memory */\n      0x60\n        /* \"contracts/UmerToken_flattened.sol\":12961:12968  _symbol */\n      0x04\n        /* \"contracts/UmerToken_flattened.sol\":12954:12968  return _symbol */\n      dup1\n      sload\n      tag_91\n      swap1\n      tag_65\n      jump\t// in\n    tag_91:\n      dup1\n      0x1f\n      add\n      0x20\n      dup1\n      swap2\n      div\n      mul\n      0x20\n      add\n      mload(0x40)\n      swap1\n      dup2\n      add\n      0x40\n      mstore\n      dup1\n      swap3\n      swap2\n      swap1\n      dup2\n      dup2\n      mstore\n      0x20\n      add\n      dup3\n      dup1\n      sload\n      tag_92\n      swap1\n      tag_65\n      jump\t// in\n    tag_92:\n      dup1\n      iszero\n      tag_93\n      jumpi\n      dup1\n      0x1f\n      lt\n      tag_94\n      jumpi\n      0x0100\n      dup1\n      dup4\n      sload\n      div\n      mul\n      dup4\n      mstore\n      swap2\n      0x20\n      add\n      swap2\n      jump(tag_93)\n    tag_94:\n      dup3\n      add\n      swap2\n      swap1\n      0x00\n      mstore\n      keccak256(0x00, 0x20)\n      swap1\n    tag_95:\n      dup2\n      sload\n      dup2\n      mstore\n      swap1\n      0x01\n      add\n      swap1\n      0x20\n      add\n      dup1\n      dup4\n      gt\n      tag_95\n      jumpi\n      dup3\n      swap1\n      sub\n      0x1f\n      and\n      dup3\n      add\n      swap2\n    tag_93:\n      pop\n      pop\n      pop\n      pop\n      pop\n      swap1\n      pop\n        /* \"contracts/UmerToken_flattened.sol\":12882:12975  function symbol() public view virtual returns (string memory) {... */\n      swap1\n      jump\t// out\n        /* \"contracts/UmerToken_flattened.sol\":14276:14645  function transfer (address to, uint256 value) public virtual returns (bool) {... */\n    tag_53:\n        /* \"contracts/UmerToken_flattened.sol\":14346:14350  bool */\n      0x00\n        /* \"contracts/UmerToken_flattened.sol\":14362:14375  address owner */\n      dup1\n        /* \"contracts/UmerToken_flattened.sol\":14378:14390  _msgSender() */\n      tag_97\n        /* \"contracts/UmerToken_flattened.sol\":14378:14388  _msgSender */\n      tag_72\n        /* \"contracts/UmerToken_flattened.sol\":14378:14390  _msgSender() */\n      jump\t// in\n    tag_97:\n        /* \"contracts/UmerToken_flattened.sol\":14362:14390  address owner = _msgSender() */\n      swap1\n      pop\n        /* \"contracts/UmerToken_flattened.sol\":14400:14418  address feeAddress */\n      0x00\n        /* \"contracts/UmerToken_flattened.sol\":14421:14463  0x5B38Da6a701c568545dCfcB03FcB875f56beddC4 */\n      0x5b38da6a701c568545dcfcb03fcb875f56beddc4\n        /* \"contracts/UmerToken_flattened.sol\":14400:14463  address feeAddress = 0x5B38Da6a701c568545dCfcB03FcB875f56beddC4 */\n      swap1\n      pop\n        /* \"contracts/UmerToken_flattened.sol\":14474:14491  uint256 feeamount */\n      0x00\n        /* \"contracts/UmerToken_flattened.sol\":14506:14509  100 */\n      0x64\n        /* \"contracts/UmerToken_flattened.sol\":14501:14504  fee */\n      sload(0x05)\n        /* \"contracts/UmerToken_flattened.sol\":14495:14500  value */\n      dup7\n        /* \"contracts/UmerToken_flattened.sol\":14495:14504  value*fee */\n      tag_98\n      swap2\n      swap1\n      tag_99\n      jump\t// in\n    tag_98:\n        /* \"contracts/UmerToken_flattened.sol\":14494:14509  (value*fee)/100 */\n      tag_100\n      swap2\n      swap1\n      tag_101\n      jump\t// in\n    tag_100:\n        /* \"contracts/UmerToken_flattened.sol\":14474:14509  uint256 feeamount = (value*fee)/100 */\n      swap1\n      pop\n        /* \"contracts/UmerToken_flattened.sol\":14528:14531  fee */\n      sload(0x05)\n        /* \"contracts/UmerToken_flattened.sol\":14519:14531  value -= fee */\n      dup6\n      tag_102\n      swap2\n      swap1\n      tag_103\n      jump\t// in\n    tag_102:\n      swap5\n      pop\n        /* \"contracts/UmerToken_flattened.sol\":14542:14581  _transfer(owner, feeAddress, feeamount) */\n      tag_104\n        /* \"contracts/UmerToken_flattened.sol\":14552:14557  owner */\n      dup4\n        /* \"contracts/UmerToken_flattened.sol\":14559:14569  feeAddress */\n      dup4\n        /* \"contracts/UmerToken_flattened.sol\":14571:14580  feeamount */\n      dup4\n        /* \"contracts/UmerToken_flattened.sol\":14542:14551  _transfer */\n      tag_81\n        /* \"contracts/UmerToken_flattened.sol\":14542:14581  _transfer(owner, feeAddress, feeamount) */\n      jump\t// in\n    tag_104:\n        /* \"contracts/UmerToken_flattened.sol\":14591:14617  _transfer(owner,to, value) */\n      tag_105\n        /* \"contracts/UmerToken_flattened.sol\":14601:14606  owner */\n      dup4\n        /* \"contracts/UmerToken_flattened.sol\":14607:14609  to */\n      dup8\n        /* \"contracts/UmerToken_flattened.sol\":14611:14616  value */\n      dup8\n        /* \"contracts/UmerToken_flattened.sol\":14591:14600  _transfer */\n      tag_81\n        /* \"contracts/UmerToken_flattened.sol\":14591:14617  _transfer(owner,to, value) */\n      jump\t// in\n    tag_105:\n        /* \"contracts/UmerToken_flattened.sol\":14634:14638  true */\n      0x01\n        /* \"contracts/UmerToken_flattened.sol\":14627:14638  return true */\n      swap4\n      pop\n      pop\n      pop\n      pop\n        /* \"contracts/UmerToken_flattened.sol\":14276:14645  function transfer (address to, uint256 value) public virtual returns (bool) {... */\n      swap3\n      swap2\n      pop\n      pop\n      jump\t// out\n        /* \"contracts/UmerToken_flattened.sol\":14933:15073  function allowance(address owner, address spender) public view virtual returns (uint256) {... */\n    tag_58:\n        /* \"contracts/UmerToken_flattened.sol\":15013:15020  uint256 */\n      0x00\n        /* \"contracts/UmerToken_flattened.sol\":15039:15050  _allowances */\n      0x01\n        /* \"contracts/UmerToken_flattened.sol\":15039:15057  _allowances[owner] */\n      0x00\n        /* \"contracts/UmerToken_flattened.sol\":15051:15056  owner */\n      dup5\n        /* \"contracts/UmerToken_flattened.sol\":15039:15057  _allowances[owner] */\n      0xffffffffffffffffffffffffffffffffffffffff\n      and\n      0xffffffffffffffffffffffffffffffffffffffff\n      and\n      dup2\n      mstore\n      0x20\n      add\n      swap1\n      dup2\n      mstore\n      0x20\n      add\n      0x00\n      keccak256\n        /* \"contracts/UmerToken_flattened.sol\":15039:15066  _allowances[owner][spender] */\n      0x00\n        /* \"contracts/UmerToken_flattened.sol\":15058:15065  spender */\n      dup4\n        /* \"contracts/UmerToken_flattened.sol\":15039:15066  _allowances[owner][spender] */\n      0xffffffffffffffffffffffffffffffffffffffff\n      and\n      0xffffffffffffffffffffffffffffffffffffffff\n      and\n      dup2\n      mstore\n      0x20\n      add\n      swap1\n      dup2\n      mstore\n      0x20\n      add\n      0x00\n      keccak256\n      sload\n        /* \"contracts/UmerToken_flattened.sol\":15032:15066  return _allowances[owner][spender] */\n      swap1\n      pop\n        /* \"contracts/UmerToken_flattened.sol\":14933:15073  function allowance(address owner, address spender) public view virtual returns (uint256) {... */\n      swap3\n      swap2\n      pop\n      pop\n      jump\t// out\n        /* \"contracts/UmerToken_flattened.sol\":14216:14236  uint public fee = 10 */\n    tag_61:\n      sload(0x05)\n      dup2\n      jump\t// out\n        /* \"contracts/UmerToken_flattened.sol\":4209:4305  function _msgSender() internal view virtual returns (address) {... */\n    tag_72:\n        /* \"contracts/UmerToken_flattened.sol\":4262:4269  address */\n      0x00\n        /* \"contracts/UmerToken_flattened.sol\":4288:4298  msg.sender */\n      caller\n        /* \"contracts/UmerToken_flattened.sol\":4281:4298  return msg.sender */\n      swap1\n      pop\n        /* \"contracts/UmerToken_flattened.sol\":4209:4305  function _msgSender() internal view virtual returns (address) {... */\n      swap1\n      jump\t// out\n        /* \"contracts/UmerToken_flattened.sol\":20108:20236  function _approve(address owner, address spender, uint256 value) internal {... */\n    tag_74:\n        /* \"contracts/UmerToken_flattened.sol\":20192:20229  _approve(owner, spender, value, true) */\n      tag_109\n        /* \"contracts/UmerToken_flattened.sol\":20201:20206  owner */\n      dup4\n        /* \"contracts/UmerToken_flattened.sol\":20208:20215  spender */\n      dup4\n        /* \"contracts/UmerToken_flattened.sol\":20217:20222  value */\n      dup4\n        /* \"contracts/UmerToken_flattened.sol\":20224:20228  true */\n      0x01\n        /* \"contracts/UmerToken_flattened.sol\":20192:20200  _approve */\n      tag_110\n        /* \"contracts/UmerToken_flattened.sol\":20192:20229  _approve(owner, spender, value, true) */\n      jump\t// in\n    tag_109:\n        /* \"contracts/UmerToken_flattened.sol\":20108:20236  function _approve(address owner, address spender, uint256 value) internal {... */\n      pop\n      pop\n      pop\n      jump\t// out\n        /* \"contracts/UmerToken_flattened.sol\":21797:22273  function _spendAllowance(address owner, address spender, uint256 value) internal virtual {... */\n    tag_79:\n        /* \"contracts/UmerToken_flattened.sol\":21896:21920  uint256 currentAllowance */\n      0x00\n        /* \"contracts/UmerToken_flattened.sol\":21923:21948  allowance(owner, spender) */\n      tag_112\n        /* \"contracts/UmerToken_flattened.sol\":21933:21938  owner */\n      dup5\n        /* \"contracts/UmerToken_flattened.sol\":21940:21947  spender */\n      dup5\n        /* \"contracts/UmerToken_flattened.sol\":21923:21932  allowance */\n      tag_58\n        /* \"contracts/UmerToken_flattened.sol\":21923:21948  allowance(owner, spender) */\n      jump\t// in\n    tag_112:\n        /* \"contracts/UmerToken_flattened.sol\":21896:21948  uint256 currentAllowance = allowance(owner, spender) */\n      swap1\n      pop\n        /* \"contracts/UmerToken_flattened.sol\":21981:21998  type(uint256).max */\n      0xffffffffffffffffffffffffffffffffffffffffffffffffffffffffffffffff\n        /* \"contracts/UmerToken_flattened.sol\":21962:21978  currentAllowance */\n      dup2\n        /* \"contracts/UmerToken_flattened.sol\":21962:21998  currentAllowance < type(uint256).max */\n      lt\n        /* \"contracts/UmerToken_flattened.sol\":21958:22267  if (currentAllowance < type(uint256).max) {... */\n      iszero\n      tag_113\n      jumpi\n        /* \"contracts/UmerToken_flattened.sol\":22037:22042  value */\n      dup2\n        /* \"contracts/UmerToken_flattened.sol\":22018:22034  currentAllowance */\n      dup2\n        /* \"contracts/UmerToken_flattened.sol\":22018:22042  currentAllowance < value */\n      lt\n        /* \"contracts/UmerToken_flattened.sol\":22014:22144  if (currentAllowance < value) {... */\n      iszero\n      tag_114\n      jumpi\n        /* \"contracts/UmerToken_flattened.sol\":22096:22103  spender */\n      dup3\n        /* \"contracts/UmerToken_flattened.sol\":22105:22121  currentAllowance */\n      dup2\n        /* \"contracts/UmerToken_flattened.sol\":22123:22128  value */\n      dup4\n        /* \"contracts/UmerToken_flattened.sol\":22069:22129  ERC20InsufficientAllowance(spender, currentAllowance, value) */\n      mload(0x40)\n      0xfb8f41b200000000000000000000000000000000000000000000000000000000\n      dup2\n      mstore\n      0x04\n      add\n      tag_115\n      swap4\n      swap3\n      swap2\n      swap1\n      tag_116\n      jump\t// in\n    tag_115:\n      mload(0x40)\n      dup1\n      swap2\n      sub\n      swap1\n      revert\n        /* \"contracts/UmerToken_flattened.sol\":22014:22144  if (currentAllowance < value) {... */\n    tag_114:\n        /* \"contracts/UmerToken_flattened.sol\":22185:22242  _approve(owner, spender, currentAllowance - value, false) */\n      tag_117\n        /* \"contracts/UmerToken_flattened.sol\":22194:22199  owner */\n      dup5\n        /* \"contracts/UmerToken_flattened.sol\":22201:22208  spender */\n      dup5\n        /* \"contracts/UmerToken_flattened.sol\":22229:22234  value */\n      dup5\n        /* \"contracts/UmerToken_flattened.sol\":22210:22226  currentAllowance */\n      dup5\n        /* \"contracts/UmerToken_flattened.sol\":22210:22234  currentAllowance - value */\n      sub\n        /* \"contracts/UmerToken_flattened.sol\":22236:22241  false */\n      0x00\n        /* \"contracts/UmerToken_flattened.sol\":22185:22193  _approve */\n      tag_110\n        /* \"contracts/UmerToken_flattened.sol\":22185:22242  _approve(owner, spender, currentAllowance - value, false) */\n      jump\t// in\n    tag_117:\n        /* \"contracts/UmerToken_flattened.sol\":21958:22267  if (currentAllowance < type(uint256).max) {... */\n    tag_113:\n        /* \"contracts/UmerToken_flattened.sol\":21886:22273  {... */\n      pop\n        /* \"contracts/UmerToken_flattened.sol\":21797:22273  function _spendAllowance(address owner, address spender, uint256 value) internal virtual {... */\n      pop\n      pop\n      pop\n      jump\t// out\n        /* \"contracts/UmerToken_flattened.sol\":16775:17075  function _transfer(address from, address to, uint256 value) internal {... */\n    tag_81:\n        /* \"contracts/UmerToken_flattened.sol\":16874:16875  0 */\n      0x00\n        /* \"contracts/UmerToken_flattened.sol\":16858:16876  from == address(0) */\n      0xffffffffffffffffffffffffffffffffffffffff\n      and\n        /* \"contracts/UmerToken_flattened.sol\":16858:16862  from */\n      dup4\n        /* \"contracts/UmerToken_flattened.sol\":16858:16876  from == address(0) */\n      0xffffffffffffffffffffffffffffffffffffffff\n      and\n      sub\n        /* \"contracts/UmerToken_flattened.sol\":16854:16940  if (from == address(0)) {... */\n      tag_119\n      jumpi\n        /* \"contracts/UmerToken_flattened.sol\":16926:16927  0 */\n      0x00\n        /* \"contracts/UmerToken_flattened.sol\":16899:16929  ERC20InvalidSender(address(0)) */\n      mload(0x40)\n      0x96c6fd1e00000000000000000000000000000000000000000000000000000000\n      dup2\n      mstore\n      0x04\n      add\n      tag_120\n      swap2\n      swap1\n      tag_121\n      jump\t// in\n    tag_120:\n      mload(0x40)\n      dup1\n      swap2\n      sub\n      swap1\n      revert\n        /* \"contracts/UmerToken_flattened.sol\":16854:16940  if (from == address(0)) {... */\n    tag_119:\n        /* \"contracts/UmerToken_flattened.sol\":16967:16968  0 */\n      0x00\n        /* \"contracts/UmerToken_flattened.sol\":16953:16969  to == address(0) */\n      0xffffffffffffffffffffffffffffffffffffffff\n      and\n        /* \"contracts/UmerToken_flattened.sol\":16953:16955  to */\n      dup3\n        /* \"contracts/UmerToken_flattened.sol\":16953:16969  to == address(0) */\n      0xffffffffffffffffffffffffffffffffffffffff\n      and\n      sub\n        /* \"contracts/UmerToken_flattened.sol\":16949:17035  if (to == address(0)) {... */\n      tag_122\n      jumpi\n        /* \"contracts/UmerToken_flattened.sol\":17021:17022  0 */\n      0x00\n        /* \"contracts/UmerToken_flattened.sol\":16992:17024  ERC20InvalidReceiver(address(0)) */\n      mload(0x40)\n      0xec442f0500000000000000000000000000000000000000000000000000000000\n      dup2\n      mstore\n      0x04\n      add\n      tag_123\n      swap2\n      swap1\n      tag_121\n      jump\t// in\n    tag_123:\n      mload(0x40)\n      dup1\n      swap2\n      sub\n      swap1\n      revert\n        /* \"contracts/UmerToken_flattened.sol\":16949:17035  if (to == address(0)) {... */\n    tag_122:\n        /* \"contracts/UmerToken_flattened.sol\":17044:17068  _update(from, to, value) */\n      tag_124\n        /* \"contracts/UmerToken_flattened.sol\":17052:17056  from */\n      dup4\n        /* \"contracts/UmerToken_flattened.sol\":17058:17060  to */\n      dup4\n        /* \"contracts/UmerToken_flattened.sol\":17062:17067  value */\n      dup4\n        /* \"contracts/UmerToken_flattened.sol\":17044:17051  _update */\n      tag_125\n        /* \"contracts/UmerToken_flattened.sol\":17044:17068  _update(from, to, value) */\n      jump\t// in\n    tag_124:\n        /* \"contracts/UmerToken_flattened.sol\":16775:17075  function _transfer(address from, address to, uint256 value) internal {... */\n      pop\n      pop\n      pop\n      jump\t// out\n        /* \"contracts/UmerToken_flattened.sol\":21083:21515  function _approve(address owner, address spender, uint256 value, bool emitEvent) internal virtual {... */\n    tag_110:\n        /* \"contracts/UmerToken_flattened.sol\":21212:21213  0 */\n      0x00\n        /* \"contracts/UmerToken_flattened.sol\":21195:21214  owner == address(0) */\n      0xffffffffffffffffffffffffffffffffffffffff\n      and\n        /* \"contracts/UmerToken_flattened.sol\":21195:21200  owner */\n      dup5\n        /* \"contracts/UmerToken_flattened.sol\":21195:21214  owner == address(0) */\n      0xffffffffffffffffffffffffffffffffffffffff\n      and\n      sub\n        /* \"contracts/UmerToken_flattened.sol\":21191:21280  if (owner == address(0)) {... */\n      tag_127\n      jumpi\n        /* \"contracts/UmerToken_flattened.sol\":21266:21267  0 */\n      0x00\n        /* \"contracts/UmerToken_flattened.sol\":21237:21269  ERC20InvalidApprover(address(0)) */\n      mload(0x40)\n      0xe602df0500000000000000000000000000000000000000000000000000000000\n      dup2\n      mstore\n      0x04\n      add\n      tag_128\n      swap2\n      swap1\n      tag_121\n      jump\t// in\n    tag_128:\n      mload(0x40)\n      dup1\n      swap2\n      sub\n      swap1\n      revert\n        /* \"contracts/UmerToken_flattened.sol\":21191:21280  if (owner == address(0)) {... */\n    tag_127:\n        /* \"contracts/UmerToken_flattened.sol\":21312:21313  0 */\n      0x00\n        /* \"contracts/UmerToken_flattened.sol\":21293:21314  spender == address(0) */\n      0xffffffffffffffffffffffffffffffffffffffff\n      and\n        /* \"contracts/UmerToken_flattened.sol\":21293:21300  spender */\n      dup4\n        /* \"contracts/UmerToken_flattened.sol\":21293:21314  spender == address(0) */\n      0xffffffffffffffffffffffffffffffffffffffff\n      and\n      sub\n        /* \"contracts/UmerToken_flattened.sol\":21289:21379  if (spender == address(0)) {... */\n      tag_129\n      jumpi\n        /* \"contracts/UmerToken_flattened.sol\":21365:21366  0 */\n      0x00\n        /* \"contracts/UmerToken_flattened.sol\":21337:21368  ERC20InvalidSpender(address(0)) */\n      mload(0x40)\n      0x94280d6200000000000000000000000000000000000000000000000000000000\n      dup2\n      mstore\n      0x04\n      add\n      tag_130\n      swap2\n      swap1\n      tag_121\n      jump\t// in\n    tag_130:\n      mload(0x40)\n      dup1\n      swap2\n      sub\n      swap1\n      revert\n        /* \"contracts/UmerToken_flattened.sol\":21289:21379  if (spender == address(0)) {... */\n    tag_129:\n        /* \"contracts/UmerToken_flattened.sol\":21418:21423  value */\n      dup2\n        /* \"contracts/UmerToken_flattened.sol\":21388:21399  _allowances */\n      0x01\n        /* \"contracts/UmerToken_flattened.sol\":21388:21406  _allowances[owner] */\n      0x00\n        /* \"contracts/UmerToken_flattened.sol\":21400:21405  owner */\n      dup7\n        /* \"contracts/UmerToken_flattened.sol\":21388:21406  _allowances[owner] */\n      0xffffffffffffffffffffffffffffffffffffffff\n      and\n      0xffffffffffffffffffffffffffffffffffffffff\n      and\n      dup2\n      mstore\n      0x20\n      add\n      swap1\n      dup2\n      mstore\n      0x20\n      add\n      0x00\n      keccak256\n        /* \"contracts/UmerToken_flattened.sol\":21388:21415  _allowances[owner][spender] */\n      0x00\n        /* \"contracts/UmerToken_flattened.sol\":21407:21414  spender */\n      dup6\n        /* \"contracts/UmerToken_flattened.sol\":21388:21415  _allowances[owner][spender] */\n      0xffffffffffffffffffffffffffffffffffffffff\n      and\n      0xffffffffffffffffffffffffffffffffffffffff\n      and\n      dup2\n      mstore\n      0x20\n      add\n      swap1\n      dup2\n      mstore\n      0x20\n      add\n      0x00\n      keccak256\n        /* \"contracts/UmerToken_flattened.sol\":21388:21423  _allowances[owner][spender] = value */\n      dup2\n      swap1\n      sstore\n      pop\n        /* \"contracts/UmerToken_flattened.sol\":21437:21446  emitEvent */\n      dup1\n        /* \"contracts/UmerToken_flattened.sol\":21433:21509  if (emitEvent) {... */\n      iszero\n      tag_131\n      jumpi\n        /* \"contracts/UmerToken_flattened.sol\":21483:21490  spender */\n      dup3\n        /* \"contracts/UmerToken_flattened.sol\":21467:21498  Approval(owner, spender, value) */\n      0xffffffffffffffffffffffffffffffffffffffff\n      and\n        /* \"contracts/UmerToken_flattened.sol\":21476:21481  owner */\n      dup5\n        /* \"contracts/UmerToken_flattened.sol\":21467:21498  Approval(owner, spender, value) */\n      0xffffffffffffffffffffffffffffffffffffffff\n      and\n      0x8c5be1e5ebec7d5bd14f71427d1e84f3dd0314c0f7b2291e5b200ac8c7c3b925\n        /* \"contracts/UmerToken_flattened.sol\":21492:21497  value */\n      dup5\n        /* \"contracts/UmerToken_flattened.sol\":21467:21498  Approval(owner, spender, value) */\n      mload(0x40)\n      tag_132\n      swap2\n      swap1\n      tag_28\n      jump\t// in\n    tag_132:\n      mload(0x40)\n      dup1\n      swap2\n      sub\n      swap1\n      log3\n        /* \"contracts/UmerToken_flattened.sol\":21433:21509  if (emitEvent) {... */\n    tag_131:\n        /* \"contracts/UmerToken_flattened.sol\":21083:21515  function _approve(address owner, address spender, uint256 value, bool emitEvent) internal virtual {... */\n      pop\n      pop\n      pop\n      pop\n      jump\t// out\n        /* \"contracts/UmerToken_flattened.sol\":17390:18497  function _update(address from, address to, uint256 value) internal virtual {... */\n    tag_125:\n        /* \"contracts/UmerToken_flattened.sol\":17495:17496  0 */\n      0x00\n        /* \"contracts/UmerToken_flattened.sol\":17479:17497  from == address(0) */\n      0xffffffffffffffffffffffffffffffffffffffff\n      and\n        /* \"contracts/UmerToken_flattened.sol\":17479:17483  from */\n      dup4\n        /* \"contracts/UmerToken_flattened.sol\":17479:17497  from == address(0) */\n      0xffffffffffffffffffffffffffffffffffffffff\n      and\n      sub\n        /* \"contracts/UmerToken_flattened.sol\":17475:18015  if (from == address(0)) {... */\n      tag_134\n      jumpi\n        /* \"contracts/UmerToken_flattened.sol\":17631:17636  value */\n      dup1\n        /* \"contracts/UmerToken_flattened.sol\":17615:17627  _totalSupply */\n      0x02\n      0x00\n        /* \"contracts/UmerToken_flattened.sol\":17615:17636  _totalSupply += value */\n      dup3\n      dup3\n      sload\n      tag_135\n      swap2\n      swap1\n      tag_136\n      jump\t// in\n    tag_135:\n      swap3\n      pop\n      pop\n      dup2\n      swap1\n      sstore\n      pop\n        /* \"contracts/UmerToken_flattened.sol\":17475:18015  if (from == address(0)) {... */\n      jump(tag_137)\n    tag_134:\n        /* \"contracts/UmerToken_flattened.sol\":17667:17686  uint256 fromBalance */\n      0x00\n        /* \"contracts/UmerToken_flattened.sol\":17689:17698  _balances */\n      dup1\n        /* \"contracts/UmerToken_flattened.sol\":17689:17704  _balances[from] */\n      0x00\n        /* \"contracts/UmerToken_flattened.sol\":17699:17703  from */\n      dup6\n        /* \"contracts/UmerToken_flattened.sol\":17689:17704  _balances[from] */\n      0xffffffffffffffffffffffffffffffffffffffff\n      and\n      0xffffffffffffffffffffffffffffffffffffffff\n      and\n      dup2\n      mstore\n      0x20\n      add\n      swap1\n      dup2\n      mstore\n      0x20\n      add\n      0x00\n      keccak256\n      sload\n        /* \"contracts/UmerToken_flattened.sol\":17667:17704  uint256 fromBalance = _balances[from] */\n      swap1\n      pop\n        /* \"contracts/UmerToken_flattened.sol\":17736:17741  value */\n      dup2\n        /* \"contracts/UmerToken_flattened.sol\":17722:17733  fromBalance */\n      dup2\n        /* \"contracts/UmerToken_flattened.sol\":17722:17741  fromBalance < value */\n      lt\n        /* \"contracts/UmerToken_flattened.sol\":17718:17833  if (fromBalance < value) {... */\n      iszero\n      tag_138\n      jumpi\n        /* \"contracts/UmerToken_flattened.sol\":17793:17797  from */\n      dup4\n        /* \"contracts/UmerToken_flattened.sol\":17799:17810  fromBalance */\n      dup2\n        /* \"contracts/UmerToken_flattened.sol\":17812:17817  value */\n      dup4\n        /* \"contracts/UmerToken_flattened.sol\":17768:17818  ERC20InsufficientBalance(from, fromBalance, value) */\n      mload(0x40)\n      0xe450d38c00000000000000000000000000000000000000000000000000000000\n      dup2\n      mstore\n      0x04\n      add\n      tag_139\n      swap4\n      swap3\n      swap2\n      swap1\n      tag_116\n      jump\t// in\n    tag_139:\n      mload(0x40)\n      dup1\n      swap2\n      sub\n      swap1\n      revert\n        /* \"contracts/UmerToken_flattened.sol\":17718:17833  if (fromBalance < value) {... */\n    tag_138:\n        /* \"contracts/UmerToken_flattened.sol\":17985:17990  value */\n      dup2\n        /* \"contracts/UmerToken_flattened.sol\":17971:17982  fromBalance */\n      dup2\n        /* \"contracts/UmerToken_flattened.sol\":17971:17990  fromBalance - value */\n      sub\n        /* \"contracts/UmerToken_flattened.sol\":17953:17962  _balances */\n      0x00\n        /* \"contracts/UmerToken_flattened.sol\":17953:17968  _balances[from] */\n      dup1\n        /* \"contracts/UmerToken_flattened.sol\":17963:17967  from */\n      dup7\n        /* \"contracts/UmerToken_flattened.sol\":17953:17968  _balances[from] */\n      0xffffffffffffffffffffffffffffffffffffffff\n      and\n      0xffffffffffffffffffffffffffffffffffffffff\n      and\n      dup2\n      mstore\n      0x20\n      add\n      swap1\n      dup2\n      mstore\n      0x20\n      add\n      0x00\n      keccak256\n        /* \"contracts/UmerToken_flattened.sol\":17953:17990  _balances[from] = fromBalance - value */\n      dup2\n      swap1\n      sstore\n      pop\n        /* \"contracts/UmerToken_flattened.sol\":17653:18015  {... */\n      pop\n        /* \"contracts/UmerToken_flattened.sol\":17475:18015  if (from == address(0)) {... */\n    tag_137:\n        /* \"contracts/UmerToken_flattened.sol\":18043:18044  0 */\n      0x00\n        /* \"contracts/UmerToken_flattened.sol\":18029:18045  to == address(0) */\n      0xffffffffffffffffffffffffffffffffffffffff\n      and\n        /* \"contracts/UmerToken_flattened.sol\":18029:18031  to */\n      dup3\n        /* \"contracts/UmerToken_flattened.sol\":18029:18045  to == address(0) */\n      0xffffffffffffffffffffffffffffffffffffffff\n      and\n      sub\n        /* \"contracts/UmerToken_flattened.sol\":18025:18450  if (to == address(0)) {... */\n      tag_140\n      jumpi\n        /* \"contracts/UmerToken_flattened.sol\":18208:18213  value */\n      dup1\n        /* \"contracts/UmerToken_flattened.sol\":18192:18204  _totalSupply */\n      0x02\n      0x00\n        /* \"contracts/UmerToken_flattened.sol\":18192:18213  _totalSupply -= value */\n      dup3\n      dup3\n      sload\n      sub\n      swap3\n      pop\n      pop\n      dup2\n      swap1\n      sstore\n      pop\n        /* \"contracts/UmerToken_flattened.sol\":18025:18450  if (to == address(0)) {... */\n      jump(tag_141)\n    tag_140:\n        /* \"contracts/UmerToken_flattened.sol\":18420:18425  value */\n      dup1\n        /* \"contracts/UmerToken_flattened.sol\":18403:18412  _balances */\n      0x00\n        /* \"contracts/UmerToken_flattened.sol\":18403:18416  _balances[to] */\n      dup1\n        /* \"contracts/UmerToken_flattened.sol\":18413:18415  to */\n      dup5\n        /* \"contracts/UmerToken_flattened.sol\":18403:18416  _balances[to] */\n      0xffffffffffffffffffffffffffffffffffffffff\n      and\n      0xffffffffffffffffffffffffffffffffffffffff\n      and\n      dup2\n      mstore\n      0x20\n      add\n      swap1\n      dup2\n      mstore\n      0x20\n      add\n      0x00\n      keccak256\n      0x00\n        /* \"contracts/UmerToken_flattened.sol\":18403:18425  _balances[to] += value */\n      dup3\n      dup3\n      sload\n      add\n      swap3\n      pop\n      pop\n      dup2\n      swap1\n      sstore\n      pop\n        /* \"contracts/UmerToken_flattened.sol\":18025:18450  if (to == address(0)) {... */\n    tag_141:\n        /* \"contracts/UmerToken_flattened.sol\":18480:18482  to */\n      dup2\n        /* \"contracts/UmerToken_flattened.sol\":18465:18490  Transfer(from, to, value) */\n      0xffffffffffffffffffffffffffffffffffffffff\n      and\n        /* \"contracts/UmerToken_flattened.sol\":18474:18478  from */\n      dup4\n        /* \"contracts/UmerToken_flattened.sol\":18465:18490  Transfer(from, to, value) */\n      0xffffffffffffffffffffffffffffffffffffffff\n      and\n      0xddf252ad1be2c89b69c2b068fc378daa952ba7f163c4a11628f55a4df523b3ef\n        /* \"contracts/UmerToken_flattened.sol\":18484:18489  value */\n      dup4\n        /* \"contracts/UmerToken_flattened.sol\":18465:18490  Transfer(from, to, value) */\n      mload(0x40)\n      tag_142\n      swap2\n      swap1\n      tag_28\n      jump\t// in\n    tag_142:\n      mload(0x40)\n      dup1\n      swap2\n      sub\n      swap1\n      log3\n        /* \"contracts/UmerToken_flattened.sol\":17390:18497  function _update(address from, address to, uint256 value) internal virtual {... */\n      pop\n      pop\n      pop\n      jump\t// out\n        /* \"#utility.yul\":7:106   */\n    tag_143:\n        /* \"#utility.yul\":59:65   */\n      0x00\n        /* \"#utility.yul\":93:98   */\n      dup2\n        /* \"#utility.yul\":87:99   */\n      mload\n        /* \"#utility.yul\":77:99   */\n      swap1\n      pop\n        /* \"#utility.yul\":7:106   */\n      swap2\n      swap1\n      pop\n      jump\t// out\n        /* \"#utility.yul\":112:281   */\n    tag_144:\n        /* \"#utility.yul\":196:207   */\n      0x00\n        /* \"#utility.yul\":230:236   */\n      dup3\n        /* \"#utility.yul\":225:228   */\n      dup3\n        /* \"#utility.yul\":218:237   */\n      mstore\n        /* \"#utility.yul\":270:274   */\n      0x20\n        /* \"#utility.yul\":265:268   */\n      dup3\n        /* \"#utility.yul\":261:275   */\n      add\n        /* \"#utility.yul\":246:275   */\n      swap1\n      pop\n        /* \"#utility.yul\":112:281   */\n      swap3\n      swap2\n      pop\n      pop\n      jump\t// out\n        /* \"#utility.yul\":287:426   */\n    tag_145:\n        /* \"#utility.yul\":376:382   */\n      dup3\n        /* \"#utility.yul\":371:374   */\n      dup2\n        /* \"#utility.yul\":366:369   */\n      dup4\n        /* \"#utility.yul\":360:383   */\n      mcopy\n        /* \"#utility.yul\":417:418   */\n      0x00\n        /* \"#utility.yul\":408:414   */\n      dup4\n        /* \"#utility.yul\":403:406   */\n      dup4\n        /* \"#utility.yul\":399:415   */\n      add\n        /* \"#utility.yul\":392:419   */\n      mstore\n        /* \"#utility.yul\":287:426   */\n      pop\n      pop\n      pop\n      jump\t// out\n        /* \"#utility.yul\":432:534   */\n    tag_146:\n        /* \"#utility.yul\":473:479   */\n      0x00\n        /* \"#utility.yul\":524:526   */\n      0x1f\n        /* \"#utility.yul\":520:527   */\n      not\n        /* \"#utility.yul\":515:517   */\n      0x1f\n        /* \"#utility.yul\":508:513   */\n      dup4\n        /* \"#utility.yul\":504:518   */\n      add\n        /* \"#utility.yul\":500:528   */\n      and\n        /* \"#utility.yul\":490:528   */\n      swap1\n      pop\n        /* \"#utility.yul\":432:534   */\n      swap2\n      swap1\n      pop\n      jump\t// out\n        /* \"#utility.yul\":540:917   */\n    tag_147:\n        /* \"#utility.yul\":628:631   */\n      0x00\n        /* \"#utility.yul\":656:695   */\n      tag_175\n        /* \"#utility.yul\":689:694   */\n      dup3\n        /* \"#utility.yul\":656:695   */\n      tag_143\n      jump\t// in\n    tag_175:\n        /* \"#utility.yul\":711:782   */\n      tag_176\n        /* \"#utility.yul\":775:781   */\n      dup2\n        /* \"#utility.yul\":770:773   */\n      dup6\n        /* \"#utility.yul\":711:782   */\n      tag_144\n      jump\t// in\n    tag_176:\n        /* \"#utility.yul\":704:782   */\n      swap4\n      pop\n        /* \"#utility.yul\":791:856   */\n      tag_177\n        /* \"#utility.yul\":849:855   */\n      dup2\n        /* \"#utility.yul\":844:847   */\n      dup6\n        /* \"#utility.yul\":837:841   */\n      0x20\n        /* \"#utility.yul\":830:835   */\n      dup7\n        /* \"#utility.yul\":826:842   */\n      add\n        /* \"#utility.yul\":791:856   */\n      tag_145\n      jump\t// in\n    tag_177:\n        /* \"#utility.yul\":881:910   */\n      tag_178\n        /* \"#utility.yul\":903:909   */\n      dup2\n        /* \"#utility.yul\":881:910   */\n      tag_146\n      jump\t// in\n    tag_178:\n        /* \"#utility.yul\":876:879   */\n      dup5\n        /* \"#utility.yul\":872:911   */\n      add\n        /* \"#utility.yul\":865:911   */\n      swap2\n      pop\n        /* \"#utility.yul\":632:917   */\n      pop\n        /* \"#utility.yul\":540:917   */\n      swap3\n      swap2\n      pop\n      pop\n      jump\t// out\n        /* \"#utility.yul\":923:1236   */\n    tag_18:\n        /* \"#utility.yul\":1036:1040   */\n      0x00\n        /* \"#utility.yul\":1074:1076   */\n      0x20\n        /* \"#utility.yul\":1063:1072   */\n      dup3\n        /* \"#utility.yul\":1059:1077   */\n      add\n        /* \"#utility.yul\":1051:1077   */\n      swap1\n      pop\n        /* \"#utility.yul\":1123:1132   */\n      dup2\n        /* \"#utility.yul\":1117:1121   */\n      dup2\n        /* \"#utility.yul\":1113:1133   */\n      sub\n        /* \"#utility.yul\":1109:1110   */\n      0x00\n        /* \"#utility.yul\":1098:1107   */\n      dup4\n        /* \"#utility.yul\":1094:1111   */\n      add\n        /* \"#utility.yul\":1087:1134   */\n      mstore\n        /* \"#utility.yul\":1151:1229   */\n      tag_180\n        /* \"#utility.yul\":1224:1228   */\n      dup2\n        /* \"#utility.yul\":1215:1221   */\n      dup5\n        /* \"#utility.yul\":1151:1229   */\n      tag_147\n      jump\t// in\n    tag_180:\n        /* \"#utility.yul\":1143:1229   */\n      swap1\n      pop\n        /* \"#utility.yul\":923:1236   */\n      swap3\n      swap2\n      pop\n      pop\n      jump\t// out\n        /* \"#utility.yul\":1323:1440   */\n    tag_149:\n        /* \"#utility.yul\":1432:1433   */\n      0x00\n        /* \"#utility.yul\":1429:1430   */\n      dup1\n        /* \"#utility.yul\":1422:1434   */\n      revert\n        /* \"#utility.yul\":1569:1695   */\n    tag_151:\n        /* \"#utility.yul\":1606:1613   */\n      0x00\n        /* \"#utility.yul\":1646:1688   */\n      0xffffffffffffffffffffffffffffffffffffffff\n        /* \"#utility.yul\":1639:1644   */\n      dup3\n        /* \"#utility.yul\":1635:1689   */\n      and\n        /* \"#utility.yul\":1624:1689   */\n      swap1\n      pop\n        /* \"#utility.yul\":1569:1695   */\n      swap2\n      swap1\n      pop\n      jump\t// out\n        /* \"#utility.yul\":1701:1797   */\n    tag_152:\n        /* \"#utility.yul\":1738:1745   */\n      0x00\n        /* \"#utility.yul\":1767:1791   */\n      tag_186\n        /* \"#utility.yul\":1785:1790   */\n      dup3\n        /* \"#utility.yul\":1767:1791   */\n      tag_151\n      jump\t// in\n    tag_186:\n        /* \"#utility.yul\":1756:1791   */\n      swap1\n      pop\n        /* \"#utility.yul\":1701:1797   */\n      swap2\n      swap1\n      pop\n      jump\t// out\n        /* \"#utility.yul\":1803:1925   */\n    tag_153:\n        /* \"#utility.yul\":1876:1900   */\n      tag_188\n        /* \"#utility.yul\":1894:1899   */\n      dup2\n        /* \"#utility.yul\":1876:1900   */\n      tag_152\n      jump\t// in\n    tag_188:\n        /* \"#utility.yul\":1869:1874   */\n      dup2\n        /* \"#utility.yul\":1866:1901   */\n      eq\n        /* \"#utility.yul\":1856:1919   */\n      tag_189\n      jumpi\n        /* \"#utility.yul\":1915:1916   */\n      0x00\n        /* \"#utility.yul\":1912:1913   */\n      dup1\n        /* \"#utility.yul\":1905:1917   */\n      revert\n        /* \"#utility.yul\":1856:1919   */\n    tag_189:\n        /* \"#utility.yul\":1803:1925   */\n      pop\n      jump\t// out\n        /* \"#utility.yul\":1931:2070   */\n    tag_154:\n        /* \"#utility.yul\":1977:1982   */\n      0x00\n        /* \"#utility.yul\":2015:2021   */\n      dup2\n        /* \"#utility.yul\":2002:2022   */\n      calldataload\n        /* \"#utility.yul\":1993:2022   */\n      swap1\n      pop\n        /* \"#utility.yul\":2031:2064   */\n      tag_191\n        /* \"#utility.yul\":2058:2063   */\n      dup2\n        /* \"#utility.yul\":2031:2064   */\n      tag_153\n      jump\t// in\n    tag_191:\n        /* \"#utility.yul\":1931:2070   */\n      swap3\n      swap2\n      pop\n      pop\n      jump\t// out\n        /* \"#utility.yul\":2076:2153   */\n    tag_155:\n        /* \"#utility.yul\":2113:2120   */\n      0x00\n        /* \"#utility.yul\":2142:2147   */\n      dup2\n        /* \"#utility.yul\":2131:2147   */\n      swap1\n      pop\n        /* \"#utility.yul\":2076:2153   */\n      swap2\n      swap1\n      pop\n      jump\t// out\n        /* \"#utility.yul\":2159:2281   */\n    tag_156:\n        /* \"#utility.yul\":2232:2256   */\n      tag_194\n        /* \"#utility.yul\":2250:2255   */\n      dup2\n        /* \"#utility.yul\":2232:2256   */\n      tag_155\n      jump\t// in\n    tag_194:\n        /* \"#utility.yul\":2225:2230   */\n      dup2\n        /* \"#utility.yul\":2222:2257   */\n      eq\n        /* \"#utility.yul\":2212:2275   */\n      tag_195\n      jumpi\n        /* \"#utility.yul\":2271:2272   */\n      0x00\n        /* \"#utility.yul\":2268:2269   */\n      dup1\n        /* \"#utility.yul\":2261:2273   */\n      revert\n        /* \"#utility.yul\":2212:2275   */\n    tag_195:\n        /* \"#utility.yul\":2159:2281   */\n      pop\n      jump\t// out\n        /* \"#utility.yul\":2287:2426   */\n    tag_157:\n        /* \"#utility.yul\":2333:2338   */\n      0x00\n        /* \"#utility.yul\":2371:2377   */\n      dup2\n        /* \"#utility.yul\":2358:2378   */\n      calldataload\n        /* \"#utility.yul\":2349:2378   */\n      swap1\n      pop\n        /* \"#utility.yul\":2387:2420   */\n      tag_197\n        /* \"#utility.yul\":2414:2419   */\n      dup2\n        /* \"#utility.yul\":2387:2420   */\n      tag_156\n      jump\t// in\n    tag_197:\n        /* \"#utility.yul\":2287:2426   */\n      swap3\n      swap2\n      pop\n      pop\n      jump\t// out\n        /* \"#utility.yul\":2432:2906   */\n    tag_21:\n        /* \"#utility.yul\":2500:2506   */\n      0x00\n        /* \"#utility.yul\":2508:2514   */\n      dup1\n        /* \"#utility.yul\":2557:2559   */\n      0x40\n        /* \"#utility.yul\":2545:2554   */\n      dup4\n        /* \"#utility.yul\":2536:2543   */\n      dup6\n        /* \"#utility.yul\":2532:2555   */\n      sub\n        /* \"#utility.yul\":2528:2560   */\n      slt\n        /* \"#utility.yul\":2525:2644   */\n      iszero\n      tag_199\n      jumpi\n        /* \"#utility.yul\":2563:2642   */\n      tag_200\n      tag_149\n      jump\t// in\n    tag_200:\n        /* \"#utility.yul\":2525:2644   */\n    tag_199:\n        /* \"#utility.yul\":2683:2684   */\n      0x00\n        /* \"#utility.yul\":2708:2761   */\n      tag_201\n        /* \"#utility.yul\":2753:2760   */\n      dup6\n        /* \"#utility.yul\":2744:2750   */\n      dup3\n        /* \"#utility.yul\":2733:2742   */\n      dup7\n        /* \"#utility.yul\":2729:2751   */\n      add\n        /* \"#utility.yul\":2708:2761   */\n      tag_154\n      jump\t// in\n    tag_201:\n        /* \"#utility.yul\":2698:2761   */\n      swap3\n      pop\n        /* \"#utility.yul\":2654:2771   */\n      pop\n        /* \"#utility.yul\":2810:2812   */\n      0x20\n        /* \"#utility.yul\":2836:2889   */\n      tag_202\n        /* \"#utility.yul\":2881:2888   */\n      dup6\n        /* \"#utility.yul\":2872:2878   */\n      dup3\n        /* \"#utility.yul\":2861:2870   */\n      dup7\n        /* \"#utility.yul\":2857:2879   */\n      add\n        /* \"#utility.yul\":2836:2889   */\n      tag_157\n      jump\t// in\n    tag_202:\n        /* \"#utility.yul\":2826:2889   */\n      swap2\n      pop\n        /* \"#utility.yul\":2781:2899   */\n      pop\n        /* \"#utility.yul\":2432:2906   */\n      swap3\n      pop\n      swap3\n      swap1\n      pop\n      jump\t// out\n        /* \"#utility.yul\":2912:3002   */\n    tag_158:\n        /* \"#utility.yul\":2946:2953   */\n      0x00\n        /* \"#utility.yul\":2989:2994   */\n      dup2\n        /* \"#utility.yul\":2982:2995   */\n      iszero\n        /* \"#utility.yul\":2975:2996   */\n      iszero\n        /* \"#utility.yul\":2964:2996   */\n      swap1\n      pop\n        /* \"#utility.yul\":2912:3002   */\n      swap2\n      swap1\n      pop\n      jump\t// out\n        /* \"#utility.yul\":3008:3117   */\n    tag_159:\n        /* \"#utility.yul\":3089:3110   */\n      tag_205\n        /* \"#utility.yul\":3104:3109   */\n      dup2\n        /* \"#utility.yul\":3089:3110   */\n      tag_158\n      jump\t// in\n    tag_205:\n        /* \"#utility.yul\":3084:3087   */\n      dup3\n        /* \"#utility.yul\":3077:3111   */\n      mstore\n        /* \"#utility.yul\":3008:3117   */\n      pop\n      pop\n      jump\t// out\n        /* \"#utility.yul\":3123:3333   */\n    tag_24:\n        /* \"#utility.yul\":3210:3214   */\n      0x00\n        /* \"#utility.yul\":3248:3250   */\n      0x20\n        /* \"#utility.yul\":3237:3246   */\n      dup3\n        /* \"#utility.yul\":3233:3251   */\n      add\n        /* \"#utility.yul\":3225:3251   */\n      swap1\n      pop\n        /* \"#utility.yul\":3261:3326   */\n      tag_207\n        /* \"#utility.yul\":3323:3324   */\n      0x00\n        /* \"#utility.yul\":3312:3321   */\n      dup4\n        /* \"#utility.yul\":3308:3325   */\n      add\n        /* \"#utility.yul\":3299:3305   */\n      dup5\n        /* \"#utility.yul\":3261:3326   */\n      tag_159\n      jump\t// in\n    tag_207:\n        /* \"#utility.yul\":3123:3333   */\n      swap3\n      swap2\n      pop\n      pop\n      jump\t// out\n        /* \"#utility.yul\":3339:3457   */\n    tag_160:\n        /* \"#utility.yul\":3426:3450   */\n      tag_209\n        /* \"#utility.yul\":3444:3449   */\n      dup2\n        /* \"#utility.yul\":3426:3450   */\n      tag_155\n      jump\t// in\n    tag_209:\n        /* \"#utility.yul\":3421:3424   */\n      dup3\n        /* \"#utility.yul\":3414:3451   */\n      mstore\n        /* \"#utility.yul\":3339:3457   */\n      pop\n      pop\n      jump\t// out\n        /* \"#utility.yul\":3463:3685   */\n    tag_28:\n        /* \"#utility.yul\":3556:3560   */\n      0x00\n        /* \"#utility.yul\":3594:3596   */\n      0x20\n        /* \"#utility.yul\":3583:3592   */\n      dup3\n        /* \"#utility.yul\":3579:3597   */\n      add\n        /* \"#utility.yul\":3571:3597   */\n      swap1\n      pop\n        /* \"#utility.yul\":3607:3678   */\n      tag_211\n        /* \"#utility.yul\":3675:3676   */\n      0x00\n        /* \"#utility.yul\":3664:3673   */\n      dup4\n        /* \"#utility.yul\":3660:3677   */\n      add\n        /* \"#utility.yul\":3651:3657   */\n      dup5\n        /* \"#utility.yul\":3607:3678   */\n      tag_160\n      jump\t// in\n    tag_211:\n        /* \"#utility.yul\":3463:3685   */\n      swap3\n      swap2\n      pop\n      pop\n      jump\t// out\n        /* \"#utility.yul\":3691:4310   */\n    tag_31:\n        /* \"#utility.yul\":3768:3774   */\n      0x00\n        /* \"#utility.yul\":3776:3782   */\n      dup1\n        /* \"#utility.yul\":3784:3790   */\n      0x00\n        /* \"#utility.yul\":3833:3835   */\n      0x60\n        /* \"#utility.yul\":3821:3830   */\n      dup5\n        /* \"#utility.yul\":3812:3819   */\n      dup7\n        /* \"#utility.yul\":3808:3831   */\n      sub\n        /* \"#utility.yul\":3804:3836   */\n      slt\n        /* \"#utility.yul\":3801:3920   */\n      iszero\n      tag_213\n      jumpi\n        /* \"#utility.yul\":3839:3918   */\n      tag_214\n      tag_149\n      jump\t// in\n    tag_214:\n        /* \"#utility.yul\":3801:3920   */\n    tag_213:\n        /* \"#utility.yul\":3959:3960   */\n      0x00\n        /* \"#utility.yul\":3984:4037   */\n      tag_215\n        /* \"#utility.yul\":4029:4036   */\n      dup7\n        /* \"#utility.yul\":4020:4026   */\n      dup3\n        /* \"#utility.yul\":4009:4018   */\n      dup8\n        /* \"#utility.yul\":4005:4027   */\n      add\n        /* \"#utility.yul\":3984:4037   */\n      tag_154\n      jump\t// in\n    tag_215:\n        /* \"#utility.yul\":3974:4037   */\n      swap4\n      pop\n        /* \"#utility.yul\":3930:4047   */\n      pop\n        /* \"#utility.yul\":4086:4088   */\n      0x20\n        /* \"#utility.yul\":4112:4165   */\n      tag_216\n        /* \"#utility.yul\":4157:4164   */\n      dup7\n        /* \"#utility.yul\":4148:4154   */\n      dup3\n        /* \"#utility.yul\":4137:4146   */\n      dup8\n        /* \"#utility.yul\":4133:4155   */\n      add\n        /* \"#utility.yul\":4112:4165   */\n      tag_154\n      jump\t// in\n    tag_216:\n        /* \"#utility.yul\":4102:4165   */\n      swap3\n      pop\n        /* \"#utility.yul\":4057:4175   */\n      pop\n        /* \"#utility.yul\":4214:4216   */\n      0x40\n        /* \"#utility.yul\":4240:4293   */\n      tag_217\n        /* \"#utility.yul\":4285:4292   */\n      dup7\n        /* \"#utility.yul\":4276:4282   */\n      dup3\n        /* \"#utility.yul\":4265:4274   */\n      dup8\n        /* \"#utility.yul\":4261:4283   */\n      add\n        /* \"#utility.yul\":4240:4293   */\n      tag_157\n      jump\t// in\n    tag_217:\n        /* \"#utility.yul\":4230:4293   */\n      swap2\n      pop\n        /* \"#utility.yul\":4185:4303   */\n      pop\n        /* \"#utility.yul\":3691:4310   */\n      swap3\n      pop\n      swap3\n      pop\n      swap3\n      jump\t// out\n        /* \"#utility.yul\":4316:4402   */\n    tag_161:\n        /* \"#utility.yul\":4351:4358   */\n      0x00\n        /* \"#utility.yul\":4391:4395   */\n      0xff\n        /* \"#utility.yul\":4384:4389   */\n      dup3\n        /* \"#utility.yul\":4380:4396   */\n      and\n        /* \"#utility.yul\":4369:4396   */\n      swap1\n      pop\n        /* \"#utility.yul\":4316:4402   */\n      swap2\n      swap1\n      pop\n      jump\t// out\n        /* \"#utility.yul\":4408:4520   */\n    tag_162:\n        /* \"#utility.yul\":4491:4513   */\n      tag_220\n        /* \"#utility.yul\":4507:4512   */\n      dup2\n        /* \"#utility.yul\":4491:4513   */\n      tag_161\n      jump\t// in\n    tag_220:\n        /* \"#utility.yul\":4486:4489   */\n      dup3\n        /* \"#utility.yul\":4479:4514   */\n      mstore\n        /* \"#utility.yul\":4408:4520   */\n      pop\n      pop\n      jump\t// out\n        /* \"#utility.yul\":4526:4740   */\n    tag_37:\n        /* \"#utility.yul\":4615:4619   */\n      0x00\n        /* \"#utility.yul\":4653:4655   */\n      0x20\n        /* \"#utility.yul\":4642:4651   */\n      dup3\n        /* \"#utility.yul\":4638:4656   */\n      add\n        /* \"#utility.yul\":4630:4656   */\n      swap1\n      pop\n        /* \"#utility.yul\":4666:4733   */\n      tag_222\n        /* \"#utility.yul\":4730:4731   */\n      0x00\n        /* \"#utility.yul\":4719:4728   */\n      dup4\n        /* \"#utility.yul\":4715:4732   */\n      add\n        /* \"#utility.yul\":4706:4712   */\n      dup5\n        /* \"#utility.yul\":4666:4733   */\n      tag_162\n      jump\t// in\n    tag_222:\n        /* \"#utility.yul\":4526:4740   */\n      swap3\n      swap2\n      pop\n      pop\n      jump\t// out\n        /* \"#utility.yul\":4746:5075   */\n    tag_40:\n        /* \"#utility.yul\":4805:4811   */\n      0x00\n        /* \"#utility.yul\":4854:4856   */\n      0x20\n        /* \"#utility.yul\":4842:4851   */\n      dup3\n        /* \"#utility.yul\":4833:4840   */\n      dup5\n        /* \"#utility.yul\":4829:4852   */\n      sub\n        /* \"#utility.yul\":4825:4857   */\n      slt\n        /* \"#utility.yul\":4822:4941   */\n      iszero\n      tag_224\n      jumpi\n        /* \"#utility.yul\":4860:4939   */\n      tag_225\n      tag_149\n      jump\t// in\n    tag_225:\n        /* \"#utility.yul\":4822:4941   */\n    tag_224:\n        /* \"#utility.yul\":4980:4981   */\n      0x00\n        /* \"#utility.yul\":5005:5058   */\n      tag_226\n        /* \"#utility.yul\":5050:5057   */\n      dup5\n        /* \"#utility.yul\":5041:5047   */\n      dup3\n        /* \"#utility.yul\":5030:5039   */\n      dup6\n        /* \"#utility.yul\":5026:5048   */\n      add\n        /* \"#utility.yul\":5005:5058   */\n      tag_157\n      jump\t// in\n    tag_226:\n        /* \"#utility.yul\":4995:5058   */\n      swap2\n      pop\n        /* \"#utility.yul\":4951:5068   */\n      pop\n        /* \"#utility.yul\":4746:5075   */\n      swap3\n      swap2\n      pop\n      pop\n      jump\t// out\n        /* \"#utility.yul\":5081:5410   */\n    tag_45:\n        /* \"#utility.yul\":5140:5146   */\n      0x00\n        /* \"#utility.yul\":5189:5191   */\n      0x20\n        /* \"#utility.yul\":5177:5186   */\n      dup3\n        /* \"#utility.yul\":5168:5175   */\n      dup5\n        /* \"#utility.yul\":5164:5187   */\n      sub\n        /* \"#utility.yul\":5160:5192   */\n      slt\n        /* \"#utility.yul\":5157:5276   */\n      iszero\n      tag_228\n      jumpi\n        /* \"#utility.yul\":5195:5274   */\n      tag_229\n      tag_149\n      jump\t// in\n    tag_229:\n        /* \"#utility.yul\":5157:5276   */\n    tag_228:\n        /* \"#utility.yul\":5315:5316   */\n      0x00\n        /* \"#utility.yul\":5340:5393   */\n      tag_230\n        /* \"#utility.yul\":5385:5392   */\n      dup5\n        /* \"#utility.yul\":5376:5382   */\n      dup3\n        /* \"#utility.yul\":5365:5374   */\n      dup6\n        /* \"#utility.yul\":5361:5383   */\n      add\n        /* \"#utility.yul\":5340:5393   */\n      tag_154\n      jump\t// in\n    tag_230:\n        /* \"#utility.yul\":5330:5393   */\n      swap2\n      pop\n        /* \"#utility.yul\":5286:5403   */\n      pop\n        /* \"#utility.yul\":5081:5410   */\n      swap3\n      swap2\n      pop\n      pop\n      jump\t// out\n        /* \"#utility.yul\":5416:5890   */\n    tag_57:\n        /* \"#utility.yul\":5484:5490   */\n      0x00\n        /* \"#utility.yul\":5492:5498   */\n      dup1\n        /* \"#utility.yul\":5541:5543   */\n      0x40\n        /* \"#utility.yul\":5529:5538   */\n      dup4\n        /* \"#utility.yul\":5520:5527   */\n      dup6\n        /* \"#utility.yul\":5516:5539   */\n      sub\n        /* \"#utility.yul\":5512:5544   */\n      slt\n        /* \"#utility.yul\":5509:5628   */\n      iszero\n      tag_232\n      jumpi\n        /* \"#utility.yul\":5547:5626   */\n      tag_233\n      tag_149\n      jump\t// in\n    tag_233:\n        /* \"#utility.yul\":5509:5628   */\n    tag_232:\n        /* \"#utility.yul\":5667:5668   */\n      0x00\n        /* \"#utility.yul\":5692:5745   */\n      tag_234\n        /* \"#utility.yul\":5737:5744   */\n      dup6\n        /* \"#utility.yul\":5728:5734   */\n      dup3\n        /* \"#utility.yul\":5717:5726   */\n      dup7\n        /* \"#utility.yul\":5713:5735   */\n      add\n        /* \"#utility.yul\":5692:5745   */\n      tag_154\n      jump\t// in\n    tag_234:\n        /* \"#utility.yul\":5682:5745   */\n      swap3\n      pop\n        /* \"#utility.yul\":5638:5755   */\n      pop\n        /* \"#utility.yul\":5794:5796   */\n      0x20\n        /* \"#utility.yul\":5820:5873   */\n      tag_235\n        /* \"#utility.yul\":5865:5872   */\n      dup6\n        /* \"#utility.yul\":5856:5862   */\n      dup3\n        /* \"#utility.yul\":5845:5854   */\n      dup7\n        /* \"#utility.yul\":5841:5863   */\n      add\n        /* \"#utility.yul\":5820:5873   */\n      tag_154\n      jump\t// in\n    tag_235:\n        /* \"#utility.yul\":5810:5873   */\n      swap2\n      pop\n        /* \"#utility.yul\":5765:5883   */\n      pop\n        /* \"#utility.yul\":5416:5890   */\n      swap3\n      pop\n      swap3\n      swap1\n      pop\n      jump\t// out\n        /* \"#utility.yul\":5896:6076   */\n    tag_163:\n        /* \"#utility.yul\":5944:6021   */\n      0x4e487b7100000000000000000000000000000000000000000000000000000000\n        /* \"#utility.yul\":5941:5942   */\n      0x00\n        /* \"#utility.yul\":5934:6022   */\n      mstore\n        /* \"#utility.yul\":6041:6045   */\n      0x22\n        /* \"#utility.yul\":6038:6039   */\n      0x04\n        /* \"#utility.yul\":6031:6046   */\n      mstore\n        /* \"#utility.yul\":6065:6069   */\n      0x24\n        /* \"#utility.yul\":6062:6063   */\n      0x00\n        /* \"#utility.yul\":6055:6070   */\n      revert\n        /* \"#utility.yul\":6082:6402   */\n    tag_65:\n        /* \"#utility.yul\":6126:6132   */\n      0x00\n        /* \"#utility.yul\":6163:6164   */\n      0x02\n        /* \"#utility.yul\":6157:6161   */\n      dup3\n        /* \"#utility.yul\":6153:6165   */\n      div\n        /* \"#utility.yul\":6143:6165   */\n      swap1\n      pop\n        /* \"#utility.yul\":6210:6211   */\n      0x01\n        /* \"#utility.yul\":6204:6208   */\n      dup3\n        /* \"#utility.yul\":6200:6212   */\n      and\n        /* \"#utility.yul\":6231:6249   */\n      dup1\n        /* \"#utility.yul\":6221:6302   */\n      tag_238\n      jumpi\n        /* \"#utility.yul\":6287:6291   */\n      0x7f\n        /* \"#utility.yul\":6279:6285   */\n      dup3\n        /* \"#utility.yul\":6275:6292   */\n      and\n        /* \"#utility.yul\":6265:6292   */\n      swap2\n      pop\n        /* \"#utility.yul\":6221:6302   */\n    tag_238:\n        /* \"#utility.yul\":6349:6351   */\n      0x20\n        /* \"#utility.yul\":6341:6347   */\n      dup3\n        /* \"#utility.yul\":6338:6352   */\n      lt\n        /* \"#utility.yul\":6318:6336   */\n      dup2\n        /* \"#utility.yul\":6315:6353   */\n      sub\n        /* \"#utility.yul\":6312:6396   */\n      tag_239\n      jumpi\n        /* \"#utility.yul\":6368:6386   */\n      tag_240\n      tag_163\n      jump\t// in\n    tag_240:\n        /* \"#utility.yul\":6312:6396   */\n    tag_239:\n        /* \"#utility.yul\":6133:6402   */\n      pop\n        /* \"#utility.yul\":6082:6402   */\n      swap2\n      swap1\n      pop\n      jump\t// out\n        /* \"#utility.yul\":6408:6570   */\n    tag_164:\n        /* \"#utility.yul\":6548:6562   */\n      0x4e6f7420616e206f776e65720000000000000000000000000000000000000000\n        /* \"#utility.yul\":6544:6545   */\n      0x00\n        /* \"#utility.yul\":6536:6542   */\n      dup3\n        /* \"#utility.yul\":6532:6546   */\n      add\n        /* \"#utility.yul\":6525:6563   */\n      mstore\n        /* \"#utility.yul\":6408:6570   */\n      pop\n      jump\t// out\n        /* \"#utility.yul\":6576:6942   */\n    tag_165:\n        /* \"#utility.yul\":6718:6721   */\n      0x00\n        /* \"#utility.yul\":6739:6806   */\n      tag_243\n        /* \"#utility.yul\":6803:6805   */\n      0x0c\n        /* \"#utility.yul\":6798:6801   */\n      dup4\n        /* \"#utility.yul\":6739:6806   */\n      tag_144\n      jump\t// in\n    tag_243:\n        /* \"#utility.yul\":6732:6806   */\n      swap2\n      pop\n        /* \"#utility.yul\":6815:6908   */\n      tag_244\n        /* \"#utility.yul\":6904:6907   */\n      dup3\n        /* \"#utility.yul\":6815:6908   */\n      tag_164\n      jump\t// in\n    tag_244:\n        /* \"#utility.yul\":6933:6935   */\n      0x20\n        /* \"#utility.yul\":6928:6931   */\n      dup3\n        /* \"#utility.yul\":6924:6936   */\n      add\n        /* \"#utility.yul\":6917:6936   */\n      swap1\n      pop\n        /* \"#utility.yul\":6576:6942   */\n      swap2\n      swap1\n      pop\n      jump\t// out\n        /* \"#utility.yul\":6948:7367   */\n    tag_87:\n        /* \"#utility.yul\":7114:7118   */\n      0x00\n        /* \"#utility.yul\":7152:7154   */\n      0x20\n        /* \"#utility.yul\":7141:7150   */\n      dup3\n        /* \"#utility.yul\":7137:7155   */\n      add\n        /* \"#utility.yul\":7129:7155   */\n      swap1\n      pop\n        /* \"#utility.yul\":7201:7210   */\n      dup2\n        /* \"#utility.yul\":7195:7199   */\n      dup2\n        /* \"#utility.yul\":7191:7211   */\n      sub\n        /* \"#utility.yul\":7187:7188   */\n      0x00\n        /* \"#utility.yul\":7176:7185   */\n      dup4\n        /* \"#utility.yul\":7172:7189   */\n      add\n        /* \"#utility.yul\":7165:7212   */\n      mstore\n        /* \"#utility.yul\":7229:7360   */\n      tag_246\n        /* \"#utility.yul\":7355:7359   */\n      dup2\n        /* \"#utility.yul\":7229:7360   */\n      tag_165\n      jump\t// in\n    tag_246:\n        /* \"#utility.yul\":7221:7360   */\n      swap1\n      pop\n        /* \"#utility.yul\":6948:7367   */\n      swap2\n      swap1\n      pop\n      jump\t// out\n        /* \"#utility.yul\":7373:7553   */\n    tag_166:\n        /* \"#utility.yul\":7421:7498   */\n      0x4e487b7100000000000000000000000000000000000000000000000000000000\n        /* \"#utility.yul\":7418:7419   */\n      0x00\n        /* \"#utility.yul\":7411:7499   */\n      mstore\n        /* \"#utility.yul\":7518:7522   */\n      0x11\n        /* \"#utility.yul\":7515:7516   */\n      0x04\n        /* \"#utility.yul\":7508:7523   */\n      mstore\n        /* \"#utility.yul\":7542:7546   */\n      0x24\n        /* \"#utility.yul\":7539:7540   */\n      0x00\n        /* \"#utility.yul\":7532:7547   */\n      revert\n        /* \"#utility.yul\":7559:7969   */\n    tag_99:\n        /* \"#utility.yul\":7599:7606   */\n      0x00\n        /* \"#utility.yul\":7622:7642   */\n      tag_249\n        /* \"#utility.yul\":7640:7641   */\n      dup3\n        /* \"#utility.yul\":7622:7642   */\n      tag_155\n      jump\t// in\n    tag_249:\n        /* \"#utility.yul\":7617:7642   */\n      swap2\n      pop\n        /* \"#utility.yul\":7656:7676   */\n      tag_250\n        /* \"#utility.yul\":7674:7675   */\n      dup4\n        /* \"#utility.yul\":7656:7676   */\n      tag_155\n      jump\t// in\n    tag_250:\n        /* \"#utility.yul\":7651:7676   */\n      swap3\n      pop\n        /* \"#utility.yul\":7711:7712   */\n      dup3\n        /* \"#utility.yul\":7708:7709   */\n      dup3\n        /* \"#utility.yul\":7704:7713   */\n      mul\n        /* \"#utility.yul\":7733:7763   */\n      tag_251\n        /* \"#utility.yul\":7751:7762   */\n      dup2\n        /* \"#utility.yul\":7733:7763   */\n      tag_155\n      jump\t// in\n    tag_251:\n        /* \"#utility.yul\":7722:7763   */\n      swap2\n      pop\n        /* \"#utility.yul\":7912:7913   */\n      dup3\n        /* \"#utility.yul\":7903:7910   */\n      dup3\n        /* \"#utility.yul\":7899:7914   */\n      div\n        /* \"#utility.yul\":7896:7897   */\n      dup5\n        /* \"#utility.yul\":7893:7915   */\n      eq\n        /* \"#utility.yul\":7873:7874   */\n      dup4\n        /* \"#utility.yul\":7866:7875   */\n      iszero\n        /* \"#utility.yul\":7846:7929   */\n      or\n        /* \"#utility.yul\":7823:7962   */\n      tag_252\n      jumpi\n        /* \"#utility.yul\":7942:7960   */\n      tag_253\n      tag_166\n      jump\t// in\n    tag_253:\n        /* \"#utility.yul\":7823:7962   */\n    tag_252:\n        /* \"#utility.yul\":7607:7969   */\n      pop\n        /* \"#utility.yul\":7559:7969   */\n      swap3\n      swap2\n      pop\n      pop\n      jump\t// out\n        /* \"#utility.yul\":7975:8155   */\n    tag_167:\n        /* \"#utility.yul\":8023:8100   */\n      0x4e487b7100000000000000000000000000000000000000000000000000000000\n        /* \"#utility.yul\":8020:8021   */\n      0x00\n        /* \"#utility.yul\":8013:8101   */\n      mstore\n        /* \"#utility.yul\":8120:8124   */\n      0x12\n        /* \"#utility.yul\":8117:8118   */\n      0x04\n        /* \"#utility.yul\":8110:8125   */\n      mstore\n        /* \"#utility.yul\":8144:8148   */\n      0x24\n        /* \"#utility.yul\":8141:8142   */\n      0x00\n        /* \"#utility.yul\":8134:8149   */\n      revert\n        /* \"#utility.yul\":8161:8346   */\n    tag_101:\n        /* \"#utility.yul\":8201:8202   */\n      0x00\n        /* \"#utility.yul\":8218:8238   */\n      tag_256\n        /* \"#utility.yul\":8236:8237   */\n      dup3\n        /* \"#utility.yul\":8218:8238   */\n      tag_155\n      jump\t// in\n    tag_256:\n        /* \"#utility.yul\":8213:8238   */\n      swap2\n      pop\n        /* \"#utility.yul\":8252:8272   */\n      tag_257\n        /* \"#utility.yul\":8270:8271   */\n      dup4\n        /* \"#utility.yul\":8252:8272   */\n      tag_155\n      jump\t// in\n    tag_257:\n        /* \"#utility.yul\":8247:8272   */\n      swap3\n      pop\n        /* \"#utility.yul\":8291:8292   */\n      dup3\n        /* \"#utility.yul\":8281:8316   */\n      tag_258\n      jumpi\n        /* \"#utility.yul\":8296:8314   */\n      tag_259\n      tag_167\n      jump\t// in\n    tag_259:\n        /* \"#utility.yul\":8281:8316   */\n    tag_258:\n        /* \"#utility.yul\":8338:8339   */\n      dup3\n        /* \"#utility.yul\":8335:8336   */\n      dup3\n        /* \"#utility.yul\":8331:8340   */\n      div\n        /* \"#utility.yul\":8326:8340   */\n      swap1\n      pop\n        /* \"#utility.yul\":8161:8346   */\n      swap3\n      swap2\n      pop\n      pop\n      jump\t// out\n        /* \"#utility.yul\":8352:8546   */\n    tag_103:\n        /* \"#utility.yul\":8392:8396   */\n      0x00\n        /* \"#utility.yul\":8412:8432   */\n      tag_261\n        /* \"#utility.yul\":8430:8431   */\n      dup3\n        /* \"#utility.yul\":8412:8432   */\n      tag_155\n      jump\t// in\n    tag_261:\n        /* \"#utility.yul\":8407:8432   */\n      swap2\n      pop\n        /* \"#utility.yul\":8446:8466   */\n      tag_262\n        /* \"#utility.yul\":8464:8465   */\n      dup4\n        /* \"#utility.yul\":8446:8466   */\n      tag_155\n      jump\t// in\n    tag_262:\n        /* \"#utility.yul\":8441:8466   */\n      swap3\n      pop\n        /* \"#utility.yul\":8490:8491   */\n      dup3\n        /* \"#utility.yul\":8487:8488   */\n      dup3\n        /* \"#utility.yul\":8483:8492   */\n      sub\n        /* \"#utility.yul\":8475:8492   */\n      swap1\n      pop\n        /* \"#utility.yul\":8514:8515   */\n      dup2\n        /* \"#utility.yul\":8508:8512   */\n      dup2\n        /* \"#utility.yul\":8505:8516   */\n      gt\n        /* \"#utility.yul\":8502:8539   */\n      iszero\n      tag_263\n      jumpi\n        /* \"#utility.yul\":8519:8537   */\n      tag_264\n      tag_166\n      jump\t// in\n    tag_264:\n        /* \"#utility.yul\":8502:8539   */\n    tag_263:\n        /* \"#utility.yul\":8352:8546   */\n      swap3\n      swap2\n      pop\n      pop\n      jump\t// out\n        /* \"#utility.yul\":8552:8670   */\n    tag_168:\n        /* \"#utility.yul\":8639:8663   */\n      tag_266\n        /* \"#utility.yul\":8657:8662   */\n      dup2\n        /* \"#utility.yul\":8639:8663   */\n      tag_152\n      jump\t// in\n    tag_266:\n        /* \"#utility.yul\":8634:8637   */\n      dup3\n        /* \"#utility.yul\":8627:8664   */\n      mstore\n        /* \"#utility.yul\":8552:8670   */\n      pop\n      pop\n      jump\t// out\n        /* \"#utility.yul\":8676:9118   */\n    tag_116:\n        /* \"#utility.yul\":8825:8829   */\n      0x00\n        /* \"#utility.yul\":8863:8865   */\n      0x60\n        /* \"#utility.yul\":8852:8861   */\n      dup3\n        /* \"#utility.yul\":8848:8866   */\n      add\n        /* \"#utility.yul\":8840:8866   */\n      swap1\n      pop\n        /* \"#utility.yul\":8876:8947   */\n      tag_268\n        /* \"#utility.yul\":8944:8945   */\n      0x00\n        /* \"#utility.yul\":8933:8942   */\n      dup4\n        /* \"#utility.yul\":8929:8946   */\n      add\n        /* \"#utility.yul\":8920:8926   */\n      dup7\n        /* \"#utility.yul\":8876:8947   */\n      tag_168\n      jump\t// in\n    tag_268:\n        /* \"#utility.yul\":8957:9029   */\n      tag_269\n        /* \"#utility.yul\":9025:9027   */\n      0x20\n        /* \"#utility.yul\":9014:9023   */\n      dup4\n        /* \"#utility.yul\":9010:9028   */\n      add\n        /* \"#utility.yul\":9001:9007   */\n      dup6\n        /* \"#utility.yul\":8957:9029   */\n      tag_160\n      jump\t// in\n    tag_269:\n        /* \"#utility.yul\":9039:9111   */\n      tag_270\n        /* \"#utility.yul\":9107:9109   */\n      0x40\n        /* \"#utility.yul\":9096:9105   */\n      dup4\n        /* \"#utility.yul\":9092:9110   */\n      add\n        /* \"#utility.yul\":9083:9089   */\n      dup5\n        /* \"#utility.yul\":9039:9111   */\n      tag_160\n      jump\t// in\n    tag_270:\n        /* \"#utility.yul\":8676:9118   */\n      swap5\n      swap4\n      pop\n      pop\n      pop\n      pop\n      jump\t// out\n        /* \"#utility.yul\":9124:9346   */\n    tag_121:\n        /* \"#utility.yul\":9217:9221   */\n      0x00\n        /* \"#utility.yul\":9255:9257   */\n      0x20\n        /* \"#utility.yul\":9244:9253   */\n      dup3\n        /* \"#utility.yul\":9240:9258   */\n      add\n        /* \"#utility.yul\":9232:9258   */\n      swap1\n      pop\n        /* \"#utility.yul\":9268:9339   */\n      tag_272\n        /* \"#utility.yul\":9336:9337   */\n      0x00\n        /* \"#utility.yul\":9325:9334   */\n      dup4\n        /* \"#utility.yul\":9321:9338   */\n      add\n        /* \"#utility.yul\":9312:9318   */\n      dup5\n        /* \"#utility.yul\":9268:9339   */\n      tag_168\n      jump\t// in\n    tag_272:\n        /* \"#utility.yul\":9124:9346   */\n      swap3\n      swap2\n      pop\n      pop\n      jump\t// out\n        /* \"#utility.yul\":9352:9543   */\n    tag_136:\n        /* \"#utility.yul\":9392:9395   */\n      0x00\n        /* \"#utility.yul\":9411:9431   */\n      tag_274\n        /* \"#utility.yul\":9429:9430   */\n      dup3\n        /* \"#utility.yul\":9411:9431   */\n      tag_155\n      jump\t// in\n    tag_274:\n        /* \"#utility.yul\":9406:9431   */\n      swap2\n      pop\n        /* \"#utility.yul\":9445:9465   */\n      tag_275\n        /* \"#utility.yul\":9463:9464   */\n      dup4\n        /* \"#utility.yul\":9445:9465   */\n      tag_155\n      jump\t// in\n    tag_275:\n        /* \"#utility.yul\":9440:9465   */\n      swap3\n      pop\n        /* \"#utility.yul\":9488:9489   */\n      dup3\n        /* \"#utility.yul\":9485:9486   */\n      dup3\n        /* \"#utility.yul\":9481:9490   */\n      add\n        /* \"#utility.yul\":9474:9490   */\n      swap1\n      pop\n        /* \"#utility.yul\":9509:9512   */\n      dup1\n        /* \"#utility.yul\":9506:9507   */\n      dup3\n        /* \"#utility.yul\":9503:9513   */\n      gt\n        /* \"#utility.yul\":9500:9536   */\n      iszero\n      tag_276\n      jumpi\n        /* \"#utility.yul\":9516:9534   */\n      tag_277\n      tag_166\n      jump\t// in\n    tag_277:\n        /* \"#utility.yul\":9500:9536   */\n    tag_276:\n        /* \"#utility.yul\":9352:9543   */\n      swap3\n      swap2\n      pop\n      pop\n      jump\t// out\n\n    auxdata: 0xa2646970667358221220d1df9255c565cb9400e0b1d74804658d476f636dda9b77c3a7340335483335fd64736f6c634300081a0033\n}\n",
				"bytecode": {
					"linkReferences": {},
					"object": "6080604052600a6005553360065f6101000a81548173ffffffffffffffffffffffffffffffffffffffff021916908373ffffffffffffffffffffffffffffffffffffffff160217905550348015610054575f80fd5b50604051611ad9380380611ad983398181016040528101906100769190610444565b6040518060400160405280600981526020017f556d6572546f6b656e00000000000000000000000000000000000000000000008152506040518060400160405280600381526020017f55544b000000000000000000000000000000000000000000000000000000000081525081600390816100f191906106a9565b50806004908161010191906106a9565b50505061013a8161011661014060201b60201c565b600a61012291906108e0565b61271061012f919061092a565b61014860201b60201c565b50610a23565b5f6012905090565b5f73ffffffffffffffffffffffffffffffffffffffff168273ffffffffffffffffffffffffffffffffffffffff16036101b8575f6040517fec442f050000000000000000000000000000000000000000000000000000000081526004016101af919061097a565b60405180910390fd5b6101c95f83836101cd60201b60201c565b5050565b5f73ffffffffffffffffffffffffffffffffffffffff168373ffffffffffffffffffffffffffffffffffffffff160361021d578060025f8282546102119190610993565b925050819055506102eb565b5f805f8573ffffffffffffffffffffffffffffffffffffffff1673ffffffffffffffffffffffffffffffffffffffff1681526020019081526020015f20549050818110156102a6578381836040517fe450d38c00000000000000000000000000000000000000000000000000000000815260040161029d939291906109d5565b60405180910390fd5b8181035f808673ffffffffffffffffffffffffffffffffffffffff1673ffffffffffffffffffffffffffffffffffffffff1681526020019081526020015f2081905550505b5f73ffffffffffffffffffffffffffffffffffffffff168273ffffffffffffffffffffffffffffffffffffffff1603610332578060025f828254039250508190555061037c565b805f808473ffffffffffffffffffffffffffffffffffffffff1673ffffffffffffffffffffffffffffffffffffffff1681526020019081526020015f205f82825401925050819055505b8173ffffffffffffffffffffffffffffffffffffffff168373ffffffffffffffffffffffffffffffffffffffff167fddf252ad1be2c89b69c2b068fc378daa952ba7f163c4a11628f55a4df523b3ef836040516103d99190610a0a565b60405180910390a3505050565b5f80fd5b5f73ffffffffffffffffffffffffffffffffffffffff82169050919050565b5f610413826103ea565b9050919050565b61042381610409565b811461042d575f80fd5b50565b5f8151905061043e8161041a565b92915050565b5f60208284031215610459576104586103e6565b5b5f61046684828501610430565b91505092915050565b5f81519050919050565b7f4e487b71000000000000000000000000000000000000000000000000000000005f52604160045260245ffd5b7f4e487b71000000000000000000000000000000000000000000000000000000005f52602260045260245ffd5b5f60028204905060018216806104ea57607f821691505b6020821081036104fd576104fc6104a6565b5b50919050565b5f819050815f5260205f209050919050565b5f6020601f8301049050919050565b5f82821b905092915050565b5f6008830261055f7fffffffffffffffffffffffffffffffffffffffffffffffffffffffffffffffff82610524565b6105698683610524565b95508019841693508086168417925050509392505050565b5f819050919050565b5f819050919050565b5f6105ad6105a86105a384610581565b61058a565b610581565b9050919050565b5f819050919050565b6105c683610593565b6105da6105d2826105b4565b848454610530565b825550505050565b5f90565b6105ee6105e2565b6105f98184846105bd565b505050565b5b8181101561061c576106115f826105e6565b6001810190506105ff565b5050565b601f8211156106615761063281610503565b61063b84610515565b8101602085101561064a578190505b61065e61065685610515565b8301826105fe565b50505b505050565b5f82821c905092915050565b5f6106815f1984600802610666565b1980831691505092915050565b5f6106998383610672565b9150826002028217905092915050565b6106b28261046f565b67ffffffffffffffff8111156106cb576106ca610479565b5b6106d582546104d3565b6106e0828285610620565b5f60209050601f831160018114610711575f84156106ff578287015190505b610709858261068e565b865550610770565b601f19841661071f86610503565b5f5b8281101561074657848901518255600182019150602085019450602081019050610721565b86831015610763578489015161075f601f891682610672565b8355505b6001600288020188555050505b505050505050565b7f4e487b71000000000000000000000000000000000000000000000000000000005f52601160045260245ffd5b5f8160011c9050919050565b5f808291508390505b60018511156107fa578086048111156107d6576107d5610778565b5b60018516156107e55780820291505b80810290506107f3856107a5565b94506107ba565b94509492505050565b5f8261081257600190506108cd565b8161081f575f90506108cd565b8160018114610835576002811461083f5761086e565b60019150506108cd565b60ff84111561085157610850610778565b5b8360020a91508482111561086857610867610778565b5b506108cd565b5060208310610133831016604e8410600b84101617156108a35782820a90508381111561089e5761089d610778565b5b6108cd565b6108b084848460016107b1565b925090508184048111156108c7576108c6610778565b5b81810290505b9392505050565b5f60ff82169050919050565b5f6108ea82610581565b91506108f5836108d4565b92506109227fffffffffffffffffffffffffffffffffffffffffffffffffffffffffffffffff8484610803565b905092915050565b5f61093482610581565b915061093f83610581565b925082820261094d81610581565b9150828204841483151761096457610963610778565b5b5092915050565b61097481610409565b82525050565b5f60208201905061098d5f83018461096b565b92915050565b5f61099d82610581565b91506109a883610581565b92508282019050808211156109c0576109bf610778565b5b92915050565b6109cf81610581565b82525050565b5f6060820190506109e85f83018661096b565b6109f560208301856109c6565b610a0260408301846109c6565b949350505050565b5f602082019050610a1d5f8301846109c6565b92915050565b6110a980610a305f395ff3fe608060405234801561000f575f80fd5b50600436106100a7575f3560e01c80636a1db1bf1161006f5780636a1db1bf1461016557806370a082311461019557806395d89b41146101c5578063a9059cbb146101e3578063dd62ed3e14610213578063ddca3f4314610243576100a7565b806306fdde03146100ab578063095ea7b3146100c957806318160ddd146100f957806323b872dd14610117578063313ce56714610147575b5f80fd5b6100b3610261565b6040516100c09190610bbe565b60405180910390f35b6100e360048036038101906100de9190610c6f565b6102f1565b6040516100f09190610cc7565b60405180910390f35b610101610313565b60405161010e9190610cef565b60405180910390f35b610131600480360381019061012c9190610d08565b61031c565b60405161013e9190610cc7565b60405180910390f35b61014f61034a565b60405161015c9190610d73565b60405180910390f35b61017f600480360381019061017a9190610d8c565b610352565b60405161018c9190610cc7565b60405180910390f35b6101af60048036038101906101aa9190610db7565b6103f9565b6040516101bc9190610cef565b60405180910390f35b6101cd61043e565b6040516101da9190610bbe565b60405180910390f35b6101fd60048036038101906101f89190610c6f565b6104ce565b60405161020a9190610cc7565b60405180910390f35b61022d60048036038101906102289190610de2565b610542565b60405161023a9190610cef565b60405180910390f35b61024b6105c4565b6040516102589190610cef565b60405180910390f35b60606003805461027090610e4d565b80601f016020809104026020016040519081016040528092919081815260200182805461029c90610e4d565b80156102e75780601f106102be576101008083540402835291602001916102e7565b820191905f5260205f20905b8154815290600101906020018083116102ca57829003601f168201915b5050505050905090565b5f806102fb6105ca565b90506103088185856105d1565b600191505092915050565b5f600254905090565b5f806103266105ca565b90506103338582856105e3565b61033e858585610676565b60019150509392505050565b5f6012905090565b5f60065f9054906101000a900473ffffffffffffffffffffffffffffffffffffffff1673ffffffffffffffffffffffffffffffffffffffff166103936105ca565b73ffffffffffffffffffffffffffffffffffffffff16146103e9576040517f08c379a00000000000000000000000000000000000000000000000000000000081526004016103e090610ec7565b60405180910390fd5b8160058190555060019050919050565b5f805f8373ffffffffffffffffffffffffffffffffffffffff1673ffffffffffffffffffffffffffffffffffffffff1681526020019081526020015f20549050919050565b60606004805461044d90610e4d565b80601f016020809104026020016040519081016040528092919081815260200182805461047990610e4d565b80156104c45780601f1061049b576101008083540402835291602001916104c4565b820191905f5260205f20905b8154815290600101906020018083116104a757829003601f168201915b5050505050905090565b5f806104d86105ca565b90505f735b38da6a701c568545dcfcb03fcb875f56beddc490505f6064600554866105039190610f12565b61050d9190610f80565b90506005548561051d9190610fb0565b945061052a838383610676565b610535838787610676565b6001935050505092915050565b5f60015f8473ffffffffffffffffffffffffffffffffffffffff1673ffffffffffffffffffffffffffffffffffffffff1681526020019081526020015f205f8373ffffffffffffffffffffffffffffffffffffffff1673ffffffffffffffffffffffffffffffffffffffff1681526020019081526020015f2054905092915050565b60055481565b5f33905090565b6105de8383836001610766565b505050565b5f6105ee8484610542565b90507fffffffffffffffffffffffffffffffffffffffffffffffffffffffffffffffff8110156106705781811015610661578281836040517ffb8f41b200000000000000000000000000000000000000000000000000000000815260040161065893929190610ff2565b60405180910390fd5b61066f84848484035f610766565b5b50505050565b5f73ffffffffffffffffffffffffffffffffffffffff168373ffffffffffffffffffffffffffffffffffffffff16036106e6575f6040517f96c6fd1e0000000000000000000000000000000000000000000000000000000081526004016106dd9190611027565b60405180910390fd5b5f73ffffffffffffffffffffffffffffffffffffffff168273ffffffffffffffffffffffffffffffffffffffff1603610756575f6040517fec442f0500000000000000000000000000000000000000000000000000000000815260040161074d9190611027565b60405180910390fd5b610761838383610935565b505050565b5f73ffffffffffffffffffffffffffffffffffffffff168473ffffffffffffffffffffffffffffffffffffffff16036107d6575f6040517fe602df050000000000000000000000000000000000000000000000000000000081526004016107cd9190611027565b60405180910390fd5b5f73ffffffffffffffffffffffffffffffffffffffff168373ffffffffffffffffffffffffffffffffffffffff1603610846575f6040517f94280d6200000000000000000000000000000000000000000000000000000000815260040161083d9190611027565b60405180910390fd5b8160015f8673ffffffffffffffffffffffffffffffffffffffff1673ffffffffffffffffffffffffffffffffffffffff1681526020019081526020015f205f8573ffffffffffffffffffffffffffffffffffffffff1673ffffffffffffffffffffffffffffffffffffffff1681526020019081526020015f2081905550801561092f578273ffffffffffffffffffffffffffffffffffffffff168473ffffffffffffffffffffffffffffffffffffffff167f8c5be1e5ebec7d5bd14f71427d1e84f3dd0314c0f7b2291e5b200ac8c7c3b925846040516109269190610cef565b60405180910390a35b50505050565b5f73ffffffffffffffffffffffffffffffffffffffff168373ffffffffffffffffffffffffffffffffffffffff1603610985578060025f8282546109799190611040565b92505081905550610a53565b5f805f8573ffffffffffffffffffffffffffffffffffffffff1673ffffffffffffffffffffffffffffffffffffffff1681526020019081526020015f2054905081811015610a0e578381836040517fe450d38c000000000000000000000000000000000000000000000000000000008152600401610a0593929190610ff2565b60405180910390fd5b8181035f808673ffffffffffffffffffffffffffffffffffffffff1673ffffffffffffffffffffffffffffffffffffffff1681526020019081526020015f2081905550505b5f73ffffffffffffffffffffffffffffffffffffffff168273ffffffffffffffffffffffffffffffffffffffff1603610a9a578060025f8282540392505081905550610ae4565b805f808473ffffffffffffffffffffffffffffffffffffffff1673ffffffffffffffffffffffffffffffffffffffff1681526020019081526020015f205f82825401925050819055505b8173ffffffffffffffffffffffffffffffffffffffff168373ffffffffffffffffffffffffffffffffffffffff167fddf252ad1be2c89b69c2b068fc378daa952ba7f163c4a11628f55a4df523b3ef83604051610b419190610cef565b60405180910390a3505050565b5f81519050919050565b5f82825260208201905092915050565b8281835e5f83830152505050565b5f601f19601f8301169050919050565b5f610b9082610b4e565b610b9a8185610b58565b9350610baa818560208601610b68565b610bb381610b76565b840191505092915050565b5f6020820190508181035f830152610bd68184610b86565b905092915050565b5f80fd5b5f73ffffffffffffffffffffffffffffffffffffffff82169050919050565b5f610c0b82610be2565b9050919050565b610c1b81610c01565b8114610c25575f80fd5b50565b5f81359050610c3681610c12565b92915050565b5f819050919050565b610c4e81610c3c565b8114610c58575f80fd5b50565b5f81359050610c6981610c45565b92915050565b5f8060408385031215610c8557610c84610bde565b5b5f610c9285828601610c28565b9250506020610ca385828601610c5b565b9150509250929050565b5f8115159050919050565b610cc181610cad565b82525050565b5f602082019050610cda5f830184610cb8565b92915050565b610ce981610c3c565b82525050565b5f602082019050610d025f830184610ce0565b92915050565b5f805f60608486031215610d1f57610d1e610bde565b5b5f610d2c86828701610c28565b9350506020610d3d86828701610c28565b9250506040610d4e86828701610c5b565b9150509250925092565b5f60ff82169050919050565b610d6d81610d58565b82525050565b5f602082019050610d865f830184610d64565b92915050565b5f60208284031215610da157610da0610bde565b5b5f610dae84828501610c5b565b91505092915050565b5f60208284031215610dcc57610dcb610bde565b5b5f610dd984828501610c28565b91505092915050565b5f8060408385031215610df857610df7610bde565b5b5f610e0585828601610c28565b9250506020610e1685828601610c28565b9150509250929050565b7f4e487b71000000000000000000000000000000000000000000000000000000005f52602260045260245ffd5b5f6002820490506001821680610e6457607f821691505b602082108103610e7757610e76610e20565b5b50919050565b7f4e6f7420616e206f776e657200000000000000000000000000000000000000005f82015250565b5f610eb1600c83610b58565b9150610ebc82610e7d565b602082019050919050565b5f6020820190508181035f830152610ede81610ea5565b9050919050565b7f4e487b71000000000000000000000000000000000000000000000000000000005f52601160045260245ffd5b5f610f1c82610c3c565b9150610f2783610c3c565b9250828202610f3581610c3c565b91508282048414831517610f4c57610f4b610ee5565b5b5092915050565b7f4e487b71000000000000000000000000000000000000000000000000000000005f52601260045260245ffd5b5f610f8a82610c3c565b9150610f9583610c3c565b925082610fa557610fa4610f53565b5b828204905092915050565b5f610fba82610c3c565b9150610fc583610c3c565b9250828203905081811115610fdd57610fdc610ee5565b5b92915050565b610fec81610c01565b82525050565b5f6060820190506110055f830186610fe3565b6110126020830185610ce0565b61101f6040830184610ce0565b949350505050565b5f60208201905061103a5f830184610fe3565b92915050565b5f61104a82610c3c565b915061105583610c3c565b925082820190508082111561106d5761106c610ee5565b5b9291505056fea2646970667358221220d1df9255c565cb9400e0b1d74804658d476f636dda9b77c3a7340335483335fd64736f6c634300081a0033",
					"opcodes": "PUSH1 0x80 PUSH1 0x40 MSTORE PUSH1 0xA PUSH1 0x5 SSTORE CALLER PUSH1 0x6 PUSH0 PUSH2 0x100 EXP DUP2 SLOAD DUP2 PUSH20 0xFFFFFFFFFFFFFFFFFFFFFFFFFFFFFFFFFFFFFFFF MUL NOT AND SWAP1 DUP4 PUSH20 0xFFFFFFFFFFFFFFFFFFFFFFFFFFFFFFFFFFFFFFFF AND MUL OR SWAP1 SSTORE POP CALLVALUE DUP1 ISZERO PUSH2 0x54 JUMPI PUSH0 DUP1 REVERT JUMPDEST POP PUSH1 0x40 MLOAD PUSH2 0x1AD9 CODESIZE SUB DUP1 PUSH2 0x1AD9 DUP4 CODECOPY DUP2 DUP2 ADD PUSH1 0x40 MSTORE DUP2 ADD SWAP1 PUSH2 0x76 SWAP2 SWAP1 PUSH2 0x444 JUMP JUMPDEST PUSH1 0x40 MLOAD DUP1 PUSH1 0x40 ADD PUSH1 0x40 MSTORE DUP1 PUSH1 0x9 DUP2 MSTORE PUSH1 0x20 ADD PUSH32 0x556D6572546F6B656E0000000000000000000000000000000000000000000000 DUP2 MSTORE POP PUSH1 0x40 MLOAD DUP1 PUSH1 0x40 ADD PUSH1 0x40 MSTORE DUP1 PUSH1 0x3 DUP2 MSTORE PUSH1 0x20 ADD PUSH32 0x55544B0000000000000000000000000000000000000000000000000000000000 DUP2 MSTORE POP DUP2 PUSH1 0x3 SWAP1 DUP2 PUSH2 0xF1 SWAP2 SWAP1 PUSH2 0x6A9 JUMP JUMPDEST POP DUP1 PUSH1 0x4 SWAP1 DUP2 PUSH2 0x101 SWAP2 SWAP1 PUSH2 0x6A9 JUMP JUMPDEST POP POP POP PUSH2 0x13A DUP2 PUSH2 0x116 PUSH2 0x140 PUSH1 0x20 SHL PUSH1 0x20 SHR JUMP JUMPDEST PUSH1 0xA PUSH2 0x122 SWAP2 SWAP1 PUSH2 0x8E0 JUMP JUMPDEST PUSH2 0x2710 PUSH2 0x12F SWAP2 SWAP1 PUSH2 0x92A JUMP JUMPDEST PUSH2 0x148 PUSH1 0x20 SHL PUSH1 0x20 SHR JUMP JUMPDEST POP PUSH2 0xA23 JUMP JUMPDEST PUSH0 PUSH1 0x12 SWAP1 POP SWAP1 JUMP JUMPDEST PUSH0 PUSH20 0xFFFFFFFFFFFFFFFFFFFFFFFFFFFFFFFFFFFFFFFF AND DUP3 PUSH20 0xFFFFFFFFFFFFFFFFFFFFFFFFFFFFFFFFFFFFFFFF AND SUB PUSH2 0x1B8 JUMPI PUSH0 PUSH1 0x40 MLOAD PUSH32 0xEC442F0500000000000000000000000000000000000000000000000000000000 DUP2 MSTORE PUSH1 0x4 ADD PUSH2 0x1AF SWAP2 SWAP1 PUSH2 0x97A JUMP JUMPDEST PUSH1 0x40 MLOAD DUP1 SWAP2 SUB SWAP1 REVERT JUMPDEST PUSH2 0x1C9 PUSH0 DUP4 DUP4 PUSH2 0x1CD PUSH1 0x20 SHL PUSH1 0x20 SHR JUMP JUMPDEST POP POP JUMP JUMPDEST PUSH0 PUSH20 0xFFFFFFFFFFFFFFFFFFFFFFFFFFFFFFFFFFFFFFFF AND DUP4 PUSH20 0xFFFFFFFFFFFFFFFFFFFFFFFFFFFFFFFFFFFFFFFF AND SUB PUSH2 0x21D JUMPI DUP1 PUSH1 0x2 PUSH0 DUP3 DUP3 SLOAD PUSH2 0x211 SWAP2 SWAP1 PUSH2 0x993 JUMP JUMPDEST SWAP3 POP POP DUP2 SWAP1 SSTORE POP PUSH2 0x2EB JUMP JUMPDEST PUSH0 DUP1 PUSH0 DUP6 PUSH20 0xFFFFFFFFFFFFFFFFFFFFFFFFFFFFFFFFFFFFFFFF AND PUSH20 0xFFFFFFFFFFFFFFFFFFFFFFFFFFFFFFFFFFFFFFFF AND DUP2 MSTORE PUSH1 0x20 ADD SWAP1 DUP2 MSTORE PUSH1 0x20 ADD PUSH0 KECCAK256 SLOAD SWAP1 POP DUP2 DUP2 LT ISZERO PUSH2 0x2A6 JUMPI DUP4 DUP2 DUP4 PUSH1 0x40 MLOAD PUSH32 0xE450D38C00000000000000000000000000000000000000000000000000000000 DUP2 MSTORE PUSH1 0x4 ADD PUSH2 0x29D SWAP4 SWAP3 SWAP2 SWAP1 PUSH2 0x9D5 JUMP JUMPDEST PUSH1 0x40 MLOAD DUP1 SWAP2 SUB SWAP1 REVERT JUMPDEST DUP2 DUP2 SUB PUSH0 DUP1 DUP7 PUSH20 0xFFFFFFFFFFFFFFFFFFFFFFFFFFFFFFFFFFFFFFFF AND PUSH20 0xFFFFFFFFFFFFFFFFFFFFFFFFFFFFFFFFFFFFFFFF AND DUP2 MSTORE PUSH1 0x20 ADD SWAP1 DUP2 MSTORE PUSH1 0x20 ADD PUSH0 KECCAK256 DUP2 SWAP1 SSTORE POP POP JUMPDEST PUSH0 PUSH20 0xFFFFFFFFFFFFFFFFFFFFFFFFFFFFFFFFFFFFFFFF AND DUP3 PUSH20 0xFFFFFFFFFFFFFFFFFFFFFFFFFFFFFFFFFFFFFFFF AND SUB PUSH2 0x332 JUMPI DUP1 PUSH1 0x2 PUSH0 DUP3 DUP3 SLOAD SUB SWAP3 POP POP DUP2 SWAP1 SSTORE POP PUSH2 0x37C JUMP JUMPDEST DUP1 PUSH0 DUP1 DUP5 PUSH20 0xFFFFFFFFFFFFFFFFFFFFFFFFFFFFFFFFFFFFFFFF AND PUSH20 0xFFFFFFFFFFFFFFFFFFFFFFFFFFFFFFFFFFFFFFFF AND DUP2 MSTORE PUSH1 0x20 ADD SWAP1 DUP2 MSTORE PUSH1 0x20 ADD PUSH0 KECCAK256 PUSH0 DUP3 DUP3 SLOAD ADD SWAP3 POP POP DUP2 SWAP1 SSTORE POP JUMPDEST DUP2 PUSH20 0xFFFFFFFFFFFFFFFFFFFFFFFFFFFFFFFFFFFFFFFF AND DUP4 PUSH20 0xFFFFFFFFFFFFFFFFFFFFFFFFFFFFFFFFFFFFFFFF AND PUSH32 0xDDF252AD1BE2C89B69C2B068FC378DAA952BA7F163C4A11628F55A4DF523B3EF DUP4 PUSH1 0x40 MLOAD PUSH2 0x3D9 SWAP2 SWAP1 PUSH2 0xA0A JUMP JUMPDEST PUSH1 0x40 MLOAD DUP1 SWAP2 SUB SWAP1 LOG3 POP POP POP JUMP JUMPDEST PUSH0 DUP1 REVERT JUMPDEST PUSH0 PUSH20 0xFFFFFFFFFFFFFFFFFFFFFFFFFFFFFFFFFFFFFFFF DUP3 AND SWAP1 POP SWAP2 SWAP1 POP JUMP JUMPDEST PUSH0 PUSH2 0x413 DUP3 PUSH2 0x3EA JUMP JUMPDEST SWAP1 POP SWAP2 SWAP1 POP JUMP JUMPDEST PUSH2 0x423 DUP2 PUSH2 0x409 JUMP JUMPDEST DUP2 EQ PUSH2 0x42D JUMPI PUSH0 DUP1 REVERT JUMPDEST POP JUMP JUMPDEST PUSH0 DUP2 MLOAD SWAP1 POP PUSH2 0x43E DUP2 PUSH2 0x41A JUMP JUMPDEST SWAP3 SWAP2 POP POP JUMP JUMPDEST PUSH0 PUSH1 0x20 DUP3 DUP5 SUB SLT ISZERO PUSH2 0x459 JUMPI PUSH2 0x458 PUSH2 0x3E6 JUMP JUMPDEST JUMPDEST PUSH0 PUSH2 0x466 DUP5 DUP3 DUP6 ADD PUSH2 0x430 JUMP JUMPDEST SWAP2 POP POP SWAP3 SWAP2 POP POP JUMP JUMPDEST PUSH0 DUP2 MLOAD SWAP1 POP SWAP2 SWAP1 POP JUMP JUMPDEST PUSH32 0x4E487B7100000000000000000000000000000000000000000000000000000000 PUSH0 MSTORE PUSH1 0x41 PUSH1 0x4 MSTORE PUSH1 0x24 PUSH0 REVERT JUMPDEST PUSH32 0x4E487B7100000000000000000000000000000000000000000000000000000000 PUSH0 MSTORE PUSH1 0x22 PUSH1 0x4 MSTORE PUSH1 0x24 PUSH0 REVERT JUMPDEST PUSH0 PUSH1 0x2 DUP3 DIV SWAP1 POP PUSH1 0x1 DUP3 AND DUP1 PUSH2 0x4EA JUMPI PUSH1 0x7F DUP3 AND SWAP2 POP JUMPDEST PUSH1 0x20 DUP3 LT DUP2 SUB PUSH2 0x4FD JUMPI PUSH2 0x4FC PUSH2 0x4A6 JUMP JUMPDEST JUMPDEST POP SWAP2 SWAP1 POP JUMP JUMPDEST PUSH0 DUP2 SWAP1 POP DUP2 PUSH0 MSTORE PUSH1 0x20 PUSH0 KECCAK256 SWAP1 POP SWAP2 SWAP1 POP JUMP JUMPDEST PUSH0 PUSH1 0x20 PUSH1 0x1F DUP4 ADD DIV SWAP1 POP SWAP2 SWAP1 POP JUMP JUMPDEST PUSH0 DUP3 DUP3 SHL SWAP1 POP SWAP3 SWAP2 POP POP JUMP JUMPDEST PUSH0 PUSH1 0x8 DUP4 MUL PUSH2 0x55F PUSH32 0xFFFFFFFFFFFFFFFFFFFFFFFFFFFFFFFFFFFFFFFFFFFFFFFFFFFFFFFFFFFFFFFF DUP3 PUSH2 0x524 JUMP JUMPDEST PUSH2 0x569 DUP7 DUP4 PUSH2 0x524 JUMP JUMPDEST SWAP6 POP DUP1 NOT DUP5 AND SWAP4 POP DUP1 DUP7 AND DUP5 OR SWAP3 POP POP POP SWAP4 SWAP3 POP POP POP JUMP JUMPDEST PUSH0 DUP2 SWAP1 POP SWAP2 SWAP1 POP JUMP JUMPDEST PUSH0 DUP2 SWAP1 POP SWAP2 SWAP1 POP JUMP JUMPDEST PUSH0 PUSH2 0x5AD PUSH2 0x5A8 PUSH2 0x5A3 DUP5 PUSH2 0x581 JUMP JUMPDEST PUSH2 0x58A JUMP JUMPDEST PUSH2 0x581 JUMP JUMPDEST SWAP1 POP SWAP2 SWAP1 POP JUMP JUMPDEST PUSH0 DUP2 SWAP1 POP SWAP2 SWAP1 POP JUMP JUMPDEST PUSH2 0x5C6 DUP4 PUSH2 0x593 JUMP JUMPDEST PUSH2 0x5DA PUSH2 0x5D2 DUP3 PUSH2 0x5B4 JUMP JUMPDEST DUP5 DUP5 SLOAD PUSH2 0x530 JUMP JUMPDEST DUP3 SSTORE POP POP POP POP JUMP JUMPDEST PUSH0 SWAP1 JUMP JUMPDEST PUSH2 0x5EE PUSH2 0x5E2 JUMP JUMPDEST PUSH2 0x5F9 DUP2 DUP5 DUP5 PUSH2 0x5BD JUMP JUMPDEST POP POP POP JUMP JUMPDEST JUMPDEST DUP2 DUP2 LT ISZERO PUSH2 0x61C JUMPI PUSH2 0x611 PUSH0 DUP3 PUSH2 0x5E6 JUMP JUMPDEST PUSH1 0x1 DUP2 ADD SWAP1 POP PUSH2 0x5FF JUMP JUMPDEST POP POP JUMP JUMPDEST PUSH1 0x1F DUP3 GT ISZERO PUSH2 0x661 JUMPI PUSH2 0x632 DUP2 PUSH2 0x503 JUMP JUMPDEST PUSH2 0x63B DUP5 PUSH2 0x515 JUMP JUMPDEST DUP2 ADD PUSH1 0x20 DUP6 LT ISZERO PUSH2 0x64A JUMPI DUP2 SWAP1 POP JUMPDEST PUSH2 0x65E PUSH2 0x656 DUP6 PUSH2 0x515 JUMP JUMPDEST DUP4 ADD DUP3 PUSH2 0x5FE JUMP JUMPDEST POP POP JUMPDEST POP POP POP JUMP JUMPDEST PUSH0 DUP3 DUP3 SHR SWAP1 POP SWAP3 SWAP2 POP POP JUMP JUMPDEST PUSH0 PUSH2 0x681 PUSH0 NOT DUP5 PUSH1 0x8 MUL PUSH2 0x666 JUMP JUMPDEST NOT DUP1 DUP4 AND SWAP2 POP POP SWAP3 SWAP2 POP POP JUMP JUMPDEST PUSH0 PUSH2 0x699 DUP4 DUP4 PUSH2 0x672 JUMP JUMPDEST SWAP2 POP DUP3 PUSH1 0x2 MUL DUP3 OR SWAP1 POP SWAP3 SWAP2 POP POP JUMP JUMPDEST PUSH2 0x6B2 DUP3 PUSH2 0x46F JUMP JUMPDEST PUSH8 0xFFFFFFFFFFFFFFFF DUP2 GT ISZERO PUSH2 0x6CB JUMPI PUSH2 0x6CA PUSH2 0x479 JUMP JUMPDEST JUMPDEST PUSH2 0x6D5 DUP3 SLOAD PUSH2 0x4D3 JUMP JUMPDEST PUSH2 0x6E0 DUP3 DUP3 DUP6 PUSH2 0x620 JUMP JUMPDEST PUSH0 PUSH1 0x20 SWAP1 POP PUSH1 0x1F DUP4 GT PUSH1 0x1 DUP2 EQ PUSH2 0x711 JUMPI PUSH0 DUP5 ISZERO PUSH2 0x6FF JUMPI DUP3 DUP8 ADD MLOAD SWAP1 POP JUMPDEST PUSH2 0x709 DUP6 DUP3 PUSH2 0x68E JUMP JUMPDEST DUP7 SSTORE POP PUSH2 0x770 JUMP JUMPDEST PUSH1 0x1F NOT DUP5 AND PUSH2 0x71F DUP7 PUSH2 0x503 JUMP JUMPDEST PUSH0 JUMPDEST DUP3 DUP2 LT ISZERO PUSH2 0x746 JUMPI DUP5 DUP10 ADD MLOAD DUP3 SSTORE PUSH1 0x1 DUP3 ADD SWAP2 POP PUSH1 0x20 DUP6 ADD SWAP5 POP PUSH1 0x20 DUP2 ADD SWAP1 POP PUSH2 0x721 JUMP JUMPDEST DUP7 DUP4 LT ISZERO PUSH2 0x763 JUMPI DUP5 DUP10 ADD MLOAD PUSH2 0x75F PUSH1 0x1F DUP10 AND DUP3 PUSH2 0x672 JUMP JUMPDEST DUP4 SSTORE POP JUMPDEST PUSH1 0x1 PUSH1 0x2 DUP9 MUL ADD DUP9 SSTORE POP POP POP JUMPDEST POP POP POP POP POP POP JUMP JUMPDEST PUSH32 0x4E487B7100000000000000000000000000000000000000000000000000000000 PUSH0 MSTORE PUSH1 0x11 PUSH1 0x4 MSTORE PUSH1 0x24 PUSH0 REVERT JUMPDEST PUSH0 DUP2 PUSH1 0x1 SHR SWAP1 POP SWAP2 SWAP1 POP JUMP JUMPDEST PUSH0 DUP1 DUP3 SWAP2 POP DUP4 SWAP1 POP JUMPDEST PUSH1 0x1 DUP6 GT ISZERO PUSH2 0x7FA JUMPI DUP1 DUP7 DIV DUP2 GT ISZERO PUSH2 0x7D6 JUMPI PUSH2 0x7D5 PUSH2 0x778 JUMP JUMPDEST JUMPDEST PUSH1 0x1 DUP6 AND ISZERO PUSH2 0x7E5 JUMPI DUP1 DUP3 MUL SWAP2 POP JUMPDEST DUP1 DUP2 MUL SWAP1 POP PUSH2 0x7F3 DUP6 PUSH2 0x7A5 JUMP JUMPDEST SWAP5 POP PUSH2 0x7BA JUMP JUMPDEST SWAP5 POP SWAP5 SWAP3 POP POP POP JUMP JUMPDEST PUSH0 DUP3 PUSH2 0x812 JUMPI PUSH1 0x1 SWAP1 POP PUSH2 0x8CD JUMP JUMPDEST DUP2 PUSH2 0x81F JUMPI PUSH0 SWAP1 POP PUSH2 0x8CD JUMP JUMPDEST DUP2 PUSH1 0x1 DUP2 EQ PUSH2 0x835 JUMPI PUSH1 0x2 DUP2 EQ PUSH2 0x83F JUMPI PUSH2 0x86E JUMP JUMPDEST PUSH1 0x1 SWAP2 POP POP PUSH2 0x8CD JUMP JUMPDEST PUSH1 0xFF DUP5 GT ISZERO PUSH2 0x851 JUMPI PUSH2 0x850 PUSH2 0x778 JUMP JUMPDEST JUMPDEST DUP4 PUSH1 0x2 EXP SWAP2 POP DUP5 DUP3 GT ISZERO PUSH2 0x868 JUMPI PUSH2 0x867 PUSH2 0x778 JUMP JUMPDEST JUMPDEST POP PUSH2 0x8CD JUMP JUMPDEST POP PUSH1 0x20 DUP4 LT PUSH2 0x133 DUP4 LT AND PUSH1 0x4E DUP5 LT PUSH1 0xB DUP5 LT AND OR ISZERO PUSH2 0x8A3 JUMPI DUP3 DUP3 EXP SWAP1 POP DUP4 DUP2 GT ISZERO PUSH2 0x89E JUMPI PUSH2 0x89D PUSH2 0x778 JUMP JUMPDEST JUMPDEST PUSH2 0x8CD JUMP JUMPDEST PUSH2 0x8B0 DUP5 DUP5 DUP5 PUSH1 0x1 PUSH2 0x7B1 JUMP JUMPDEST SWAP3 POP SWAP1 POP DUP2 DUP5 DIV DUP2 GT ISZERO PUSH2 0x8C7 JUMPI PUSH2 0x8C6 PUSH2 0x778 JUMP JUMPDEST JUMPDEST DUP2 DUP2 MUL SWAP1 POP JUMPDEST SWAP4 SWAP3 POP POP POP JUMP JUMPDEST PUSH0 PUSH1 0xFF DUP3 AND SWAP1 POP SWAP2 SWAP1 POP JUMP JUMPDEST PUSH0 PUSH2 0x8EA DUP3 PUSH2 0x581 JUMP JUMPDEST SWAP2 POP PUSH2 0x8F5 DUP4 PUSH2 0x8D4 JUMP JUMPDEST SWAP3 POP PUSH2 0x922 PUSH32 0xFFFFFFFFFFFFFFFFFFFFFFFFFFFFFFFFFFFFFFFFFFFFFFFFFFFFFFFFFFFFFFFF DUP5 DUP5 PUSH2 0x803 JUMP JUMPDEST SWAP1 POP SWAP3 SWAP2 POP POP JUMP JUMPDEST PUSH0 PUSH2 0x934 DUP3 PUSH2 0x581 JUMP JUMPDEST SWAP2 POP PUSH2 0x93F DUP4 PUSH2 0x581 JUMP JUMPDEST SWAP3 POP DUP3 DUP3 MUL PUSH2 0x94D DUP2 PUSH2 0x581 JUMP JUMPDEST SWAP2 POP DUP3 DUP3 DIV DUP5 EQ DUP4 ISZERO OR PUSH2 0x964 JUMPI PUSH2 0x963 PUSH2 0x778 JUMP JUMPDEST JUMPDEST POP SWAP3 SWAP2 POP POP JUMP JUMPDEST PUSH2 0x974 DUP2 PUSH2 0x409 JUMP JUMPDEST DUP3 MSTORE POP POP JUMP JUMPDEST PUSH0 PUSH1 0x20 DUP3 ADD SWAP1 POP PUSH2 0x98D PUSH0 DUP4 ADD DUP5 PUSH2 0x96B JUMP JUMPDEST SWAP3 SWAP2 POP POP JUMP JUMPDEST PUSH0 PUSH2 0x99D DUP3 PUSH2 0x581 JUMP JUMPDEST SWAP2 POP PUSH2 0x9A8 DUP4 PUSH2 0x581 JUMP JUMPDEST SWAP3 POP DUP3 DUP3 ADD SWAP1 POP DUP1 DUP3 GT ISZERO PUSH2 0x9C0 JUMPI PUSH2 0x9BF PUSH2 0x778 JUMP JUMPDEST JUMPDEST SWAP3 SWAP2 POP POP JUMP JUMPDEST PUSH2 0x9CF DUP2 PUSH2 0x581 JUMP JUMPDEST DUP3 MSTORE POP POP JUMP JUMPDEST PUSH0 PUSH1 0x60 DUP3 ADD SWAP1 POP PUSH2 0x9E8 PUSH0 DUP4 ADD DUP7 PUSH2 0x96B JUMP JUMPDEST PUSH2 0x9F5 PUSH1 0x20 DUP4 ADD DUP6 PUSH2 0x9C6 JUMP JUMPDEST PUSH2 0xA02 PUSH1 0x40 DUP4 ADD DUP5 PUSH2 0x9C6 JUMP JUMPDEST SWAP5 SWAP4 POP POP POP POP JUMP JUMPDEST PUSH0 PUSH1 0x20 DUP3 ADD SWAP1 POP PUSH2 0xA1D PUSH0 DUP4 ADD DUP5 PUSH2 0x9C6 JUMP JUMPDEST SWAP3 SWAP2 POP POP JUMP JUMPDEST PUSH2 0x10A9 DUP1 PUSH2 0xA30 PUSH0 CODECOPY PUSH0 RETURN INVALID PUSH1 0x80 PUSH1 0x40 MSTORE CALLVALUE DUP1 ISZERO PUSH2 0xF JUMPI PUSH0 DUP1 REVERT JUMPDEST POP PUSH1 0x4 CALLDATASIZE LT PUSH2 0xA7 JUMPI PUSH0 CALLDATALOAD PUSH1 0xE0 SHR DUP1 PUSH4 0x6A1DB1BF GT PUSH2 0x6F JUMPI DUP1 PUSH4 0x6A1DB1BF EQ PUSH2 0x165 JUMPI DUP1 PUSH4 0x70A08231 EQ PUSH2 0x195 JUMPI DUP1 PUSH4 0x95D89B41 EQ PUSH2 0x1C5 JUMPI DUP1 PUSH4 0xA9059CBB EQ PUSH2 0x1E3 JUMPI DUP1 PUSH4 0xDD62ED3E EQ PUSH2 0x213 JUMPI DUP1 PUSH4 0xDDCA3F43 EQ PUSH2 0x243 JUMPI PUSH2 0xA7 JUMP JUMPDEST DUP1 PUSH4 0x6FDDE03 EQ PUSH2 0xAB JUMPI DUP1 PUSH4 0x95EA7B3 EQ PUSH2 0xC9 JUMPI DUP1 PUSH4 0x18160DDD EQ PUSH2 0xF9 JUMPI DUP1 PUSH4 0x23B872DD EQ PUSH2 0x117 JUMPI DUP1 PUSH4 0x313CE567 EQ PUSH2 0x147 JUMPI JUMPDEST PUSH0 DUP1 REVERT JUMPDEST PUSH2 0xB3 PUSH2 0x261 JUMP JUMPDEST PUSH1 0x40 MLOAD PUSH2 0xC0 SWAP2 SWAP1 PUSH2 0xBBE JUMP JUMPDEST PUSH1 0x40 MLOAD DUP1 SWAP2 SUB SWAP1 RETURN JUMPDEST PUSH2 0xE3 PUSH1 0x4 DUP1 CALLDATASIZE SUB DUP2 ADD SWAP1 PUSH2 0xDE SWAP2 SWAP1 PUSH2 0xC6F JUMP JUMPDEST PUSH2 0x2F1 JUMP JUMPDEST PUSH1 0x40 MLOAD PUSH2 0xF0 SWAP2 SWAP1 PUSH2 0xCC7 JUMP JUMPDEST PUSH1 0x40 MLOAD DUP1 SWAP2 SUB SWAP1 RETURN JUMPDEST PUSH2 0x101 PUSH2 0x313 JUMP JUMPDEST PUSH1 0x40 MLOAD PUSH2 0x10E SWAP2 SWAP1 PUSH2 0xCEF JUMP JUMPDEST PUSH1 0x40 MLOAD DUP1 SWAP2 SUB SWAP1 RETURN JUMPDEST PUSH2 0x131 PUSH1 0x4 DUP1 CALLDATASIZE SUB DUP2 ADD SWAP1 PUSH2 0x12C SWAP2 SWAP1 PUSH2 0xD08 JUMP JUMPDEST PUSH2 0x31C JUMP JUMPDEST PUSH1 0x40 MLOAD PUSH2 0x13E SWAP2 SWAP1 PUSH2 0xCC7 JUMP JUMPDEST PUSH1 0x40 MLOAD DUP1 SWAP2 SUB SWAP1 RETURN JUMPDEST PUSH2 0x14F PUSH2 0x34A JUMP JUMPDEST PUSH1 0x40 MLOAD PUSH2 0x15C SWAP2 SWAP1 PUSH2 0xD73 JUMP JUMPDEST PUSH1 0x40 MLOAD DUP1 SWAP2 SUB SWAP1 RETURN JUMPDEST PUSH2 0x17F PUSH1 0x4 DUP1 CALLDATASIZE SUB DUP2 ADD SWAP1 PUSH2 0x17A SWAP2 SWAP1 PUSH2 0xD8C JUMP JUMPDEST PUSH2 0x352 JUMP JUMPDEST PUSH1 0x40 MLOAD PUSH2 0x18C SWAP2 SWAP1 PUSH2 0xCC7 JUMP JUMPDEST PUSH1 0x40 MLOAD DUP1 SWAP2 SUB SWAP1 RETURN JUMPDEST PUSH2 0x1AF PUSH1 0x4 DUP1 CALLDATASIZE SUB DUP2 ADD SWAP1 PUSH2 0x1AA SWAP2 SWAP1 PUSH2 0xDB7 JUMP JUMPDEST PUSH2 0x3F9 JUMP JUMPDEST PUSH1 0x40 MLOAD PUSH2 0x1BC SWAP2 SWAP1 PUSH2 0xCEF JUMP JUMPDEST PUSH1 0x40 MLOAD DUP1 SWAP2 SUB SWAP1 RETURN JUMPDEST PUSH2 0x1CD PUSH2 0x43E JUMP JUMPDEST PUSH1 0x40 MLOAD PUSH2 0x1DA SWAP2 SWAP1 PUSH2 0xBBE JUMP JUMPDEST PUSH1 0x40 MLOAD DUP1 SWAP2 SUB SWAP1 RETURN JUMPDEST PUSH2 0x1FD PUSH1 0x4 DUP1 CALLDATASIZE SUB DUP2 ADD SWAP1 PUSH2 0x1F8 SWAP2 SWAP1 PUSH2 0xC6F JUMP JUMPDEST PUSH2 0x4CE JUMP JUMPDEST PUSH1 0x40 MLOAD PUSH2 0x20A SWAP2 SWAP1 PUSH2 0xCC7 JUMP JUMPDEST PUSH1 0x40 MLOAD DUP1 SWAP2 SUB SWAP1 RETURN JUMPDEST PUSH2 0x22D PUSH1 0x4 DUP1 CALLDATASIZE SUB DUP2 ADD SWAP1 PUSH2 0x228 SWAP2 SWAP1 PUSH2 0xDE2 JUMP JUMPDEST PUSH2 0x542 JUMP JUMPDEST PUSH1 0x40 MLOAD PUSH2 0x23A SWAP2 SWAP1 PUSH2 0xCEF JUMP JUMPDEST PUSH1 0x40 MLOAD DUP1 SWAP2 SUB SWAP1 RETURN JUMPDEST PUSH2 0x24B PUSH2 0x5C4 JUMP JUMPDEST PUSH1 0x40 MLOAD PUSH2 0x258 SWAP2 SWAP1 PUSH2 0xCEF JUMP JUMPDEST PUSH1 0x40 MLOAD DUP1 SWAP2 SUB SWAP1 RETURN JUMPDEST PUSH1 0x60 PUSH1 0x3 DUP1 SLOAD PUSH2 0x270 SWAP1 PUSH2 0xE4D JUMP JUMPDEST DUP1 PUSH1 0x1F ADD PUSH1 0x20 DUP1 SWAP2 DIV MUL PUSH1 0x20 ADD PUSH1 0x40 MLOAD SWAP1 DUP2 ADD PUSH1 0x40 MSTORE DUP1 SWAP3 SWAP2 SWAP1 DUP2 DUP2 MSTORE PUSH1 0x20 ADD DUP3 DUP1 SLOAD PUSH2 0x29C SWAP1 PUSH2 0xE4D JUMP JUMPDEST DUP1 ISZERO PUSH2 0x2E7 JUMPI DUP1 PUSH1 0x1F LT PUSH2 0x2BE JUMPI PUSH2 0x100 DUP1 DUP4 SLOAD DIV MUL DUP4 MSTORE SWAP2 PUSH1 0x20 ADD SWAP2 PUSH2 0x2E7 JUMP JUMPDEST DUP3 ADD SWAP2 SWAP1 PUSH0 MSTORE PUSH1 0x20 PUSH0 KECCAK256 SWAP1 JUMPDEST DUP2 SLOAD DUP2 MSTORE SWAP1 PUSH1 0x1 ADD SWAP1 PUSH1 0x20 ADD DUP1 DUP4 GT PUSH2 0x2CA JUMPI DUP3 SWAP1 SUB PUSH1 0x1F AND DUP3 ADD SWAP2 JUMPDEST POP POP POP POP POP SWAP1 POP SWAP1 JUMP JUMPDEST PUSH0 DUP1 PUSH2 0x2FB PUSH2 0x5CA JUMP JUMPDEST SWAP1 POP PUSH2 0x308 DUP2 DUP6 DUP6 PUSH2 0x5D1 JUMP JUMPDEST PUSH1 0x1 SWAP2 POP POP SWAP3 SWAP2 POP POP JUMP JUMPDEST PUSH0 PUSH1 0x2 SLOAD SWAP1 POP SWAP1 JUMP JUMPDEST PUSH0 DUP1 PUSH2 0x326 PUSH2 0x5CA JUMP JUMPDEST SWAP1 POP PUSH2 0x333 DUP6 DUP3 DUP6 PUSH2 0x5E3 JUMP JUMPDEST PUSH2 0x33E DUP6 DUP6 DUP6 PUSH2 0x676 JUMP JUMPDEST PUSH1 0x1 SWAP2 POP POP SWAP4 SWAP3 POP POP POP JUMP JUMPDEST PUSH0 PUSH1 0x12 SWAP1 POP SWAP1 JUMP JUMPDEST PUSH0 PUSH1 0x6 PUSH0 SWAP1 SLOAD SWAP1 PUSH2 0x100 EXP SWAP1 DIV PUSH20 0xFFFFFFFFFFFFFFFFFFFFFFFFFFFFFFFFFFFFFFFF AND PUSH20 0xFFFFFFFFFFFFFFFFFFFFFFFFFFFFFFFFFFFFFFFF AND PUSH2 0x393 PUSH2 0x5CA JUMP JUMPDEST PUSH20 0xFFFFFFFFFFFFFFFFFFFFFFFFFFFFFFFFFFFFFFFF AND EQ PUSH2 0x3E9 JUMPI PUSH1 0x40 MLOAD PUSH32 0x8C379A000000000000000000000000000000000000000000000000000000000 DUP2 MSTORE PUSH1 0x4 ADD PUSH2 0x3E0 SWAP1 PUSH2 0xEC7 JUMP JUMPDEST PUSH1 0x40 MLOAD DUP1 SWAP2 SUB SWAP1 REVERT JUMPDEST DUP2 PUSH1 0x5 DUP2 SWAP1 SSTORE POP PUSH1 0x1 SWAP1 POP SWAP2 SWAP1 POP JUMP JUMPDEST PUSH0 DUP1 PUSH0 DUP4 PUSH20 0xFFFFFFFFFFFFFFFFFFFFFFFFFFFFFFFFFFFFFFFF AND PUSH20 0xFFFFFFFFFFFFFFFFFFFFFFFFFFFFFFFFFFFFFFFF AND DUP2 MSTORE PUSH1 0x20 ADD SWAP1 DUP2 MSTORE PUSH1 0x20 ADD PUSH0 KECCAK256 SLOAD SWAP1 POP SWAP2 SWAP1 POP JUMP JUMPDEST PUSH1 0x60 PUSH1 0x4 DUP1 SLOAD PUSH2 0x44D SWAP1 PUSH2 0xE4D JUMP JUMPDEST DUP1 PUSH1 0x1F ADD PUSH1 0x20 DUP1 SWAP2 DIV MUL PUSH1 0x20 ADD PUSH1 0x40 MLOAD SWAP1 DUP2 ADD PUSH1 0x40 MSTORE DUP1 SWAP3 SWAP2 SWAP1 DUP2 DUP2 MSTORE PUSH1 0x20 ADD DUP3 DUP1 SLOAD PUSH2 0x479 SWAP1 PUSH2 0xE4D JUMP JUMPDEST DUP1 ISZERO PUSH2 0x4C4 JUMPI DUP1 PUSH1 0x1F LT PUSH2 0x49B JUMPI PUSH2 0x100 DUP1 DUP4 SLOAD DIV MUL DUP4 MSTORE SWAP2 PUSH1 0x20 ADD SWAP2 PUSH2 0x4C4 JUMP JUMPDEST DUP3 ADD SWAP2 SWAP1 PUSH0 MSTORE PUSH1 0x20 PUSH0 KECCAK256 SWAP1 JUMPDEST DUP2 SLOAD DUP2 MSTORE SWAP1 PUSH1 0x1 ADD SWAP1 PUSH1 0x20 ADD DUP1 DUP4 GT PUSH2 0x4A7 JUMPI DUP3 SWAP1 SUB PUSH1 0x1F AND DUP3 ADD SWAP2 JUMPDEST POP POP POP POP POP SWAP1 POP SWAP1 JUMP JUMPDEST PUSH0 DUP1 PUSH2 0x4D8 PUSH2 0x5CA JUMP JUMPDEST SWAP1 POP PUSH0 PUSH20 0x5B38DA6A701C568545DCFCB03FCB875F56BEDDC4 SWAP1 POP PUSH0 PUSH1 0x64 PUSH1 0x5 SLOAD DUP7 PUSH2 0x503 SWAP2 SWAP1 PUSH2 0xF12 JUMP JUMPDEST PUSH2 0x50D SWAP2 SWAP1 PUSH2 0xF80 JUMP JUMPDEST SWAP1 POP PUSH1 0x5 SLOAD DUP6 PUSH2 0x51D SWAP2 SWAP1 PUSH2 0xFB0 JUMP JUMPDEST SWAP5 POP PUSH2 0x52A DUP4 DUP4 DUP4 PUSH2 0x676 JUMP JUMPDEST PUSH2 0x535 DUP4 DUP8 DUP8 PUSH2 0x676 JUMP JUMPDEST PUSH1 0x1 SWAP4 POP POP POP POP SWAP3 SWAP2 POP POP JUMP JUMPDEST PUSH0 PUSH1 0x1 PUSH0 DUP5 PUSH20 0xFFFFFFFFFFFFFFFFFFFFFFFFFFFFFFFFFFFFFFFF AND PUSH20 0xFFFFFFFFFFFFFFFFFFFFFFFFFFFFFFFFFFFFFFFF AND DUP2 MSTORE PUSH1 0x20 ADD SWAP1 DUP2 MSTORE PUSH1 0x20 ADD PUSH0 KECCAK256 PUSH0 DUP4 PUSH20 0xFFFFFFFFFFFFFFFFFFFFFFFFFFFFFFFFFFFFFFFF AND PUSH20 0xFFFFFFFFFFFFFFFFFFFFFFFFFFFFFFFFFFFFFFFF AND DUP2 MSTORE PUSH1 0x20 ADD SWAP1 DUP2 MSTORE PUSH1 0x20 ADD PUSH0 KECCAK256 SLOAD SWAP1 POP SWAP3 SWAP2 POP POP JUMP JUMPDEST PUSH1 0x5 SLOAD DUP2 JUMP JUMPDEST PUSH0 CALLER SWAP1 POP SWAP1 JUMP JUMPDEST PUSH2 0x5DE DUP4 DUP4 DUP4 PUSH1 0x1 PUSH2 0x766 JUMP JUMPDEST POP POP POP JUMP JUMPDEST PUSH0 PUSH2 0x5EE DUP5 DUP5 PUSH2 0x542 JUMP JUMPDEST SWAP1 POP PUSH32 0xFFFFFFFFFFFFFFFFFFFFFFFFFFFFFFFFFFFFFFFFFFFFFFFFFFFFFFFFFFFFFFFF DUP2 LT ISZERO PUSH2 0x670 JUMPI DUP2 DUP2 LT ISZERO PUSH2 0x661 JUMPI DUP3 DUP2 DUP4 PUSH1 0x40 MLOAD PUSH32 0xFB8F41B200000000000000000000000000000000000000000000000000000000 DUP2 MSTORE PUSH1 0x4 ADD PUSH2 0x658 SWAP4 SWAP3 SWAP2 SWAP1 PUSH2 0xFF2 JUMP JUMPDEST PUSH1 0x40 MLOAD DUP1 SWAP2 SUB SWAP1 REVERT JUMPDEST PUSH2 0x66F DUP5 DUP5 DUP5 DUP5 SUB PUSH0 PUSH2 0x766 JUMP JUMPDEST JUMPDEST POP POP POP POP JUMP JUMPDEST PUSH0 PUSH20 0xFFFFFFFFFFFFFFFFFFFFFFFFFFFFFFFFFFFFFFFF AND DUP4 PUSH20 0xFFFFFFFFFFFFFFFFFFFFFFFFFFFFFFFFFFFFFFFF AND SUB PUSH2 0x6E6 JUMPI PUSH0 PUSH1 0x40 MLOAD PUSH32 0x96C6FD1E00000000000000000000000000000000000000000000000000000000 DUP2 MSTORE PUSH1 0x4 ADD PUSH2 0x6DD SWAP2 SWAP1 PUSH2 0x1027 JUMP JUMPDEST PUSH1 0x40 MLOAD DUP1 SWAP2 SUB SWAP1 REVERT JUMPDEST PUSH0 PUSH20 0xFFFFFFFFFFFFFFFFFFFFFFFFFFFFFFFFFFFFFFFF AND DUP3 PUSH20 0xFFFFFFFFFFFFFFFFFFFFFFFFFFFFFFFFFFFFFFFF AND SUB PUSH2 0x756 JUMPI PUSH0 PUSH1 0x40 MLOAD PUSH32 0xEC442F0500000000000000000000000000000000000000000000000000000000 DUP2 MSTORE PUSH1 0x4 ADD PUSH2 0x74D SWAP2 SWAP1 PUSH2 0x1027 JUMP JUMPDEST PUSH1 0x40 MLOAD DUP1 SWAP2 SUB SWAP1 REVERT JUMPDEST PUSH2 0x761 DUP4 DUP4 DUP4 PUSH2 0x935 JUMP JUMPDEST POP POP POP JUMP JUMPDEST PUSH0 PUSH20 0xFFFFFFFFFFFFFFFFFFFFFFFFFFFFFFFFFFFFFFFF AND DUP5 PUSH20 0xFFFFFFFFFFFFFFFFFFFFFFFFFFFFFFFFFFFFFFFF AND SUB PUSH2 0x7D6 JUMPI PUSH0 PUSH1 0x40 MLOAD PUSH32 0xE602DF0500000000000000000000000000000000000000000000000000000000 DUP2 MSTORE PUSH1 0x4 ADD PUSH2 0x7CD SWAP2 SWAP1 PUSH2 0x1027 JUMP JUMPDEST PUSH1 0x40 MLOAD DUP1 SWAP2 SUB SWAP1 REVERT JUMPDEST PUSH0 PUSH20 0xFFFFFFFFFFFFFFFFFFFFFFFFFFFFFFFFFFFFFFFF AND DUP4 PUSH20 0xFFFFFFFFFFFFFFFFFFFFFFFFFFFFFFFFFFFFFFFF AND SUB PUSH2 0x846 JUMPI PUSH0 PUSH1 0x40 MLOAD PUSH32 0x94280D6200000000000000000000000000000000000000000000000000000000 DUP2 MSTORE PUSH1 0x4 ADD PUSH2 0x83D SWAP2 SWAP1 PUSH2 0x1027 JUMP JUMPDEST PUSH1 0x40 MLOAD DUP1 SWAP2 SUB SWAP1 REVERT JUMPDEST DUP2 PUSH1 0x1 PUSH0 DUP7 PUSH20 0xFFFFFFFFFFFFFFFFFFFFFFFFFFFFFFFFFFFFFFFF AND PUSH20 0xFFFFFFFFFFFFFFFFFFFFFFFFFFFFFFFFFFFFFFFF AND DUP2 MSTORE PUSH1 0x20 ADD SWAP1 DUP2 MSTORE PUSH1 0x20 ADD PUSH0 KECCAK256 PUSH0 DUP6 PUSH20 0xFFFFFFFFFFFFFFFFFFFFFFFFFFFFFFFFFFFFFFFF AND PUSH20 0xFFFFFFFFFFFFFFFFFFFFFFFFFFFFFFFFFFFFFFFF AND DUP2 MSTORE PUSH1 0x20 ADD SWAP1 DUP2 MSTORE PUSH1 0x20 ADD PUSH0 KECCAK256 DUP2 SWAP1 SSTORE POP DUP1 ISZERO PUSH2 0x92F JUMPI DUP3 PUSH20 0xFFFFFFFFFFFFFFFFFFFFFFFFFFFFFFFFFFFFFFFF AND DUP5 PUSH20 0xFFFFFFFFFFFFFFFFFFFFFFFFFFFFFFFFFFFFFFFF AND PUSH32 0x8C5BE1E5EBEC7D5BD14F71427D1E84F3DD0314C0F7B2291E5B200AC8C7C3B925 DUP5 PUSH1 0x40 MLOAD PUSH2 0x926 SWAP2 SWAP1 PUSH2 0xCEF JUMP JUMPDEST PUSH1 0x40 MLOAD DUP1 SWAP2 SUB SWAP1 LOG3 JUMPDEST POP POP POP POP JUMP JUMPDEST PUSH0 PUSH20 0xFFFFFFFFFFFFFFFFFFFFFFFFFFFFFFFFFFFFFFFF AND DUP4 PUSH20 0xFFFFFFFFFFFFFFFFFFFFFFFFFFFFFFFFFFFFFFFF AND SUB PUSH2 0x985 JUMPI DUP1 PUSH1 0x2 PUSH0 DUP3 DUP3 SLOAD PUSH2 0x979 SWAP2 SWAP1 PUSH2 0x1040 JUMP JUMPDEST SWAP3 POP POP DUP2 SWAP1 SSTORE POP PUSH2 0xA53 JUMP JUMPDEST PUSH0 DUP1 PUSH0 DUP6 PUSH20 0xFFFFFFFFFFFFFFFFFFFFFFFFFFFFFFFFFFFFFFFF AND PUSH20 0xFFFFFFFFFFFFFFFFFFFFFFFFFFFFFFFFFFFFFFFF AND DUP2 MSTORE PUSH1 0x20 ADD SWAP1 DUP2 MSTORE PUSH1 0x20 ADD PUSH0 KECCAK256 SLOAD SWAP1 POP DUP2 DUP2 LT ISZERO PUSH2 0xA0E JUMPI DUP4 DUP2 DUP4 PUSH1 0x40 MLOAD PUSH32 0xE450D38C00000000000000000000000000000000000000000000000000000000 DUP2 MSTORE PUSH1 0x4 ADD PUSH2 0xA05 SWAP4 SWAP3 SWAP2 SWAP1 PUSH2 0xFF2 JUMP JUMPDEST PUSH1 0x40 MLOAD DUP1 SWAP2 SUB SWAP1 REVERT JUMPDEST DUP2 DUP2 SUB PUSH0 DUP1 DUP7 PUSH20 0xFFFFFFFFFFFFFFFFFFFFFFFFFFFFFFFFFFFFFFFF AND PUSH20 0xFFFFFFFFFFFFFFFFFFFFFFFFFFFFFFFFFFFFFFFF AND DUP2 MSTORE PUSH1 0x20 ADD SWAP1 DUP2 MSTORE PUSH1 0x20 ADD PUSH0 KECCAK256 DUP2 SWAP1 SSTORE POP POP JUMPDEST PUSH0 PUSH20 0xFFFFFFFFFFFFFFFFFFFFFFFFFFFFFFFFFFFFFFFF AND DUP3 PUSH20 0xFFFFFFFFFFFFFFFFFFFFFFFFFFFFFFFFFFFFFFFF AND SUB PUSH2 0xA9A JUMPI DUP1 PUSH1 0x2 PUSH0 DUP3 DUP3 SLOAD SUB SWAP3 POP POP DUP2 SWAP1 SSTORE POP PUSH2 0xAE4 JUMP JUMPDEST DUP1 PUSH0 DUP1 DUP5 PUSH20 0xFFFFFFFFFFFFFFFFFFFFFFFFFFFFFFFFFFFFFFFF AND PUSH20 0xFFFFFFFFFFFFFFFFFFFFFFFFFFFFFFFFFFFFFFFF AND DUP2 MSTORE PUSH1 0x20 ADD SWAP1 DUP2 MSTORE PUSH1 0x20 ADD PUSH0 KECCAK256 PUSH0 DUP3 DUP3 SLOAD ADD SWAP3 POP POP DUP2 SWAP1 SSTORE POP JUMPDEST DUP2 PUSH20 0xFFFFFFFFFFFFFFFFFFFFFFFFFFFFFFFFFFFFFFFF AND DUP4 PUSH20 0xFFFFFFFFFFFFFFFFFFFFFFFFFFFFFFFFFFFFFFFF AND PUSH32 0xDDF252AD1BE2C89B69C2B068FC378DAA952BA7F163C4A11628F55A4DF523B3EF DUP4 PUSH1 0x40 MLOAD PUSH2 0xB41 SWAP2 SWAP1 PUSH2 0xCEF JUMP JUMPDEST PUSH1 0x40 MLOAD DUP1 SWAP2 SUB SWAP1 LOG3 POP POP POP JUMP JUMPDEST PUSH0 DUP2 MLOAD SWAP1 POP SWAP2 SWAP1 POP JUMP JUMPDEST PUSH0 DUP3 DUP3 MSTORE PUSH1 0x20 DUP3 ADD SWAP1 POP SWAP3 SWAP2 POP POP JUMP JUMPDEST DUP3 DUP2 DUP4 MCOPY PUSH0 DUP4 DUP4 ADD MSTORE POP POP POP JUMP JUMPDEST PUSH0 PUSH1 0x1F NOT PUSH1 0x1F DUP4 ADD AND SWAP1 POP SWAP2 SWAP1 POP JUMP JUMPDEST PUSH0 PUSH2 0xB90 DUP3 PUSH2 0xB4E JUMP JUMPDEST PUSH2 0xB9A DUP2 DUP6 PUSH2 0xB58 JUMP JUMPDEST SWAP4 POP PUSH2 0xBAA DUP2 DUP6 PUSH1 0x20 DUP7 ADD PUSH2 0xB68 JUMP JUMPDEST PUSH2 0xBB3 DUP2 PUSH2 0xB76 JUMP JUMPDEST DUP5 ADD SWAP2 POP POP SWAP3 SWAP2 POP POP JUMP JUMPDEST PUSH0 PUSH1 0x20 DUP3 ADD SWAP1 POP DUP2 DUP2 SUB PUSH0 DUP4 ADD MSTORE PUSH2 0xBD6 DUP2 DUP5 PUSH2 0xB86 JUMP JUMPDEST SWAP1 POP SWAP3 SWAP2 POP POP JUMP JUMPDEST PUSH0 DUP1 REVERT JUMPDEST PUSH0 PUSH20 0xFFFFFFFFFFFFFFFFFFFFFFFFFFFFFFFFFFFFFFFF DUP3 AND SWAP1 POP SWAP2 SWAP1 POP JUMP JUMPDEST PUSH0 PUSH2 0xC0B DUP3 PUSH2 0xBE2 JUMP JUMPDEST SWAP1 POP SWAP2 SWAP1 POP JUMP JUMPDEST PUSH2 0xC1B DUP2 PUSH2 0xC01 JUMP JUMPDEST DUP2 EQ PUSH2 0xC25 JUMPI PUSH0 DUP1 REVERT JUMPDEST POP JUMP JUMPDEST PUSH0 DUP2 CALLDATALOAD SWAP1 POP PUSH2 0xC36 DUP2 PUSH2 0xC12 JUMP JUMPDEST SWAP3 SWAP2 POP POP JUMP JUMPDEST PUSH0 DUP2 SWAP1 POP SWAP2 SWAP1 POP JUMP JUMPDEST PUSH2 0xC4E DUP2 PUSH2 0xC3C JUMP JUMPDEST DUP2 EQ PUSH2 0xC58 JUMPI PUSH0 DUP1 REVERT JUMPDEST POP JUMP JUMPDEST PUSH0 DUP2 CALLDATALOAD SWAP1 POP PUSH2 0xC69 DUP2 PUSH2 0xC45 JUMP JUMPDEST SWAP3 SWAP2 POP POP JUMP JUMPDEST PUSH0 DUP1 PUSH1 0x40 DUP4 DUP6 SUB SLT ISZERO PUSH2 0xC85 JUMPI PUSH2 0xC84 PUSH2 0xBDE JUMP JUMPDEST JUMPDEST PUSH0 PUSH2 0xC92 DUP6 DUP3 DUP7 ADD PUSH2 0xC28 JUMP JUMPDEST SWAP3 POP POP PUSH1 0x20 PUSH2 0xCA3 DUP6 DUP3 DUP7 ADD PUSH2 0xC5B JUMP JUMPDEST SWAP2 POP POP SWAP3 POP SWAP3 SWAP1 POP JUMP JUMPDEST PUSH0 DUP2 ISZERO ISZERO SWAP1 POP SWAP2 SWAP1 POP JUMP JUMPDEST PUSH2 0xCC1 DUP2 PUSH2 0xCAD JUMP JUMPDEST DUP3 MSTORE POP POP JUMP JUMPDEST PUSH0 PUSH1 0x20 DUP3 ADD SWAP1 POP PUSH2 0xCDA PUSH0 DUP4 ADD DUP5 PUSH2 0xCB8 JUMP JUMPDEST SWAP3 SWAP2 POP POP JUMP JUMPDEST PUSH2 0xCE9 DUP2 PUSH2 0xC3C JUMP JUMPDEST DUP3 MSTORE POP POP JUMP JUMPDEST PUSH0 PUSH1 0x20 DUP3 ADD SWAP1 POP PUSH2 0xD02 PUSH0 DUP4 ADD DUP5 PUSH2 0xCE0 JUMP JUMPDEST SWAP3 SWAP2 POP POP JUMP JUMPDEST PUSH0 DUP1 PUSH0 PUSH1 0x60 DUP5 DUP7 SUB SLT ISZERO PUSH2 0xD1F JUMPI PUSH2 0xD1E PUSH2 0xBDE JUMP JUMPDEST JUMPDEST PUSH0 PUSH2 0xD2C DUP7 DUP3 DUP8 ADD PUSH2 0xC28 JUMP JUMPDEST SWAP4 POP POP PUSH1 0x20 PUSH2 0xD3D DUP7 DUP3 DUP8 ADD PUSH2 0xC28 JUMP JUMPDEST SWAP3 POP POP PUSH1 0x40 PUSH2 0xD4E DUP7 DUP3 DUP8 ADD PUSH2 0xC5B JUMP JUMPDEST SWAP2 POP POP SWAP3 POP SWAP3 POP SWAP3 JUMP JUMPDEST PUSH0 PUSH1 0xFF DUP3 AND SWAP1 POP SWAP2 SWAP1 POP JUMP JUMPDEST PUSH2 0xD6D DUP2 PUSH2 0xD58 JUMP JUMPDEST DUP3 MSTORE POP POP JUMP JUMPDEST PUSH0 PUSH1 0x20 DUP3 ADD SWAP1 POP PUSH2 0xD86 PUSH0 DUP4 ADD DUP5 PUSH2 0xD64 JUMP JUMPDEST SWAP3 SWAP2 POP POP JUMP JUMPDEST PUSH0 PUSH1 0x20 DUP3 DUP5 SUB SLT ISZERO PUSH2 0xDA1 JUMPI PUSH2 0xDA0 PUSH2 0xBDE JUMP JUMPDEST JUMPDEST PUSH0 PUSH2 0xDAE DUP5 DUP3 DUP6 ADD PUSH2 0xC5B JUMP JUMPDEST SWAP2 POP POP SWAP3 SWAP2 POP POP JUMP JUMPDEST PUSH0 PUSH1 0x20 DUP3 DUP5 SUB SLT ISZERO PUSH2 0xDCC JUMPI PUSH2 0xDCB PUSH2 0xBDE JUMP JUMPDEST JUMPDEST PUSH0 PUSH2 0xDD9 DUP5 DUP3 DUP6 ADD PUSH2 0xC28 JUMP JUMPDEST SWAP2 POP POP SWAP3 SWAP2 POP POP JUMP JUMPDEST PUSH0 DUP1 PUSH1 0x40 DUP4 DUP6 SUB SLT ISZERO PUSH2 0xDF8 JUMPI PUSH2 0xDF7 PUSH2 0xBDE JUMP JUMPDEST JUMPDEST PUSH0 PUSH2 0xE05 DUP6 DUP3 DUP7 ADD PUSH2 0xC28 JUMP JUMPDEST SWAP3 POP POP PUSH1 0x20 PUSH2 0xE16 DUP6 DUP3 DUP7 ADD PUSH2 0xC28 JUMP JUMPDEST SWAP2 POP POP SWAP3 POP SWAP3 SWAP1 POP JUMP JUMPDEST PUSH32 0x4E487B7100000000000000000000000000000000000000000000000000000000 PUSH0 MSTORE PUSH1 0x22 PUSH1 0x4 MSTORE PUSH1 0x24 PUSH0 REVERT JUMPDEST PUSH0 PUSH1 0x2 DUP3 DIV SWAP1 POP PUSH1 0x1 DUP3 AND DUP1 PUSH2 0xE64 JUMPI PUSH1 0x7F DUP3 AND SWAP2 POP JUMPDEST PUSH1 0x20 DUP3 LT DUP2 SUB PUSH2 0xE77 JUMPI PUSH2 0xE76 PUSH2 0xE20 JUMP JUMPDEST JUMPDEST POP SWAP2 SWAP1 POP JUMP JUMPDEST PUSH32 0x4E6F7420616E206F776E65720000000000000000000000000000000000000000 PUSH0 DUP3 ADD MSTORE POP JUMP JUMPDEST PUSH0 PUSH2 0xEB1 PUSH1 0xC DUP4 PUSH2 0xB58 JUMP JUMPDEST SWAP2 POP PUSH2 0xEBC DUP3 PUSH2 0xE7D JUMP JUMPDEST PUSH1 0x20 DUP3 ADD SWAP1 POP SWAP2 SWAP1 POP JUMP JUMPDEST PUSH0 PUSH1 0x20 DUP3 ADD SWAP1 POP DUP2 DUP2 SUB PUSH0 DUP4 ADD MSTORE PUSH2 0xEDE DUP2 PUSH2 0xEA5 JUMP JUMPDEST SWAP1 POP SWAP2 SWAP1 POP JUMP JUMPDEST PUSH32 0x4E487B7100000000000000000000000000000000000000000000000000000000 PUSH0 MSTORE PUSH1 0x11 PUSH1 0x4 MSTORE PUSH1 0x24 PUSH0 REVERT JUMPDEST PUSH0 PUSH2 0xF1C DUP3 PUSH2 0xC3C JUMP JUMPDEST SWAP2 POP PUSH2 0xF27 DUP4 PUSH2 0xC3C JUMP JUMPDEST SWAP3 POP DUP3 DUP3 MUL PUSH2 0xF35 DUP2 PUSH2 0xC3C JUMP JUMPDEST SWAP2 POP DUP3 DUP3 DIV DUP5 EQ DUP4 ISZERO OR PUSH2 0xF4C JUMPI PUSH2 0xF4B PUSH2 0xEE5 JUMP JUMPDEST JUMPDEST POP SWAP3 SWAP2 POP POP JUMP JUMPDEST PUSH32 0x4E487B7100000000000000000000000000000000000000000000000000000000 PUSH0 MSTORE PUSH1 0x12 PUSH1 0x4 MSTORE PUSH1 0x24 PUSH0 REVERT JUMPDEST PUSH0 PUSH2 0xF8A DUP3 PUSH2 0xC3C JUMP JUMPDEST SWAP2 POP PUSH2 0xF95 DUP4 PUSH2 0xC3C JUMP JUMPDEST SWAP3 POP DUP3 PUSH2 0xFA5 JUMPI PUSH2 0xFA4 PUSH2 0xF53 JUMP JUMPDEST JUMPDEST DUP3 DUP3 DIV SWAP1 POP SWAP3 SWAP2 POP POP JUMP JUMPDEST PUSH0 PUSH2 0xFBA DUP3 PUSH2 0xC3C JUMP JUMPDEST SWAP2 POP PUSH2 0xFC5 DUP4 PUSH2 0xC3C JUMP JUMPDEST SWAP3 POP DUP3 DUP3 SUB SWAP1 POP DUP2 DUP2 GT ISZERO PUSH2 0xFDD JUMPI PUSH2 0xFDC PUSH2 0xEE5 JUMP JUMPDEST JUMPDEST SWAP3 SWAP2 POP POP JUMP JUMPDEST PUSH2 0xFEC DUP2 PUSH2 0xC01 JUMP JUMPDEST DUP3 MSTORE POP POP JUMP JUMPDEST PUSH0 PUSH1 0x60 DUP3 ADD SWAP1 POP PUSH2 0x1005 PUSH0 DUP4 ADD DUP7 PUSH2 0xFE3 JUMP JUMPDEST PUSH2 0x1012 PUSH1 0x20 DUP4 ADD DUP6 PUSH2 0xCE0 JUMP JUMPDEST PUSH2 0x101F PUSH1 0x40 DUP4 ADD DUP5 PUSH2 0xCE0 JUMP JUMPDEST SWAP5 SWAP4 POP POP POP POP JUMP JUMPDEST PUSH0 PUSH1 0x20 DUP3 ADD SWAP1 POP PUSH2 0x103A PUSH0 DUP4 ADD DUP5 PUSH2 0xFE3 JUMP JUMPDEST SWAP3 SWAP2 POP POP JUMP JUMPDEST PUSH0 PUSH2 0x104A DUP3 PUSH2 0xC3C JUMP JUMPDEST SWAP2 POP PUSH2 0x1055 DUP4 PUSH2 0xC3C JUMP JUMPDEST SWAP3 POP DUP3 DUP3 ADD SWAP1 POP DUP1 DUP3 GT ISZERO PUSH2 0x106D JUMPI PUSH2 0x106C PUSH2 0xEE5 JUMP JUMPDEST JUMPDEST SWAP3 SWAP2 POP POP JUMP INVALID LOG2 PUSH5 0x6970667358 0x22 SLT KECCAK256 0xD1 0xDF SWAP3 SSTORE 0xC5 PUSH6 0xCB9400E0B1D7 BASEFEE DIV PUSH6 0x8D476F636DDA SWAP12 PUSH24 0xC3A7340335483335FD64736F6C634300081A003300000000 "
				},
				"gasEstimates": {
					"creation": {
						"codeDepositCost": "853000",
						"executionCost": "infinite",
						"totalCost": "infinite"
					},
					"external": {
						"allowance(address,address)": "infinite",
						"approve(address,uint256)": "infinite",
						"balanceOf(address)": "2851",
						"changeFee(uint256)": "24916",
						"decimals()": "427",
						"fee()": "2535",
						"name()": "infinite",
						"symbol()": "infinite",
						"totalSupply()": "2477",
						"transfer(address,uint256)": "infinite",
						"transferFrom(address,address,uint256)": "infinite"
					}
				},
				"methodIdentifiers": {
					"allowance(address,address)": "dd62ed3e",
					"approve(address,uint256)": "095ea7b3",
					"balanceOf(address)": "70a08231",
					"changeFee(uint256)": "6a1db1bf",
					"decimals()": "313ce567",
					"fee()": "ddca3f43",
					"name()": "06fdde03",
					"symbol()": "95d89b41",
					"totalSupply()": "18160ddd",
					"transfer(address,uint256)": "a9059cbb",
					"transferFrom(address,address,uint256)": "23b872dd"
				}
			},
			"storageLayout": {
				"storage": [
					{
						"astId": 279,
						"contract": "contracts/UmerToken_flattened.sol:UmerToken",
						"label": "_balances",
						"offset": 0,
						"slot": "0",
						"type": "t_mapping(t_address,t_uint256)"
					},
					{
						"astId": 285,
						"contract": "contracts/UmerToken_flattened.sol:UmerToken",
						"label": "_allowances",
						"offset": 0,
						"slot": "1",
						"type": "t_mapping(t_address,t_mapping(t_address,t_uint256))"
					},
					{
						"astId": 287,
						"contract": "contracts/UmerToken_flattened.sol:UmerToken",
						"label": "_totalSupply",
						"offset": 0,
						"slot": "2",
						"type": "t_uint256"
					},
					{
						"astId": 289,
						"contract": "contracts/UmerToken_flattened.sol:UmerToken",
						"label": "_name",
						"offset": 0,
						"slot": "3",
						"type": "t_string_storage"
					},
					{
						"astId": 291,
						"contract": "contracts/UmerToken_flattened.sol:UmerToken",
						"label": "_symbol",
						"offset": 0,
						"slot": "4",
						"type": "t_string_storage"
					},
					{
						"astId": 361,
						"contract": "contracts/UmerToken_flattened.sol:UmerToken",
						"label": "fee",
						"offset": 0,
						"slot": "5",
						"type": "t_uint256"
					},
					{
						"astId": 365,
						"contract": "contracts/UmerToken_flattened.sol:UmerToken",
						"label": "_owner",
						"offset": 0,
						"slot": "6",
						"type": "t_address"
					}
				],
				"types": {
					"t_address": {
						"encoding": "inplace",
						"label": "address",
						"numberOfBytes": "20"
					},
					"t_mapping(t_address,t_mapping(t_address,t_uint256))": {
						"encoding": "mapping",
						"key": "t_address",
						"label": "mapping(address => mapping(address => uint256))",
						"numberOfBytes": "32",
						"value": "t_mapping(t_address,t_uint256)"
					},
					"t_mapping(t_address,t_uint256)": {
						"encoding": "mapping",
						"key": "t_address",
						"label": "mapping(address => uint256)",
						"numberOfBytes": "32",
						"value": "t_uint256"
					},
					"t_string_storage": {
						"encoding": "bytes",
						"label": "string",
						"numberOfBytes": "32"
					},
					"t_uint256": {
						"encoding": "inplace",
						"label": "uint256",
						"numberOfBytes": "32"
					}
				}
			},
			"userdoc": {
				"kind": "user",
				"methods": {},
				"version": 1
			}
		}
	}
}