{
	"contracts/Swap.sol": {
		"Swapping": {
			"abi": [
				{
					"inputs": [
						{
							"internalType": "address",
							"name": "_tokenA",
							"type": "address"
						},
						{
							"internalType": "address",
							"name": "_tokenB",
							"type": "address"
						},
						{
							"internalType": "uint256",
							"name": "_rate",
							"type": "uint256"
						}
					],
					"stateMutability": "nonpayable",
					"type": "constructor"
				},
				{
					"anonymous": false,
					"inputs": [
						{
							"indexed": false,
							"internalType": "address",
							"name": "tokenA",
							"type": "address"
						},
						{
							"indexed": false,
							"internalType": "address",
							"name": "tokenB",
							"type": "address"
						},
						{
							"indexed": false,
							"internalType": "uint256",
							"name": "rate",
							"type": "uint256"
						}
					],
					"name": "swapped",
					"type": "event"
				},
				{
					"inputs": [
						{
							"internalType": "uint256",
							"name": "amount",
							"type": "uint256"
						}
					],
					"name": "swapFunc",
					"outputs": [],
					"stateMutability": "nonpayable",
					"type": "function"
				}
			],
			"devdoc": {
				"kind": "dev",
				"methods": {},
				"version": 1
			},
			"evm": {
				"assembly": "    /* \"contracts/Swap.sol\":567:1176  contract Swapping {... */\n  mstore(0x40, 0x80)\n    /* \"contracts/Swap.sol\":713:873  constructor (address _tokenA, address _tokenB, uint _rate) {... */\n  callvalue\n  dup1\n  iszero\n  tag_1\n  jumpi\n  0x00\n  dup1\n  revert\ntag_1:\n  pop\n  mload(0x40)\n  sub(codesize, bytecodeSize)\n  dup1\n  bytecodeSize\n  dup4\n  codecopy\n  dup2\n  dup2\n  add\n  0x40\n  mstore\n  dup2\n  add\n  swap1\n  tag_2\n  swap2\n  swap1\n  tag_3\n  jump\t// in\ntag_2:\n    /* \"contracts/Swap.sol\":799:806  _tokenA */\n  dup3\n    /* \"contracts/Swap.sol\":783:789  tokenA */\n  0x00\n  dup1\n    /* \"contracts/Swap.sol\":783:807  tokenA = IERC20(_tokenA) */\n  0x0100\n  exp\n  dup2\n  sload\n  dup2\n  0xffffffffffffffffffffffffffffffffffffffff\n  mul\n  not\n  and\n  swap1\n  dup4\n  0xffffffffffffffffffffffffffffffffffffffff\n  and\n  mul\n  or\n  swap1\n  sstore\n  pop\n    /* \"contracts/Swap.sol\":834:841  _tokenB */\n  dup2\n    /* \"contracts/Swap.sol\":818:824  tokenB */\n  0x01\n  0x00\n    /* \"contracts/Swap.sol\":818:842  tokenB = IERC20(_tokenB) */\n  0x0100\n  exp\n  dup2\n  sload\n  dup2\n  0xffffffffffffffffffffffffffffffffffffffff\n  mul\n  not\n  and\n  swap1\n  dup4\n  0xffffffffffffffffffffffffffffffffffffffff\n  and\n  mul\n  or\n  swap1\n  sstore\n  pop\n    /* \"contracts/Swap.sol\":860:865  _rate */\n  dup1\n    /* \"contracts/Swap.sol\":853:857  rate */\n  0x02\n    /* \"contracts/Swap.sol\":853:865  rate = _rate */\n  dup2\n  swap1\n  sstore\n  pop\n    /* \"contracts/Swap.sol\":713:873  constructor (address _tokenA, address _tokenB, uint _rate) {... */\n  pop\n  pop\n  pop\n    /* \"contracts/Swap.sol\":567:1176  contract Swapping {... */\n  jump(tag_6)\n    /* \"#utility.yul\":88:205   */\ntag_8:\n    /* \"#utility.yul\":197:198   */\n  0x00\n    /* \"#utility.yul\":194:195   */\n  dup1\n    /* \"#utility.yul\":187:199   */\n  revert\n    /* \"#utility.yul\":334:460   */\ntag_10:\n    /* \"#utility.yul\":371:378   */\n  0x00\n    /* \"#utility.yul\":411:453   */\n  0xffffffffffffffffffffffffffffffffffffffff\n    /* \"#utility.yul\":404:409   */\n  dup3\n    /* \"#utility.yul\":400:454   */\n  and\n    /* \"#utility.yul\":389:454   */\n  swap1\n  pop\n    /* \"#utility.yul\":334:460   */\n  swap2\n  swap1\n  pop\n  jump\t// out\n    /* \"#utility.yul\":466:562   */\ntag_11:\n    /* \"#utility.yul\":503:510   */\n  0x00\n    /* \"#utility.yul\":532:556   */\n  tag_23\n    /* \"#utility.yul\":550:555   */\n  dup3\n    /* \"#utility.yul\":532:556   */\n  tag_10\n  jump\t// in\ntag_23:\n    /* \"#utility.yul\":521:556   */\n  swap1\n  pop\n    /* \"#utility.yul\":466:562   */\n  swap2\n  swap1\n  pop\n  jump\t// out\n    /* \"#utility.yul\":568:690   */\ntag_12:\n    /* \"#utility.yul\":641:665   */\n  tag_25\n    /* \"#utility.yul\":659:664   */\n  dup2\n    /* \"#utility.yul\":641:665   */\n  tag_11\n  jump\t// in\ntag_25:\n    /* \"#utility.yul\":634:639   */\n  dup2\n    /* \"#utility.yul\":631:666   */\n  eq\n    /* \"#utility.yul\":621:684   */\n  tag_26\n  jumpi\n    /* \"#utility.yul\":680:681   */\n  0x00\n    /* \"#utility.yul\":677:678   */\n  dup1\n    /* \"#utility.yul\":670:682   */\n  revert\n    /* \"#utility.yul\":621:684   */\ntag_26:\n    /* \"#utility.yul\":568:690   */\n  pop\n  jump\t// out\n    /* \"#utility.yul\":696:839   */\ntag_13:\n    /* \"#utility.yul\":753:758   */\n  0x00\n    /* \"#utility.yul\":784:790   */\n  dup2\n    /* \"#utility.yul\":778:791   */\n  mload\n    /* \"#utility.yul\":769:791   */\n  swap1\n  pop\n    /* \"#utility.yul\":800:833   */\n  tag_28\n    /* \"#utility.yul\":827:832   */\n  dup2\n    /* \"#utility.yul\":800:833   */\n  tag_12\n  jump\t// in\ntag_28:\n    /* \"#utility.yul\":696:839   */\n  swap3\n  swap2\n  pop\n  pop\n  jump\t// out\n    /* \"#utility.yul\":845:922   */\ntag_14:\n    /* \"#utility.yul\":882:889   */\n  0x00\n    /* \"#utility.yul\":911:916   */\n  dup2\n    /* \"#utility.yul\":900:916   */\n  swap1\n  pop\n    /* \"#utility.yul\":845:922   */\n  swap2\n  swap1\n  pop\n  jump\t// out\n    /* \"#utility.yul\":928:1050   */\ntag_15:\n    /* \"#utility.yul\":1001:1025   */\n  tag_31\n    /* \"#utility.yul\":1019:1024   */\n  dup2\n    /* \"#utility.yul\":1001:1025   */\n  tag_14\n  jump\t// in\ntag_31:\n    /* \"#utility.yul\":994:999   */\n  dup2\n    /* \"#utility.yul\":991:1026   */\n  eq\n    /* \"#utility.yul\":981:1044   */\n  tag_32\n  jumpi\n    /* \"#utility.yul\":1040:1041   */\n  0x00\n    /* \"#utility.yul\":1037:1038   */\n  dup1\n    /* \"#utility.yul\":1030:1042   */\n  revert\n    /* \"#utility.yul\":981:1044   */\ntag_32:\n    /* \"#utility.yul\":928:1050   */\n  pop\n  jump\t// out\n    /* \"#utility.yul\":1056:1199   */\ntag_16:\n    /* \"#utility.yul\":1113:1118   */\n  0x00\n    /* \"#utility.yul\":1144:1150   */\n  dup2\n    /* \"#utility.yul\":1138:1151   */\n  mload\n    /* \"#utility.yul\":1129:1151   */\n  swap1\n  pop\n    /* \"#utility.yul\":1160:1193   */\n  tag_34\n    /* \"#utility.yul\":1187:1192   */\n  dup2\n    /* \"#utility.yul\":1160:1193   */\n  tag_15\n  jump\t// in\ntag_34:\n    /* \"#utility.yul\":1056:1199   */\n  swap3\n  swap2\n  pop\n  pop\n  jump\t// out\n    /* \"#utility.yul\":1205:1868   */\ntag_3:\n    /* \"#utility.yul\":1293:1299   */\n  0x00\n    /* \"#utility.yul\":1301:1307   */\n  dup1\n    /* \"#utility.yul\":1309:1315   */\n  0x00\n    /* \"#utility.yul\":1358:1360   */\n  0x60\n    /* \"#utility.yul\":1346:1355   */\n  dup5\n    /* \"#utility.yul\":1337:1344   */\n  dup7\n    /* \"#utility.yul\":1333:1356   */\n  sub\n    /* \"#utility.yul\":1329:1361   */\n  slt\n    /* \"#utility.yul\":1326:1445   */\n  iszero\n  tag_36\n  jumpi\n    /* \"#utility.yul\":1364:1443   */\n  tag_37\n  tag_8\n  jump\t// in\ntag_37:\n    /* \"#utility.yul\":1326:1445   */\ntag_36:\n    /* \"#utility.yul\":1484:1485   */\n  0x00\n    /* \"#utility.yul\":1509:1573   */\n  tag_38\n    /* \"#utility.yul\":1565:1572   */\n  dup7\n    /* \"#utility.yul\":1556:1562   */\n  dup3\n    /* \"#utility.yul\":1545:1554   */\n  dup8\n    /* \"#utility.yul\":1541:1563   */\n  add\n    /* \"#utility.yul\":1509:1573   */\n  tag_13\n  jump\t// in\ntag_38:\n    /* \"#utility.yul\":1499:1573   */\n  swap4\n  pop\n    /* \"#utility.yul\":1455:1583   */\n  pop\n    /* \"#utility.yul\":1622:1624   */\n  0x20\n    /* \"#utility.yul\":1648:1712   */\n  tag_39\n    /* \"#utility.yul\":1704:1711   */\n  dup7\n    /* \"#utility.yul\":1695:1701   */\n  dup3\n    /* \"#utility.yul\":1684:1693   */\n  dup8\n    /* \"#utility.yul\":1680:1702   */\n  add\n    /* \"#utility.yul\":1648:1712   */\n  tag_13\n  jump\t// in\ntag_39:\n    /* \"#utility.yul\":1638:1712   */\n  swap3\n  pop\n    /* \"#utility.yul\":1593:1722   */\n  pop\n    /* \"#utility.yul\":1761:1763   */\n  0x40\n    /* \"#utility.yul\":1787:1851   */\n  tag_40\n    /* \"#utility.yul\":1843:1850   */\n  dup7\n    /* \"#utility.yul\":1834:1840   */\n  dup3\n    /* \"#utility.yul\":1823:1832   */\n  dup8\n    /* \"#utility.yul\":1819:1841   */\n  add\n    /* \"#utility.yul\":1787:1851   */\n  tag_16\n  jump\t// in\ntag_40:\n    /* \"#utility.yul\":1777:1851   */\n  swap2\n  pop\n    /* \"#utility.yul\":1732:1861   */\n  pop\n    /* \"#utility.yul\":1205:1868   */\n  swap3\n  pop\n  swap3\n  pop\n  swap3\n  jump\t// out\n    /* \"contracts/Swap.sol\":567:1176  contract Swapping {... */\ntag_6:\n  dataSize(sub_0)\n  dup1\n  dataOffset(sub_0)\n  0x00\n  codecopy\n  0x00\n  return\nstop\n\nsub_0: assembly {\n        /* \"contracts/Swap.sol\":567:1176  contract Swapping {... */\n      mstore(0x40, 0x80)\n      callvalue\n      dup1\n      iszero\n      tag_1\n      jumpi\n      0x00\n      dup1\n      revert\n    tag_1:\n      pop\n      jumpi(tag_2, lt(calldatasize, 0x04))\n      shr(0xe0, calldataload(0x00))\n      dup1\n      0xb374d19b\n      eq\n      tag_3\n      jumpi\n    tag_2:\n      0x00\n      dup1\n      revert\n        /* \"contracts/Swap.sol\":881:1173  function swapFunc(uint amount) external {... */\n    tag_3:\n      tag_4\n      0x04\n      dup1\n      calldatasize\n      sub\n      dup2\n      add\n      swap1\n      tag_5\n      swap2\n      swap1\n      tag_6\n      jump\t// in\n    tag_5:\n      tag_7\n      jump\t// in\n    tag_4:\n      stop\n    tag_7:\n        /* \"contracts/Swap.sol\":949:950  0 */\n      0x00\n        /* \"contracts/Swap.sol\":940:946  amount */\n      dup2\n        /* \"contracts/Swap.sol\":940:950  amount > 0 */\n      gt\n        /* \"contracts/Swap.sol\":932:986  require(amount > 0, \"Amount should be greater than 0\") */\n      tag_9\n      jumpi\n      mload(0x40)\n      0x08c379a000000000000000000000000000000000000000000000000000000000\n      dup2\n      mstore\n      0x04\n      add\n      tag_10\n      swap1\n      tag_11\n      jump\t// in\n    tag_10:\n      mload(0x40)\n      dup1\n      swap2\n      sub\n      swap1\n      revert\n    tag_9:\n        /* \"contracts/Swap.sol\":997:1003  tokenA */\n      0x00\n      dup1\n      sload\n      swap1\n      0x0100\n      exp\n      swap1\n      div\n      0xffffffffffffffffffffffffffffffffffffffff\n      and\n        /* \"contracts/Swap.sol\":997:1016  tokenA.transferFrom */\n      0xffffffffffffffffffffffffffffffffffffffff\n      and\n      0x23b872dd\n        /* \"contracts/Swap.sol\":1017:1027  msg.sender */\n      caller\n        /* \"contracts/Swap.sol\":1037:1041  this */\n      address\n        /* \"contracts/Swap.sol\":1051:1055  rate */\n      sload(0x02)\n        /* \"contracts/Swap.sol\":1044:1050  amount */\n      dup6\n        /* \"contracts/Swap.sol\":1044:1055  amount*rate */\n      tag_12\n      swap2\n      swap1\n      tag_13\n      jump\t// in\n    tag_12:\n        /* \"contracts/Swap.sol\":997:1056  tokenA.transferFrom(msg.sender, address(this), amount*rate) */\n      mload(0x40)\n      dup5\n      0xffffffff\n      and\n      0xe0\n      shl\n      dup2\n      mstore\n      0x04\n      add\n      tag_14\n      swap4\n      swap3\n      swap2\n      swap1\n      tag_15\n      jump\t// in\n    tag_14:\n      0x20\n      mload(0x40)\n      dup1\n      dup4\n      sub\n      dup2\n      0x00\n      dup8\n      gas\n      call\n      iszero\n      dup1\n      iszero\n      tag_17\n      jumpi\n      returndatasize\n      0x00\n      dup1\n      returndatacopy\n      revert(0x00, returndatasize)\n    tag_17:\n      pop\n      pop\n      pop\n      pop\n      mload(0x40)\n      returndatasize\n      not(0x1f)\n      0x1f\n      dup3\n      add\n      and\n      dup3\n      add\n      dup1\n      0x40\n      mstore\n      pop\n      dup2\n      add\n      swap1\n      tag_18\n      swap2\n      swap1\n      tag_19\n      jump\t// in\n    tag_18:\n      pop\n        /* \"contracts/Swap.sol\":1067:1073  tokenB */\n      0x01\n      0x00\n      swap1\n      sload\n      swap1\n      0x0100\n      exp\n      swap1\n      div\n      0xffffffffffffffffffffffffffffffffffffffff\n      and\n        /* \"contracts/Swap.sol\":1067:1082  tokenB.transfer */\n      0xffffffffffffffffffffffffffffffffffffffff\n      and\n      0xa9059cbb\n        /* \"contracts/Swap.sol\":1083:1093  msg.sender */\n      caller\n        /* \"contracts/Swap.sol\":1095:1101  amount */\n      dup4\n        /* \"contracts/Swap.sol\":1067:1102  tokenB.transfer(msg.sender, amount) */\n      mload(0x40)\n      dup4\n      0xffffffff\n      and\n      0xe0\n      shl\n      dup2\n      mstore\n      0x04\n      add\n      tag_20\n      swap3\n      swap2\n      swap1\n      tag_21\n      jump\t// in\n    tag_20:\n      0x20\n      mload(0x40)\n      dup1\n      dup4\n      sub\n      dup2\n      0x00\n      dup8\n      gas\n      call\n      iszero\n      dup1\n      iszero\n      tag_23\n      jumpi\n      returndatasize\n      0x00\n      dup1\n      returndatacopy\n      revert(0x00, returndatasize)\n    tag_23:\n      pop\n      pop\n      pop\n      pop\n      mload(0x40)\n      returndatasize\n      not(0x1f)\n      0x1f\n      dup3\n      add\n      and\n      dup3\n      add\n      dup1\n      0x40\n      mstore\n      pop\n      dup2\n      add\n      swap1\n      tag_24\n      swap2\n      swap1\n      tag_19\n      jump\t// in\n    tag_24:\n      pop\n        /* \"contracts/Swap.sol\":1118:1165  swapped(address(tokenA), address(tokenB), rate) */\n      0x54445d9be7f7ec3692e5471a5c037b41185bd6ccfa8c29053e1e180ac459bd44\n        /* \"contracts/Swap.sol\":1134:1140  tokenA */\n      0x00\n      dup1\n      sload\n      swap1\n      0x0100\n      exp\n      swap1\n      div\n      0xffffffffffffffffffffffffffffffffffffffff\n      and\n        /* \"contracts/Swap.sol\":1151:1157  tokenB */\n      0x01\n      0x00\n      swap1\n      sload\n      swap1\n      0x0100\n      exp\n      swap1\n      div\n      0xffffffffffffffffffffffffffffffffffffffff\n      and\n        /* \"contracts/Swap.sol\":1160:1164  rate */\n      sload(0x02)\n        /* \"contracts/Swap.sol\":1118:1165  swapped(address(tokenA), address(tokenB), rate) */\n      mload(0x40)\n      tag_25\n      swap4\n      swap3\n      swap2\n      swap1\n      tag_15\n      jump\t// in\n    tag_25:\n      mload(0x40)\n      dup1\n      swap2\n      sub\n      swap1\n      log1\n        /* \"contracts/Swap.sol\":881:1173  function swapFunc(uint amount) external {... */\n      pop\n      jump\t// out\n        /* \"#utility.yul\":88:205   */\n    tag_27:\n        /* \"#utility.yul\":197:198   */\n      0x00\n        /* \"#utility.yul\":194:195   */\n      dup1\n        /* \"#utility.yul\":187:199   */\n      revert\n        /* \"#utility.yul\":334:411   */\n    tag_29:\n        /* \"#utility.yul\":371:378   */\n      0x00\n        /* \"#utility.yul\":400:405   */\n      dup2\n        /* \"#utility.yul\":389:405   */\n      swap1\n      pop\n        /* \"#utility.yul\":334:411   */\n      swap2\n      swap1\n      pop\n      jump\t// out\n        /* \"#utility.yul\":417:539   */\n    tag_30:\n        /* \"#utility.yul\":490:514   */\n      tag_49\n        /* \"#utility.yul\":508:513   */\n      dup2\n        /* \"#utility.yul\":490:514   */\n      tag_29\n      jump\t// in\n    tag_49:\n        /* \"#utility.yul\":483:488   */\n      dup2\n        /* \"#utility.yul\":480:515   */\n      eq\n        /* \"#utility.yul\":470:533   */\n      tag_50\n      jumpi\n        /* \"#utility.yul\":529:530   */\n      0x00\n        /* \"#utility.yul\":526:527   */\n      dup1\n        /* \"#utility.yul\":519:531   */\n      revert\n        /* \"#utility.yul\":470:533   */\n    tag_50:\n        /* \"#utility.yul\":417:539   */\n      pop\n      jump\t// out\n        /* \"#utility.yul\":545:684   */\n    tag_31:\n        /* \"#utility.yul\":591:596   */\n      0x00\n        /* \"#utility.yul\":629:635   */\n      dup2\n        /* \"#utility.yul\":616:636   */\n      calldataload\n        /* \"#utility.yul\":607:636   */\n      swap1\n      pop\n        /* \"#utility.yul\":645:678   */\n      tag_52\n        /* \"#utility.yul\":672:677   */\n      dup2\n        /* \"#utility.yul\":645:678   */\n      tag_30\n      jump\t// in\n    tag_52:\n        /* \"#utility.yul\":545:684   */\n      swap3\n      swap2\n      pop\n      pop\n      jump\t// out\n        /* \"#utility.yul\":690:1019   */\n    tag_6:\n        /* \"#utility.yul\":749:755   */\n      0x00\n        /* \"#utility.yul\":798:800   */\n      0x20\n        /* \"#utility.yul\":786:795   */\n      dup3\n        /* \"#utility.yul\":777:784   */\n      dup5\n        /* \"#utility.yul\":773:796   */\n      sub\n        /* \"#utility.yul\":769:801   */\n      slt\n        /* \"#utility.yul\":766:885   */\n      iszero\n      tag_54\n      jumpi\n        /* \"#utility.yul\":804:883   */\n      tag_55\n      tag_27\n      jump\t// in\n    tag_55:\n        /* \"#utility.yul\":766:885   */\n    tag_54:\n        /* \"#utility.yul\":924:925   */\n      0x00\n        /* \"#utility.yul\":949:1002   */\n      tag_56\n        /* \"#utility.yul\":994:1001   */\n      dup5\n        /* \"#utility.yul\":985:991   */\n      dup3\n        /* \"#utility.yul\":974:983   */\n      dup6\n        /* \"#utility.yul\":970:992   */\n      add\n        /* \"#utility.yul\":949:1002   */\n      tag_31\n      jump\t// in\n    tag_56:\n        /* \"#utility.yul\":939:1002   */\n      swap2\n      pop\n        /* \"#utility.yul\":895:1012   */\n      pop\n        /* \"#utility.yul\":690:1019   */\n      swap3\n      swap2\n      pop\n      pop\n      jump\t// out\n        /* \"#utility.yul\":1025:1194   */\n    tag_32:\n        /* \"#utility.yul\":1109:1120   */\n      0x00\n        /* \"#utility.yul\":1143:1149   */\n      dup3\n        /* \"#utility.yul\":1138:1141   */\n      dup3\n        /* \"#utility.yul\":1131:1150   */\n      mstore\n        /* \"#utility.yul\":1183:1187   */\n      0x20\n        /* \"#utility.yul\":1178:1181   */\n      dup3\n        /* \"#utility.yul\":1174:1188   */\n      add\n        /* \"#utility.yul\":1159:1188   */\n      swap1\n      pop\n        /* \"#utility.yul\":1025:1194   */\n      swap3\n      swap2\n      pop\n      pop\n      jump\t// out\n        /* \"#utility.yul\":1200:1381   */\n    tag_33:\n        /* \"#utility.yul\":1340:1373   */\n      0x416d6f756e742073686f756c642062652067726561746572207468616e203000\n        /* \"#utility.yul\":1336:1337   */\n      0x00\n        /* \"#utility.yul\":1328:1334   */\n      dup3\n        /* \"#utility.yul\":1324:1338   */\n      add\n        /* \"#utility.yul\":1317:1374   */\n      mstore\n        /* \"#utility.yul\":1200:1381   */\n      pop\n      jump\t// out\n        /* \"#utility.yul\":1387:1753   */\n    tag_34:\n        /* \"#utility.yul\":1529:1532   */\n      0x00\n        /* \"#utility.yul\":1550:1617   */\n      tag_60\n        /* \"#utility.yul\":1614:1616   */\n      0x1f\n        /* \"#utility.yul\":1609:1612   */\n      dup4\n        /* \"#utility.yul\":1550:1617   */\n      tag_32\n      jump\t// in\n    tag_60:\n        /* \"#utility.yul\":1543:1617   */\n      swap2\n      pop\n        /* \"#utility.yul\":1626:1719   */\n      tag_61\n        /* \"#utility.yul\":1715:1718   */\n      dup3\n        /* \"#utility.yul\":1626:1719   */\n      tag_33\n      jump\t// in\n    tag_61:\n        /* \"#utility.yul\":1744:1746   */\n      0x20\n        /* \"#utility.yul\":1739:1742   */\n      dup3\n        /* \"#utility.yul\":1735:1747   */\n      add\n        /* \"#utility.yul\":1728:1747   */\n      swap1\n      pop\n        /* \"#utility.yul\":1387:1753   */\n      swap2\n      swap1\n      pop\n      jump\t// out\n        /* \"#utility.yul\":1759:2178   */\n    tag_11:\n        /* \"#utility.yul\":1925:1929   */\n      0x00\n        /* \"#utility.yul\":1963:1965   */\n      0x20\n        /* \"#utility.yul\":1952:1961   */\n      dup3\n        /* \"#utility.yul\":1948:1966   */\n      add\n        /* \"#utility.yul\":1940:1966   */\n      swap1\n      pop\n        /* \"#utility.yul\":2012:2021   */\n      dup2\n        /* \"#utility.yul\":2006:2010   */\n      dup2\n        /* \"#utility.yul\":2002:2022   */\n      sub\n        /* \"#utility.yul\":1998:1999   */\n      0x00\n        /* \"#utility.yul\":1987:1996   */\n      dup4\n        /* \"#utility.yul\":1983:2000   */\n      add\n        /* \"#utility.yul\":1976:2023   */\n      mstore\n        /* \"#utility.yul\":2040:2171   */\n      tag_63\n        /* \"#utility.yul\":2166:2170   */\n      dup2\n        /* \"#utility.yul\":2040:2171   */\n      tag_34\n      jump\t// in\n    tag_63:\n        /* \"#utility.yul\":2032:2171   */\n      swap1\n      pop\n        /* \"#utility.yul\":1759:2178   */\n      swap2\n      swap1\n      pop\n      jump\t// out\n        /* \"#utility.yul\":2184:2364   */\n    tag_35:\n        /* \"#utility.yul\":2232:2309   */\n      0x4e487b7100000000000000000000000000000000000000000000000000000000\n        /* \"#utility.yul\":2229:2230   */\n      0x00\n        /* \"#utility.yul\":2222:2310   */\n      mstore\n        /* \"#utility.yul\":2329:2333   */\n      0x11\n        /* \"#utility.yul\":2326:2327   */\n      0x04\n        /* \"#utility.yul\":2319:2334   */\n      mstore\n        /* \"#utility.yul\":2353:2357   */\n      0x24\n        /* \"#utility.yul\":2350:2351   */\n      0x00\n        /* \"#utility.yul\":2343:2358   */\n      revert\n        /* \"#utility.yul\":2370:2780   */\n    tag_13:\n        /* \"#utility.yul\":2410:2417   */\n      0x00\n        /* \"#utility.yul\":2433:2453   */\n      tag_66\n        /* \"#utility.yul\":2451:2452   */\n      dup3\n        /* \"#utility.yul\":2433:2453   */\n      tag_29\n      jump\t// in\n    tag_66:\n        /* \"#utility.yul\":2428:2453   */\n      swap2\n      pop\n        /* \"#utility.yul\":2467:2487   */\n      tag_67\n        /* \"#utility.yul\":2485:2486   */\n      dup4\n        /* \"#utility.yul\":2467:2487   */\n      tag_29\n      jump\t// in\n    tag_67:\n        /* \"#utility.yul\":2462:2487   */\n      swap3\n      pop\n        /* \"#utility.yul\":2522:2523   */\n      dup3\n        /* \"#utility.yul\":2519:2520   */\n      dup3\n        /* \"#utility.yul\":2515:2524   */\n      mul\n        /* \"#utility.yul\":2544:2574   */\n      tag_68\n        /* \"#utility.yul\":2562:2573   */\n      dup2\n        /* \"#utility.yul\":2544:2574   */\n      tag_29\n      jump\t// in\n    tag_68:\n        /* \"#utility.yul\":2533:2574   */\n      swap2\n      pop\n        /* \"#utility.yul\":2723:2724   */\n      dup3\n        /* \"#utility.yul\":2714:2721   */\n      dup3\n        /* \"#utility.yul\":2710:2725   */\n      div\n        /* \"#utility.yul\":2707:2708   */\n      dup5\n        /* \"#utility.yul\":2704:2726   */\n      eq\n        /* \"#utility.yul\":2684:2685   */\n      dup4\n        /* \"#utility.yul\":2677:2686   */\n      iszero\n        /* \"#utility.yul\":2657:2740   */\n      or\n        /* \"#utility.yul\":2634:2773   */\n      tag_69\n      jumpi\n        /* \"#utility.yul\":2753:2771   */\n      tag_70\n      tag_35\n      jump\t// in\n    tag_70:\n        /* \"#utility.yul\":2634:2773   */\n    tag_69:\n        /* \"#utility.yul\":2418:2780   */\n      pop\n        /* \"#utility.yul\":2370:2780   */\n      swap3\n      swap2\n      pop\n      pop\n      jump\t// out\n        /* \"#utility.yul\":2786:2912   */\n    tag_36:\n        /* \"#utility.yul\":2823:2830   */\n      0x00\n        /* \"#utility.yul\":2863:2905   */\n      0xffffffffffffffffffffffffffffffffffffffff\n        /* \"#utility.yul\":2856:2861   */\n      dup3\n        /* \"#utility.yul\":2852:2906   */\n      and\n        /* \"#utility.yul\":2841:2906   */\n      swap1\n      pop\n        /* \"#utility.yul\":2786:2912   */\n      swap2\n      swap1\n      pop\n      jump\t// out\n        /* \"#utility.yul\":2918:3014   */\n    tag_37:\n        /* \"#utility.yul\":2955:2962   */\n      0x00\n        /* \"#utility.yul\":2984:3008   */\n      tag_73\n        /* \"#utility.yul\":3002:3007   */\n      dup3\n        /* \"#utility.yul\":2984:3008   */\n      tag_36\n      jump\t// in\n    tag_73:\n        /* \"#utility.yul\":2973:3008   */\n      swap1\n      pop\n        /* \"#utility.yul\":2918:3014   */\n      swap2\n      swap1\n      pop\n      jump\t// out\n        /* \"#utility.yul\":3020:3138   */\n    tag_38:\n        /* \"#utility.yul\":3107:3131   */\n      tag_75\n        /* \"#utility.yul\":3125:3130   */\n      dup2\n        /* \"#utility.yul\":3107:3131   */\n      tag_37\n      jump\t// in\n    tag_75:\n        /* \"#utility.yul\":3102:3105   */\n      dup3\n        /* \"#utility.yul\":3095:3132   */\n      mstore\n        /* \"#utility.yul\":3020:3138   */\n      pop\n      pop\n      jump\t// out\n        /* \"#utility.yul\":3144:3262   */\n    tag_39:\n        /* \"#utility.yul\":3231:3255   */\n      tag_77\n        /* \"#utility.yul\":3249:3254   */\n      dup2\n        /* \"#utility.yul\":3231:3255   */\n      tag_29\n      jump\t// in\n    tag_77:\n        /* \"#utility.yul\":3226:3229   */\n      dup3\n        /* \"#utility.yul\":3219:3256   */\n      mstore\n        /* \"#utility.yul\":3144:3262   */\n      pop\n      pop\n      jump\t// out\n        /* \"#utility.yul\":3268:3710   */\n    tag_15:\n        /* \"#utility.yul\":3417:3421   */\n      0x00\n        /* \"#utility.yul\":3455:3457   */\n      0x60\n        /* \"#utility.yul\":3444:3453   */\n      dup3\n        /* \"#utility.yul\":3440:3458   */\n      add\n        /* \"#utility.yul\":3432:3458   */\n      swap1\n      pop\n        /* \"#utility.yul\":3468:3539   */\n      tag_79\n        /* \"#utility.yul\":3536:3537   */\n      0x00\n        /* \"#utility.yul\":3525:3534   */\n      dup4\n        /* \"#utility.yul\":3521:3538   */\n      add\n        /* \"#utility.yul\":3512:3518   */\n      dup7\n        /* \"#utility.yul\":3468:3539   */\n      tag_38\n      jump\t// in\n    tag_79:\n        /* \"#utility.yul\":3549:3621   */\n      tag_80\n        /* \"#utility.yul\":3617:3619   */\n      0x20\n        /* \"#utility.yul\":3606:3615   */\n      dup4\n        /* \"#utility.yul\":3602:3620   */\n      add\n        /* \"#utility.yul\":3593:3599   */\n      dup6\n        /* \"#utility.yul\":3549:3621   */\n      tag_38\n      jump\t// in\n    tag_80:\n        /* \"#utility.yul\":3631:3703   */\n      tag_81\n        /* \"#utility.yul\":3699:3701   */\n      0x40\n        /* \"#utility.yul\":3688:3697   */\n      dup4\n        /* \"#utility.yul\":3684:3702   */\n      add\n        /* \"#utility.yul\":3675:3681   */\n      dup5\n        /* \"#utility.yul\":3631:3703   */\n      tag_39\n      jump\t// in\n    tag_81:\n        /* \"#utility.yul\":3268:3710   */\n      swap5\n      swap4\n      pop\n      pop\n      pop\n      pop\n      jump\t// out\n        /* \"#utility.yul\":3716:3806   */\n    tag_40:\n        /* \"#utility.yul\":3750:3757   */\n      0x00\n        /* \"#utility.yul\":3793:3798   */\n      dup2\n        /* \"#utility.yul\":3786:3799   */\n      iszero\n        /* \"#utility.yul\":3779:3800   */\n      iszero\n        /* \"#utility.yul\":3768:3800   */\n      swap1\n      pop\n        /* \"#utility.yul\":3716:3806   */\n      swap2\n      swap1\n      pop\n      jump\t// out\n        /* \"#utility.yul\":3812:3928   */\n    tag_41:\n        /* \"#utility.yul\":3882:3903   */\n      tag_84\n        /* \"#utility.yul\":3897:3902   */\n      dup2\n        /* \"#utility.yul\":3882:3903   */\n      tag_40\n      jump\t// in\n    tag_84:\n        /* \"#utility.yul\":3875:3880   */\n      dup2\n        /* \"#utility.yul\":3872:3904   */\n      eq\n        /* \"#utility.yul\":3862:3922   */\n      tag_85\n      jumpi\n        /* \"#utility.yul\":3918:3919   */\n      0x00\n        /* \"#utility.yul\":3915:3916   */\n      dup1\n        /* \"#utility.yul\":3908:3920   */\n      revert\n        /* \"#utility.yul\":3862:3922   */\n    tag_85:\n        /* \"#utility.yul\":3812:3928   */\n      pop\n      jump\t// out\n        /* \"#utility.yul\":3934:4071   */\n    tag_42:\n        /* \"#utility.yul\":3988:3993   */\n      0x00\n        /* \"#utility.yul\":4019:4025   */\n      dup2\n        /* \"#utility.yul\":4013:4026   */\n      mload\n        /* \"#utility.yul\":4004:4026   */\n      swap1\n      pop\n        /* \"#utility.yul\":4035:4065   */\n      tag_87\n        /* \"#utility.yul\":4059:4064   */\n      dup2\n        /* \"#utility.yul\":4035:4065   */\n      tag_41\n      jump\t// in\n    tag_87:\n        /* \"#utility.yul\":3934:4071   */\n      swap3\n      swap2\n      pop\n      pop\n      jump\t// out\n        /* \"#utility.yul\":4077:4422   */\n    tag_19:\n        /* \"#utility.yul\":4144:4150   */\n      0x00\n        /* \"#utility.yul\":4193:4195   */\n      0x20\n        /* \"#utility.yul\":4181:4190   */\n      dup3\n        /* \"#utility.yul\":4172:4179   */\n      dup5\n        /* \"#utility.yul\":4168:4191   */\n      sub\n        /* \"#utility.yul\":4164:4196   */\n      slt\n        /* \"#utility.yul\":4161:4280   */\n      iszero\n      tag_89\n      jumpi\n        /* \"#utility.yul\":4199:4278   */\n      tag_90\n      tag_27\n      jump\t// in\n    tag_90:\n        /* \"#utility.yul\":4161:4280   */\n    tag_89:\n        /* \"#utility.yul\":4319:4320   */\n      0x00\n        /* \"#utility.yul\":4344:4405   */\n      tag_91\n        /* \"#utility.yul\":4397:4404   */\n      dup5\n        /* \"#utility.yul\":4388:4394   */\n      dup3\n        /* \"#utility.yul\":4377:4386   */\n      dup6\n        /* \"#utility.yul\":4373:4395   */\n      add\n        /* \"#utility.yul\":4344:4405   */\n      tag_42\n      jump\t// in\n    tag_91:\n        /* \"#utility.yul\":4334:4405   */\n      swap2\n      pop\n        /* \"#utility.yul\":4290:4415   */\n      pop\n        /* \"#utility.yul\":4077:4422   */\n      swap3\n      swap2\n      pop\n      pop\n      jump\t// out\n        /* \"#utility.yul\":4428:4760   */\n    tag_21:\n        /* \"#utility.yul\":4549:4553   */\n      0x00\n        /* \"#utility.yul\":4587:4589   */\n      0x40\n        /* \"#utility.yul\":4576:4585   */\n      dup3\n        /* \"#utility.yul\":4572:4590   */\n      add\n        /* \"#utility.yul\":4564:4590   */\n      swap1\n      pop\n        /* \"#utility.yul\":4600:4671   */\n      tag_93\n        /* \"#utility.yul\":4668:4669   */\n      0x00\n        /* \"#utility.yul\":4657:4666   */\n      dup4\n        /* \"#utility.yul\":4653:4670   */\n      add\n        /* \"#utility.yul\":4644:4650   */\n      dup6\n        /* \"#utility.yul\":4600:4671   */\n      tag_38\n      jump\t// in\n    tag_93:\n        /* \"#utility.yul\":4681:4753   */\n      tag_94\n        /* \"#utility.yul\":4749:4751   */\n      0x20\n        /* \"#utility.yul\":4738:4747   */\n      dup4\n        /* \"#utility.yul\":4734:4752   */\n      add\n        /* \"#utility.yul\":4725:4731   */\n      dup5\n        /* \"#utility.yul\":4681:4753   */\n      tag_39\n      jump\t// in\n    tag_94:\n        /* \"#utility.yul\":4428:4760   */\n      swap4\n      swap3\n      pop\n      pop\n      pop\n      jump\t// out\n\n    auxdata: 0xa2646970667358221220e527e94c891e35b262e4156ed930565e7172faffbd27c4fa7ebcb11422a6658164736f6c634300081a0033\n}\n",
				"bytecode": {
					"linkReferences": {},
					"object": "608060405234801561000f575f80fd5b5060405161068738038061068783398181016040528101906100319190610150565b825f806101000a81548173ffffffffffffffffffffffffffffffffffffffff021916908373ffffffffffffffffffffffffffffffffffffffff1602179055508160015f6101000a81548173ffffffffffffffffffffffffffffffffffffffff021916908373ffffffffffffffffffffffffffffffffffffffff160217905550806002819055505050506101a0565b5f80fd5b5f73ffffffffffffffffffffffffffffffffffffffff82169050919050565b5f6100ec826100c3565b9050919050565b6100fc816100e2565b8114610106575f80fd5b50565b5f81519050610117816100f3565b92915050565b5f819050919050565b61012f8161011d565b8114610139575f80fd5b50565b5f8151905061014a81610126565b92915050565b5f805f60608486031215610167576101666100bf565b5b5f61017486828701610109565b935050602061018586828701610109565b92505060406101968682870161013c565b9150509250925092565b6104da806101ad5f395ff3fe608060405234801561000f575f80fd5b5060043610610029575f3560e01c8063b374d19b1461002d575b5f80fd5b61004760048036038101906100429190610289565b610049565b005b5f811161008b576040517f08c379a00000000000000000000000000000000000000000000000000000000081526004016100829061030e565b60405180910390fd5b5f8054906101000a900473ffffffffffffffffffffffffffffffffffffffff1673ffffffffffffffffffffffffffffffffffffffff166323b872dd3330600254856100d69190610359565b6040518463ffffffff1660e01b81526004016100f4939291906103e8565b6020604051808303815f875af1158015610110573d5f803e3d5ffd5b505050506040513d601f19601f820116820180604052508101906101349190610452565b5060015f9054906101000a900473ffffffffffffffffffffffffffffffffffffffff1673ffffffffffffffffffffffffffffffffffffffff1663a9059cbb33836040518363ffffffff1660e01b815260040161019192919061047d565b6020604051808303815f875af11580156101ad573d5f803e3d5ffd5b505050506040513d601f19601f820116820180604052508101906101d19190610452565b507f54445d9be7f7ec3692e5471a5c037b41185bd6ccfa8c29053e1e180ac459bd445f8054906101000a900473ffffffffffffffffffffffffffffffffffffffff1660015f9054906101000a900473ffffffffffffffffffffffffffffffffffffffff16600254604051610247939291906103e8565b60405180910390a150565b5f80fd5b5f819050919050565b61026881610256565b8114610272575f80fd5b50565b5f813590506102838161025f565b92915050565b5f6020828403121561029e5761029d610252565b5b5f6102ab84828501610275565b91505092915050565b5f82825260208201905092915050565b7f416d6f756e742073686f756c642062652067726561746572207468616e2030005f82015250565b5f6102f8601f836102b4565b9150610303826102c4565b602082019050919050565b5f6020820190508181035f830152610325816102ec565b9050919050565b7f4e487b71000000000000000000000000000000000000000000000000000000005f52601160045260245ffd5b5f61036382610256565b915061036e83610256565b925082820261037c81610256565b915082820484148315176103935761039261032c565b5b5092915050565b5f73ffffffffffffffffffffffffffffffffffffffff82169050919050565b5f6103c38261039a565b9050919050565b6103d3816103b9565b82525050565b6103e281610256565b82525050565b5f6060820190506103fb5f8301866103ca565b61040860208301856103ca565b61041560408301846103d9565b949350505050565b5f8115159050919050565b6104318161041d565b811461043b575f80fd5b50565b5f8151905061044c81610428565b92915050565b5f6020828403121561046757610466610252565b5b5f6104748482850161043e565b91505092915050565b5f6040820190506104905f8301856103ca565b61049d60208301846103d9565b939250505056fea2646970667358221220e527e94c891e35b262e4156ed930565e7172faffbd27c4fa7ebcb11422a6658164736f6c634300081a0033",
					"opcodes": "PUSH1 0x80 PUSH1 0x40 MSTORE CALLVALUE DUP1 ISZERO PUSH2 0xF JUMPI PUSH0 DUP1 REVERT JUMPDEST POP PUSH1 0x40 MLOAD PUSH2 0x687 CODESIZE SUB DUP1 PUSH2 0x687 DUP4 CODECOPY DUP2 DUP2 ADD PUSH1 0x40 MSTORE DUP2 ADD SWAP1 PUSH2 0x31 SWAP2 SWAP1 PUSH2 0x150 JUMP JUMPDEST DUP3 PUSH0 DUP1 PUSH2 0x100 EXP DUP2 SLOAD DUP2 PUSH20 0xFFFFFFFFFFFFFFFFFFFFFFFFFFFFFFFFFFFFFFFF MUL NOT AND SWAP1 DUP4 PUSH20 0xFFFFFFFFFFFFFFFFFFFFFFFFFFFFFFFFFFFFFFFF AND MUL OR SWAP1 SSTORE POP DUP2 PUSH1 0x1 PUSH0 PUSH2 0x100 EXP DUP2 SLOAD DUP2 PUSH20 0xFFFFFFFFFFFFFFFFFFFFFFFFFFFFFFFFFFFFFFFF MUL NOT AND SWAP1 DUP4 PUSH20 0xFFFFFFFFFFFFFFFFFFFFFFFFFFFFFFFFFFFFFFFF AND MUL OR SWAP1 SSTORE POP DUP1 PUSH1 0x2 DUP2 SWAP1 SSTORE POP POP POP POP PUSH2 0x1A0 JUMP JUMPDEST PUSH0 DUP1 REVERT JUMPDEST PUSH0 PUSH20 0xFFFFFFFFFFFFFFFFFFFFFFFFFFFFFFFFFFFFFFFF DUP3 AND SWAP1 POP SWAP2 SWAP1 POP JUMP JUMPDEST PUSH0 PUSH2 0xEC DUP3 PUSH2 0xC3 JUMP JUMPDEST SWAP1 POP SWAP2 SWAP1 POP JUMP JUMPDEST PUSH2 0xFC DUP2 PUSH2 0xE2 JUMP JUMPDEST DUP2 EQ PUSH2 0x106 JUMPI PUSH0 DUP1 REVERT JUMPDEST POP JUMP JUMPDEST PUSH0 DUP2 MLOAD SWAP1 POP PUSH2 0x117 DUP2 PUSH2 0xF3 JUMP JUMPDEST SWAP3 SWAP2 POP POP JUMP JUMPDEST PUSH0 DUP2 SWAP1 POP SWAP2 SWAP1 POP JUMP JUMPDEST PUSH2 0x12F DUP2 PUSH2 0x11D JUMP JUMPDEST DUP2 EQ PUSH2 0x139 JUMPI PUSH0 DUP1 REVERT JUMPDEST POP JUMP JUMPDEST PUSH0 DUP2 MLOAD SWAP1 POP PUSH2 0x14A DUP2 PUSH2 0x126 JUMP JUMPDEST SWAP3 SWAP2 POP POP JUMP JUMPDEST PUSH0 DUP1 PUSH0 PUSH1 0x60 DUP5 DUP7 SUB SLT ISZERO PUSH2 0x167 JUMPI PUSH2 0x166 PUSH2 0xBF JUMP JUMPDEST JUMPDEST PUSH0 PUSH2 0x174 DUP7 DUP3 DUP8 ADD PUSH2 0x109 JUMP JUMPDEST SWAP4 POP POP PUSH1 0x20 PUSH2 0x185 DUP7 DUP3 DUP8 ADD PUSH2 0x109 JUMP JUMPDEST SWAP3 POP POP PUSH1 0x40 PUSH2 0x196 DUP7 DUP3 DUP8 ADD PUSH2 0x13C JUMP JUMPDEST SWAP2 POP POP SWAP3 POP SWAP3 POP SWAP3 JUMP JUMPDEST PUSH2 0x4DA DUP1 PUSH2 0x1AD PUSH0 CODECOPY PUSH0 RETURN INVALID PUSH1 0x80 PUSH1 0x40 MSTORE CALLVALUE DUP1 ISZERO PUSH2 0xF JUMPI PUSH0 DUP1 REVERT JUMPDEST POP PUSH1 0x4 CALLDATASIZE LT PUSH2 0x29 JUMPI PUSH0 CALLDATALOAD PUSH1 0xE0 SHR DUP1 PUSH4 0xB374D19B EQ PUSH2 0x2D JUMPI JUMPDEST PUSH0 DUP1 REVERT JUMPDEST PUSH2 0x47 PUSH1 0x4 DUP1 CALLDATASIZE SUB DUP2 ADD SWAP1 PUSH2 0x42 SWAP2 SWAP1 PUSH2 0x289 JUMP JUMPDEST PUSH2 0x49 JUMP JUMPDEST STOP JUMPDEST PUSH0 DUP2 GT PUSH2 0x8B JUMPI PUSH1 0x40 MLOAD PUSH32 0x8C379A000000000000000000000000000000000000000000000000000000000 DUP2 MSTORE PUSH1 0x4 ADD PUSH2 0x82 SWAP1 PUSH2 0x30E JUMP JUMPDEST PUSH1 0x40 MLOAD DUP1 SWAP2 SUB SWAP1 REVERT JUMPDEST PUSH0 DUP1 SLOAD SWAP1 PUSH2 0x100 EXP SWAP1 DIV PUSH20 0xFFFFFFFFFFFFFFFFFFFFFFFFFFFFFFFFFFFFFFFF AND PUSH20 0xFFFFFFFFFFFFFFFFFFFFFFFFFFFFFFFFFFFFFFFF AND PUSH4 0x23B872DD CALLER ADDRESS PUSH1 0x2 SLOAD DUP6 PUSH2 0xD6 SWAP2 SWAP1 PUSH2 0x359 JUMP JUMPDEST PUSH1 0x40 MLOAD DUP5 PUSH4 0xFFFFFFFF AND PUSH1 0xE0 SHL DUP2 MSTORE PUSH1 0x4 ADD PUSH2 0xF4 SWAP4 SWAP3 SWAP2 SWAP1 PUSH2 0x3E8 JUMP JUMPDEST PUSH1 0x20 PUSH1 0x40 MLOAD DUP1 DUP4 SUB DUP2 PUSH0 DUP8 GAS CALL ISZERO DUP1 ISZERO PUSH2 0x110 JUMPI RETURNDATASIZE PUSH0 DUP1 RETURNDATACOPY RETURNDATASIZE PUSH0 REVERT JUMPDEST POP POP POP POP PUSH1 0x40 MLOAD RETURNDATASIZE PUSH1 0x1F NOT PUSH1 0x1F DUP3 ADD AND DUP3 ADD DUP1 PUSH1 0x40 MSTORE POP DUP2 ADD SWAP1 PUSH2 0x134 SWAP2 SWAP1 PUSH2 0x452 JUMP JUMPDEST POP PUSH1 0x1 PUSH0 SWAP1 SLOAD SWAP1 PUSH2 0x100 EXP SWAP1 DIV PUSH20 0xFFFFFFFFFFFFFFFFFFFFFFFFFFFFFFFFFFFFFFFF AND PUSH20 0xFFFFFFFFFFFFFFFFFFFFFFFFFFFFFFFFFFFFFFFF AND PUSH4 0xA9059CBB CALLER DUP4 PUSH1 0x40 MLOAD DUP4 PUSH4 0xFFFFFFFF AND PUSH1 0xE0 SHL DUP2 MSTORE PUSH1 0x4 ADD PUSH2 0x191 SWAP3 SWAP2 SWAP1 PUSH2 0x47D JUMP JUMPDEST PUSH1 0x20 PUSH1 0x40 MLOAD DUP1 DUP4 SUB DUP2 PUSH0 DUP8 GAS CALL ISZERO DUP1 ISZERO PUSH2 0x1AD JUMPI RETURNDATASIZE PUSH0 DUP1 RETURNDATACOPY RETURNDATASIZE PUSH0 REVERT JUMPDEST POP POP POP POP PUSH1 0x40 MLOAD RETURNDATASIZE PUSH1 0x1F NOT PUSH1 0x1F DUP3 ADD AND DUP3 ADD DUP1 PUSH1 0x40 MSTORE POP DUP2 ADD SWAP1 PUSH2 0x1D1 SWAP2 SWAP1 PUSH2 0x452 JUMP JUMPDEST POP PUSH32 0x54445D9BE7F7EC3692E5471A5C037B41185BD6CCFA8C29053E1E180AC459BD44 PUSH0 DUP1 SLOAD SWAP1 PUSH2 0x100 EXP SWAP1 DIV PUSH20 0xFFFFFFFFFFFFFFFFFFFFFFFFFFFFFFFFFFFFFFFF AND PUSH1 0x1 PUSH0 SWAP1 SLOAD SWAP1 PUSH2 0x100 EXP SWAP1 DIV PUSH20 0xFFFFFFFFFFFFFFFFFFFFFFFFFFFFFFFFFFFFFFFF AND PUSH1 0x2 SLOAD PUSH1 0x40 MLOAD PUSH2 0x247 SWAP4 SWAP3 SWAP2 SWAP1 PUSH2 0x3E8 JUMP JUMPDEST PUSH1 0x40 MLOAD DUP1 SWAP2 SUB SWAP1 LOG1 POP JUMP JUMPDEST PUSH0 DUP1 REVERT JUMPDEST PUSH0 DUP2 SWAP1 POP SWAP2 SWAP1 POP JUMP JUMPDEST PUSH2 0x268 DUP2 PUSH2 0x256 JUMP JUMPDEST DUP2 EQ PUSH2 0x272 JUMPI PUSH0 DUP1 REVERT JUMPDEST POP JUMP JUMPDEST PUSH0 DUP2 CALLDATALOAD SWAP1 POP PUSH2 0x283 DUP2 PUSH2 0x25F JUMP JUMPDEST SWAP3 SWAP2 POP POP JUMP JUMPDEST PUSH0 PUSH1 0x20 DUP3 DUP5 SUB SLT ISZERO PUSH2 0x29E JUMPI PUSH2 0x29D PUSH2 0x252 JUMP JUMPDEST JUMPDEST PUSH0 PUSH2 0x2AB DUP5 DUP3 DUP6 ADD PUSH2 0x275 JUMP JUMPDEST SWAP2 POP POP SWAP3 SWAP2 POP POP JUMP JUMPDEST PUSH0 DUP3 DUP3 MSTORE PUSH1 0x20 DUP3 ADD SWAP1 POP SWAP3 SWAP2 POP POP JUMP JUMPDEST PUSH32 0x416D6F756E742073686F756C642062652067726561746572207468616E203000 PUSH0 DUP3 ADD MSTORE POP JUMP JUMPDEST PUSH0 PUSH2 0x2F8 PUSH1 0x1F DUP4 PUSH2 0x2B4 JUMP JUMPDEST SWAP2 POP PUSH2 0x303 DUP3 PUSH2 0x2C4 JUMP JUMPDEST PUSH1 0x20 DUP3 ADD SWAP1 POP SWAP2 SWAP1 POP JUMP JUMPDEST PUSH0 PUSH1 0x20 DUP3 ADD SWAP1 POP DUP2 DUP2 SUB PUSH0 DUP4 ADD MSTORE PUSH2 0x325 DUP2 PUSH2 0x2EC JUMP JUMPDEST SWAP1 POP SWAP2 SWAP1 POP JUMP JUMPDEST PUSH32 0x4E487B7100000000000000000000000000000000000000000000000000000000 PUSH0 MSTORE PUSH1 0x11 PUSH1 0x4 MSTORE PUSH1 0x24 PUSH0 REVERT JUMPDEST PUSH0 PUSH2 0x363 DUP3 PUSH2 0x256 JUMP JUMPDEST SWAP2 POP PUSH2 0x36E DUP4 PUSH2 0x256 JUMP JUMPDEST SWAP3 POP DUP3 DUP3 MUL PUSH2 0x37C DUP2 PUSH2 0x256 JUMP JUMPDEST SWAP2 POP DUP3 DUP3 DIV DUP5 EQ DUP4 ISZERO OR PUSH2 0x393 JUMPI PUSH2 0x392 PUSH2 0x32C JUMP JUMPDEST JUMPDEST POP SWAP3 SWAP2 POP POP JUMP JUMPDEST PUSH0 PUSH20 0xFFFFFFFFFFFFFFFFFFFFFFFFFFFFFFFFFFFFFFFF DUP3 AND SWAP1 POP SWAP2 SWAP1 POP JUMP JUMPDEST PUSH0 PUSH2 0x3C3 DUP3 PUSH2 0x39A JUMP JUMPDEST SWAP1 POP SWAP2 SWAP1 POP JUMP JUMPDEST PUSH2 0x3D3 DUP2 PUSH2 0x3B9 JUMP JUMPDEST DUP3 MSTORE POP POP JUMP JUMPDEST PUSH2 0x3E2 DUP2 PUSH2 0x256 JUMP JUMPDEST DUP3 MSTORE POP POP JUMP JUMPDEST PUSH0 PUSH1 0x60 DUP3 ADD SWAP1 POP PUSH2 0x3FB PUSH0 DUP4 ADD DUP7 PUSH2 0x3CA JUMP JUMPDEST PUSH2 0x408 PUSH1 0x20 DUP4 ADD DUP6 PUSH2 0x3CA JUMP JUMPDEST PUSH2 0x415 PUSH1 0x40 DUP4 ADD DUP5 PUSH2 0x3D9 JUMP JUMPDEST SWAP5 SWAP4 POP POP POP POP JUMP JUMPDEST PUSH0 DUP2 ISZERO ISZERO SWAP1 POP SWAP2 SWAP1 POP JUMP JUMPDEST PUSH2 0x431 DUP2 PUSH2 0x41D JUMP JUMPDEST DUP2 EQ PUSH2 0x43B JUMPI PUSH0 DUP1 REVERT JUMPDEST POP JUMP JUMPDEST PUSH0 DUP2 MLOAD SWAP1 POP PUSH2 0x44C DUP2 PUSH2 0x428 JUMP JUMPDEST SWAP3 SWAP2 POP POP JUMP JUMPDEST PUSH0 PUSH1 0x20 DUP3 DUP5 SUB SLT ISZERO PUSH2 0x467 JUMPI PUSH2 0x466 PUSH2 0x252 JUMP JUMPDEST JUMPDEST PUSH0 PUSH2 0x474 DUP5 DUP3 DUP6 ADD PUSH2 0x43E JUMP JUMPDEST SWAP2 POP POP SWAP3 SWAP2 POP POP JUMP JUMPDEST PUSH0 PUSH1 0x40 DUP3 ADD SWAP1 POP PUSH2 0x490 PUSH0 DUP4 ADD DUP6 PUSH2 0x3CA JUMP JUMPDEST PUSH2 0x49D PUSH1 0x20 DUP4 ADD DUP5 PUSH2 0x3D9 JUMP JUMPDEST SWAP4 SWAP3 POP POP POP JUMP INVALID LOG2 PUSH5 0x6970667358 0x22 SLT KECCAK256 0xE5 0x27 0xE9 0x4C DUP10 0x1E CALLDATALOAD 0xB2 PUSH3 0xE4156E 0xD9 ADDRESS JUMP MCOPY PUSH18 0x72FAFFBD27C4FA7EBCB11422A6658164736F PUSH13 0x634300081A0033000000000000 "
				},
				"gasEstimates": {
					"creation": {
						"codeDepositCost": "248400",
						"executionCost": "infinite",
						"totalCost": "infinite"
					},
					"external": {
						"swapFunc(uint256)": "infinite"
					}
				},
				"methodIdentifiers": {
					"swapFunc(uint256)": "b374d19b"
				}
			},
			"storageLayout": {
				"storage": [
					{
						"astId": 840,
						"contract": "contracts/Swap.sol:Swapping",
						"label": "tokenA",
						"offset": 0,
						"slot": "0",
						"type": "t_contract(IERC20)729"
					},
					{
						"astId": 843,
						"contract": "contracts/Swap.sol:Swapping",
						"label": "tokenB",
						"offset": 0,
						"slot": "1",
						"type": "t_contract(IERC20)729"
					},
					{
						"astId": 845,
						"contract": "contracts/Swap.sol:Swapping",
						"label": "rate",
						"offset": 0,
						"slot": "2",
						"type": "t_uint256"
					}
				],
				"types": {
					"t_contract(IERC20)729": {
						"encoding": "inplace",
						"label": "contract IERC20",
						"numberOfBytes": "20"
					},
					"t_uint256": {
						"encoding": "inplace",
						"label": "uint256",
						"numberOfBytes": "32"
					}
				}
			},
			"userdoc": {
				"kind": "user",
				"methods": {},
				"version": 1
			}
		}
	}
}